:10000000F8A40020C9A00000F5BF01009DA00000D9
:100010009DA000009DA000009DA000009DA00000EC
:10002000000000000000000000000000659B0000D0
:100030009DA0000000000000CD9A00009DA00000DF
:10004000099C0000099C0000099C0000099C00001C
:10005000099C0000099C0000099C0000099C00000C
:10006000099C0000099C0000099C0000099C0000FC
:10007000099C0000099C0000099C0000099C0000EC
:10008000099C0000099C0000099C0000099C0000DC
:10009000099C0000099C0000099C0000099C0000CC
:1000A000099C0000099C0000099C0000099C0000BC
:1000B000099C0000099C0000099C0000099C0000AC
:1000C000099C0000099C0000099C0000099C00009C
:1000D000099C0000099C0000099C0000099C00008C
:1000E000099C0000099C0000099C0000099C00007C
:1000F000099C0000099C0000099C0000099C00006C
:10010000099C0000099C0000099C0000099C00005B
:10011000099C0000099C0000099C0000099C00004B
:10012000099C0000099C0000099C0000099C00003B
:10013000099C0000099C0000099C0000099C00002B
:10014000099C0000099C0000099C0000099C00001B
:04015000099C000006
:04015400FFFFFFFFAB
:100158002DE9F04F2DED068B8BB09DF870408B4646
:1001680001949DF874401E469DF86C5002942AB381
:100178000128144625D028B100200BB0BDEC068B11
:10018800BDE8F08F002D00F0958207EE105ADDEDE6
:100198001A7AF8EE475AF8EEE77AB6EE006A87EE72
:1001A800A57ADFED9F6A67EE067A67EEA67ACBED51
:1001B800007A0BB0BDEC068BBDE8F08F012806ACC9
:1001C800D9D1984D4FF48052002128461FF01DF9CF
:1001D8004FF4A072002194481FF017F933462A46BD
:1001E8002E4605F52077194693EDF06AD3ED507A3F
:1001F800D1EDA06A91ED007A67EEC67AE6EE877ACD
:10020800C2ED007AD3ED007A93EDF06AD3EDA06ADF
:1002180093ED507A67EE867AE6EE877A083297424F
:1002280003F1040342ED017ADDD17F4B9FED7F8A14
:100238009A4603F5A07803933346DFF8E8912646FB
:1002480054469A4606E084ED008A0434A04509F134
:10025800080916D0D9ED000AF5EE400AF1EE10FAB9
:1002680099ED010A04D1B5EE400AF1EE10FAEAD090
:100278001FF07FF8043404ED010AA04509F10809CC
:10028800E8D13446DFED696A56469FED696ADFEDCD
:10029800695A4FF00008039B674A06E077EEA67A92
:1002A800C0ED007A88469A4221D0B3EC017AB4EEC8
:1002B800667AF1EE10FAF6D0D3ED007AF4EE667AAB
:1002C800F1EE10FA5D4901EB880008F10101EAD06E
:1002D80077EEC77AF4EEC67AF1EE10FADED4F4EED1
:1002E800E57AF1EE10FAA8BF77EEE67AD8E79FED47
:1002F800548A96ED016AD6ED006A0122B0EE485A9A
:10030800484BD3ED035AD3ED024A65EEA67A103373
:10031800E4EEC67A25EE867A93ED016AA4EEA67A13
:1003280025EE864AD3ED006A37EE888A37EE055AFD
:1003380064EE867AB0EE447AE6EEE57AA4EEA67A22
:1003480002324F2A35EE075A38EE278AD9D13D4B6B
:1003580053ED026AD3ED017A53ED015A93ED006A29
:1003680026EEA77A65EEA77AA6EE657AE6EE267AF5
:1003780008339F4238EE078A35EE275AE8D115EE42
:10038800100A04F00BFB41EC190B18EE100A04F0EC
:1003980005FBB0EE491AF0EE691A41EC100B1EF09D
:1003A800E6FF1BA3D3E9002351EC100B04F04EFB2E
:1003B80019A3D3E9002301F1004104F071FC04F012
:1003C800DFFD07EE900AF5EEC07AF1EE10FA48BFAD
:1003D800DFED1B7A5FEA5803CBED017A03934DD02A
:1003E8001846A146404546D24FF0000CC0EB807637
:1003F800124CB600A8EB000E4FEA800ABCF1000FC1
:10040800614632DB22460AEB040325E0AFF30080A5
:1004180000000000A3E1B14100000060ECF7674173
:100428009A99993EFC3E0020FC4E0020DB0FC94003
:10043800DB0F49C0DB0F494038500020C03D002089
:100448000000000074410020091A82ED007AC3ED13
:10045800007A3244334408D493ED007AD2ED007A1E
:10046800B4EEE77AF1EE10FAEEDB0CF1010CE6459A
:1004780004F10404C2D14008B4D14C46B84B039AE5
:1004880018F0010F03EB8203D3ED007A07D153ED87
:10049800016AB6EE007A77EEA67A67EE877A9FED64
:1004A800B17ADFEDB16A27EE677AC7EE267A9DED5D
:1004B800017AF5EEC07AB8EE478AF1EE10FA9FEDB0
:1004C800AB7A48BFDFEDAA7A38EE478ADFEDA90A92
:1004D800C4ED007AC8EE200AB2EE040A18F0B2FFA2
:1004E800DFEDA50AF0EE407AC8EE200AC4ED037AE3
:1004F800B2EE040A18F0A6FFF3EE040AF0EE407A12
:10050800C8EE200AB2EE040AC4ED027A18F09AFF87
:10051800029B8BED020A6BB1DDE91E12974B51F875
:10052800040B083343F8080C52F8040B9F4243F8B5
:10053800040CF4D1DFF84C920123A9F500610F46B1
:1005480000228F481DF054FD3E46B8464FF0000A81
:1005580008E019F00FF8043707ED010AB94508F16A
:10056800080813D098ED010AD8ED007A20EE000AA9
:10057800A7EEA70AB5EEC00AF1EE10FAE9DAC7F855
:1005880000A00437B94508F10808EBD17D4BA3F565
:10059800806053F8041D2A6845F8041BA8421A60B5
:1005A800F7D14FF4007104AB744805AA1DF040FA66
:1005B8000499754BB1F5FF7F00F06181B0EE046AD4
:1005C80093ED008A0020DDED056A4FF4FF7540F2D7
:1005D800FF1206E0914278D001201546B0EE678AF6
:1005E8001A4606EB8203D3ED007AF4EEC87AF1EEF0
:1005F80010FA02F10103C3F30803EBD528EE067ADB
:10060800B4EEE67AF1EE10FA02F10103C3F308033F
:1006180059DD531CC3F30803002854D0B5F5FF7FF8
:100628002F46C0F0BB806B1CC3F3080307EE903A5B
:10063800F8EEE77A002F4FD1544A92ED006AB4EEF3
:10064800C68AF1EE10FA06EB8505D5ED016A40DBA6
:10065800F4EEC86AF1EE10FA3BD836EE267AF1EEDF
:10066800005A37EE077A98EE257A36EEC66AF0EE2B
:10067800476A86EE267AB3F5FF7F5BDB444BCBF8FF
:100688000030DBED017A9FED437AF0EEE76AF4EE95
:10069800476AF1EE10FA09D9D4ED007AF0EEE76A6C
:1006A800F4EE476AF1EE10FA00F2E480CBED037A3B
:1006B800002062E500232846CBF800300BB0BDECE3
:1006C800068BBDE8F08F914287D1B0EE678A0D4660
:1006D800A4E79FED277ACEE740F2FF1206EB8501EB
:1006E800974211ED016AAAD1B4EEC86AF1EE10FA88
:1006F800D6ED006AACD99FED1E6A9FED1A7A77EEA7
:10070800867ADFED256A67EE877A87EEA67AF0EEBD
:10071800C77ADFED206AF4EE667AF1EE10FA8BED17
:10072800007AAED800208BED037A0BB0BDEC068BB7
:10073800BDE8F08F77EE277A9FED0A7A9FED166A6B
:1007480067EE877ADFED0A6A87EE867AB4EEE67A94
:10075800F1EE10FADBD5CBED006AB0EE667AE1E790
:10076800C03D0020180D8F4D63BF3F4B0000204255
:10077800000000000000304200000842FC3E00205B
:1007880088140200FC460020F4460020F8460020A9
:100798000000C07FFFFF7F7F0024744EAA46F0EE62
:1007A800488AB2EE049ABAF1000F58D00AF1FF381D
:1007B80078EEA87AF4EEC87AF1EE10FA3EDC18EE7C
:1007C800900A04F0EBF802460B4606EB880108682D
:1007D80043EC1A2B04F0E2F830A3D3E9002304F029
:1007E80035F902460B4651EC1A0B04F0BFFB28BB47
:1007F800AA4586BF05F50073A3EB0A03A5EB0A0318
:10080800072B0ED9AA452DDD40F2F91757456FF48D
:10081800FC73B8BF57461F4406EB87033D4693ED6C
:10082800008A7B1C5A42C2F30802C3F3080358BF6C
:10083800534207EE903AF8EEE77AFBE668EE898ACB
:10084800F4EEC88AF1EE10FAD2DDA84506EB88036B
:10085800CED0C246D3ED008ABAF1000FA6D140F23D
:10086800FF18A5E70AF1070706EB87033D4693ED56
:10087800008AD6E700230220CBF80C307DE493ED04
:10088800008A13ED016A0D46DFED037A40F2FF138B
:10089800D5E600BFAFF300800080FF439A9999998D
:1008A8009999F13F000000002DE9F04F2DED0C8BD8
:1008B8000023B5B00393D24B9FEDD2DA93ED00AA93
:1008C800D3ED019A0346DFEDD0DA4FF027088946C9
:1008D8009FEDC98B103304900591029000F1080A2E
:1008E8000193039F28243D460026049B029A0BA8E7
:1008F80001991393229303460CA801371192209271
:1009080002461AA81A911797014626970EA8039728
:10091800C7F12707CDE924541B9716941595199408
:100928002B948DED288B8DED0CAACDED0D9ACDE98C
:100938000EA8CDF874A0CDF878801496239600F010
:1009480077FE049BDDED0D7A1D932B934FF07E53BC
:100958000199F1EE677A41F8083C272314934B4636
:10096800029A0598039F2992A54A0AF5A07B11903F
:1009780012952D9520942E943194CDED257A8AEDFB
:1009880001DACDE91AB8CDE91E77CDE926A81168B4
:100998002C96CDF83890CDF83C80CDF87080CDF805
:1009A80088802F9752680C984FEAC804249009EB66
:1009B800C80519605A6008339D42FAD1904B21AAA4
:1009C80093ED020AD3ED030A1AA90EA801F018F94B
:1009D800019BD9ED017A13ED027A9AED016AD9EDFE
:1009E800006ABEEE005AF6EE005A9DED0C1ADDEDD7
:1009F8000D1A67EEC70A27EE860AB8F1010F21EE35
:100A0800051A61EEA51AE6EE860AA6EE870A1DD03B
:100A180052464B46A9F108010C44D3ED037AD2EDB6
:100A2800026AD2ED035A93ED026A27EEE67A67EE80
:100A3800A57AA6EE257AE6EE267A0833A34270EE6A
:100A4800870A30EE270A02F10802E6D161EE207A21
:100A580020EEE19AE1EE807AA1EE009AB4EE679A70
:100A6800F1EE10FAF0EE67AA80F133814C46574652
:100A780009F1040697ED001AD7ED011A61EE2A7AFA
:100A88002AEEE17AE9EE217AA9EE017AF4EE477AC4
:100A9800F1EE10FA80F1DE8094ED016A56ED016AFC
:100AA80077EE867A36EE877A0834A54206F108068C
:100AB80006ED037A07F1080744ED017ADAD14B46CF
:100AC80052464146CA460020C146D8469B46134670
:100AD80092ED000A92ED01BAF0EE40CAF1EE4B0A2F
:100AE800DBEE4DCAA0EE2DBAF4EE4BCAF1EE10FAC9
:100AF80080F1CB809BED000ADBED01BAB0EE40CA75
:100B0800F1EE6B0A9BEE8DCAE0EE0DBAB4EE6BCA3D
:100B1800F1EE10FA80F1CB8016465D4600EB080432
:100B28000BEBC10795ED001AD5ED011A6BEE017AB2
:100B380021EECB7AECEEA17AACEE817AF4EE477A2C
:100B4800F1EE10FAB0EE679AF0EE47AA05F1080543
:100B58006ED696ED001AD6ED011A6BEE817A21EE6B
:100B6800EB7AECEE217AACEE017AF4EE477AF1EE0C
:100B780010FA06F1080649D694ED016AD4ED006A28
:100B880037EE2A7A77EE897A36EE877A77EE867AA2
:100B9800BD4204F1080404ED027A44ED017AC1D1A2
:100BA800013902F108020BF1080B00F5A4708FD18E
:100BB800C846D1469A46029B019A03F5A073029350
:100BC8000B9BB8F1010842F8083C02F5A4730193A5
:100BD8000C9B8AED01DAC9F800300D9B0AF5A47A5E
:100BE800C9F8043009F108097FF47BAE35B0BDECD3
:100BF8000C8BBDE8F08F00BF28000000010000004A
:100C080024FB01000000000000000080F0EE6B0AE9
:100C1800B0EE4C0A099208930791069004F018FA6E
:100C280006A8B0EE407A0BC8F0EE607A099AA3E7FE
:100C3800F0EE4B0AB0EE6C0A099208930791069001
:100C480004F006FA06A8F0EE40AA0BC8B0EE609AC7
:100C5800099A7EE7F0EE6A0AB0EE490A04F0F8F95C
:100C680094ED017A56ED016A30EE877A36EE800A05
:100C78000834AC4206F1080606ED030A07F1080736
:100C880004ED017A7FF4F6AE19E7F0EE6D1ABFEEC7
:100C9800001A099208930791069004F0D9F906A85A
:100CA800F0EE40CA0BC8B0EE60BA099A22E7F0EE3F
:100CB8004D1ABFEE001A099208930791069004F0A6
:100CC800C7F906A8B0EE40CA0BC8F0EE60BA099A98
:100CD80022E704F0BDF9B0EE409AF0EE60AAC5E64E
:100CE8002DE9F04F2DED088B9FED5F9ADFED5F7AD0
:100CF80020EE090AD0ED016AC0EE279A20EE260AF6
:100D080080EE278A90ED007A83B0149F9346B0EE68
:100D1800480A3A4605469A460E4669EE879A02F010
:100D280027FCB4EE400AF1EE10FA66D607EE907A88
:100D380095ED027AF8EEE7AAD5ED057A10EE100ADD
:100D48006AEE87AA8DED010AC9EE278A03F026FE0E
:100D580080461AEE900A894603F020FE40A3D3E9A4
:100D6800002303F073FE0B4602464946404604F052
:100D7800DFF8AB69B0F1000818BF4FF00108012B8C
:100D88003BDDB6EE00BA01249DED010A18E0F4EE51
:100D9800C0AAF1EE10FA08DDB4EEC90AF1EE10FAB5
:100DA8004CBF4FF001084FF00008F0EEE87AF4EE7F
:100DB800E79AF1EE10FAAB6929DA01349C421CDAA1
:100DC800B0EE48AA38EE288A3A4631462846B0EEB0
:100DD800409AB0EE480A02F0CBFBB4EE400AF1EEBE
:100DE80010FA0AD6B8F1000FD1D0B4EEC90AF1EE64
:100DF80010FA58BF68EECB8AD7E71D4BCBF8003006
:100E0800CAF8003003B0BDEC088BBDE8F08FA342F0
:100E1800F3DDB4EEC90AF1EE10FA0FD5B5EEC08ACB
:100E2800F1EE10FA48BF9FED138A8BED008A8AED28
:100E3800000A03B0BDEC088BBDE8F08FB5EEC0AA80
:100E4800F1EE10FA48BF9FED0BAA8BED00AA8AEDD0
:100E5800009A03B0BDEC088BBDE8F08FAFF30080BB
:100E68009A9999999999C93FDB0FC940C2F38E4D58
:100E78000000C07F0000000010B50446054B006963
:100E8800236008B123790BB9204610BD02F022FB7C
:100E9800204610BD6CFB010010B50446084B0069E4
:100EA800236008B1237923B9204600F05FF9204672
:100EB80010BD02F00FFB204600F058F9204610BD87
:100EC8006CFB010010B50446054B0069236008B1AE
:100ED80023790BB9204610BD02F0FCFA204610BD5C
:100EE8007CFB010010B50446084B0069236008B17B
:100EF800237923B9204600F039F9204610BD02F0C5
:100F0800E9FA204600F032F9204610BD7CFB0100CA
:100F180010B50446054B0069236008B123790BB965
:100F2800204610BD02F0D6FA204610BD8CFB010009
:100F380010B50446084B0069236008B1237923B92A
:100F4800204600F013F9204610BD02F0C3FA2046EF
:100F580000F00CF9204610BD8CFB01002DE9F04D86
:100F68002DED028B00244FF0010A4FF0500BA8B072
:100F78000394794E044620A81D46B0EE408A0F46D9
:100F8800904602F0A9FA4FF42070CDE906AB04961A
:100F980002F09EFA002814BF0123002308908DF860
:100FA800143006D16D4C2C6028B0BDEC028BBDE826
:100FB800F08D4FF42070CDE90CAB0A9602F088FA58
:100FC800002814BF012300230E908DF82C3060D028
:100FD8004FF42070CDE912AB109602F079FA002890
:100FE80014BF0123002314908DF844304BD02046C1
:100FF800002450F8041B0E9BD0F83C2123441960B0
:101008005A60149BD0F87C2203EB040CD0F8BC3354
:101018000834B4F5207FCCF80020CCF80430E8D1AF
:101028004FF0010A06984E4C199080001694CDF89E
:1010380060A002F04DFA002814BF534600231A900E
:101048008DF85C3019D00698CDF874A0DFF814A19B
:101058001E908000CDF86CA002F03AFA002814BF68
:10106800012300231F908DF8703029D11A98169407
:1010780018B19DF85C30002B5ED11498109610B111
:101088009DF84430CBB90E980A9610B19DF82C30D3
:1010980083B9324C08980496002884D09DF81430FF
:1010A800002B80D002F016FA2C6028B0BDEC028B21
:1010B800BDE8F08D02F00EFAEBE702F00BFAE2E77A
:1010C8001BAB009304AA16AB10A90AA802F0F8FDFE
:1010D80030B31F98CDF86CA018B19DF87030002B74
:1010E80030D11A98169410B19DF85C303BBB149817
:1010F800109610B19DF844303BBB0E980A9610B17B
:101108009DF82C3023BB20A83946B0EE480ACDF80C
:10111800008004AA03AB02F065FC039C0898BAE7B8
:101128001F98CDF86CA00028A0D09DF87030002B37
:101138009CD002F0CFF999E702F0CCF99DE702F0D4
:10114800C9F9D4E702F0C6F9CBE702F0C3F9D4E74E
:1011580002F0C0F9D7E700BF7CFB01000000C07FA8
:101168006CFB01008CFB010019F032BB19F038BB95
:10117800704700BF10B50446FFF7F8FF204610BDC2
:10118800014B0360704700BF9CFB01002DE9F04F45
:101198004FF0000A85B0B3F1000B88460E9B11464C
:1011A800029202EB82024FEAC20218BF1F46CDF834
:1011B80004B09FEDD62ADFEDD72A9FEDD51AF7EEBA
:1011C800001A4FF02706814608BF574653469346F4
:1011D800890003919E4240F3098208EB830109EBE1
:1011E80083030433B00008EB86041A4653ED017AF2
:1011F800D2ED006AF0EEE77AF0EEE66AB1EC017A39
:1012080077EEA67AB0EEC77A67EE827AB4EEE77A1E
:10121800F1EE10FA03F1040304D9B4EEC17AF1EE49
:1012280010FA01D841ED012A8C42DED1344608EB90
:10123800000333ED017AB5EE407AF1EE10FA264656
:1012480004F1FF3444D1002CF3D1039B029ADDF85A
:1012580004B01344BAEBC30F00F3E6810E9B4D466E
:10126800282400269E4609F19C0703F5A07CF5EC8E
:10127800016A002101232A46B0EE667AC4F1280AE1
:10128800F2EC017AB4EEE77AF1EE10FAC8BF19462B
:1012980003F10103C8BFB0EE677A9C42F0D169B18F
:1012A800514409EB81031A684FEA810A45F8042C76
:1012B800C3ED006ABBF1000F40F09A81AF4206F51A
:1012C800A07604F1FF34D2D1002005B0BDE8F08F3C
:1012D8000AF1010AD345C0F2A781234608EB84022C
:1012E80009E072ED017AF5EE407AF1EE10FA05D0D8
:1012F800B0EE677A0B46591E002BF2D106F18042F8
:10130800013A09EB8201D1ED014AD1ED007AB6EE3E
:10131800006A77EEE47A67EE867AF5EE407A08EBB3
:101328008202D2ED006AF1EE10FAF0EEE65A40F0D1
:101338001C8174EEE54A09EB830595ED004AB3423A
:1013480074EE644A4FEA830C80F20281F0EE470A99
:10135800F5EE400AF1EE10FA0CEB030007EB8010F3
:10136800BFEE000A9E46C44400F5A47040F08A808F
:10137800F5EEC04AF1EE10FA00F1C080B0EE445A22
:10138800F0EE477AF7EE006A64EE225A67EE224AD8
:10139800B0EE626A95ED014A35EEA77A35EE645AE9
:1013A800E4EE467AE4EE264A66EE677A64EEA65ADA
:1013B80066EE644AE7EE065AE5EE267AE7EE264A36
:1013C8009E45C5ED015AC5ED007ACCED004A07DD12
:1013D8001CED017A60EEC67AE7EE267A4CED017ACA
:1013E800744507DDDCED010A60EEA67A66EE600A58
:1013F800CCED017A0EF1010E97B3F4EE616AF1EECD
:1014080010FAB1EE463A04D1B5EE406AF1EE10FAA0
:1014180026D00146A0F5A07211ED017A51ED027AAD
:1014280052ED013A12ED024A23EE075A63EE275AAB
:1014380027EE267A67EEA67AA3EEA65AE4EE265A97
:10144800A3EE867AE4EE067A08320831904202ED7D
:10145800035A42ED045A01ED037A41ED047ADBD1D7
:10146800764500F5A07073D0F5EE400AF1EE10FA5B
:1014780005F104050CF1040C95ED004A9CED007A89
:101488003FF476AFF5EE404AF1EE10FA11D1F5EEE1
:10149800C00AF1EE10FA61D4F1EE445AF1EE474A6F
:1014A800BFEE006A67EE227A24EE225AF0EE626AF4
:1014B80070E7F0EEE47AF0EEE06AF4EEE67AF1EE48
:1014C80010FA29DD80EEA46AF0EE616AF5EEC04AF2
:1014D800E6EE066AF1EE10FAF1EEE67A48BFF1EEB2
:1014E800677AC1EEA76A26EE666A66EE877A26EE06
:1014F800845A66EE045A66EE074A4BE7F1EE477ADD
:10150800B1EE445AFFEE006A3EE700BF00008034A7
:101518000000800000000000C4EEA06AB0EE616A1E
:10152800F5EEC00AA6EEA66AF1EE10FAF1EEC67A5A
:1015380048BFF1EE677A80EE276A66EEC66A66EE05
:10154800045A66EE074A66EE877A26EE845A21E741
:10155800002E3FF73FAEDDF804B07FE6F0EE474AD5
:10156800F0EE445AB7EE006A9CE7B0EEE76AB4EED4
:10157800E56AF1EE10FA26EEA65A2BD485EE864AD5
:10158800F0EE613AE4EE043AF1EEE35A26EE256A0B
:10159800B5EE405AF1EE10FAF5EEC07A0ED1FFEE34
:1015A800005AF1EE10FA86EE865A31FEA56A77EEF9
:1015B800867A86EEA76AE6EE454ABCE6F1EE10FAB0
:1015C800D8BFB1EE466A77EE867AC5EE276A74EE22
:1015D800E64AB0E6F5EE406AF1EE10FA21D0B0EE38
:1015E800654AF0EE465AB0EE446AC7E7B0001DE619
:1015F8008A440EEB8A130EEB06020CEB8A1AD3F818
:1016080000801068C2F80080D3F80480516808325E
:1016180042F8048C43F8080B534543F8041CEED1F8
:101628004CE61FED446AB3E7022005B0BDE8F08F31
:101638002DE9F0412DED048B174642680468012A14
:10164800984694ED009A94ED018A21D19FED427A53
:1016580068EE087ADFED416AF4EEE67AF1EE10FA08
:101668003BD800233B607B6088ED009A4A680B6892
:10167800002A6CDD3A4903EBC20208684968186021
:10168800596008339342FAD1BDEC048BBDE8F08170
:1016980094ED037AD4ED027A27EE077A022AA7EEB0
:1016A800A77A11DD2046A4F1100303EBC203D0EDA5
:1016B800057AD0ED046A67EEA77AE6EEA67A0830D6
:1016C800834237EE277AF2D1DFED246AB4EEE67A68
:1016D800F1EE10FA68EE087ABCD9E9EE097AB5EEAF
:1016E800C09A37EE877AF1EE10FAF1EEC77A01DB8D
:1016F800F1EE677AC8ED007AD1E90056002E79EE4E
:10170800678A16DD04EBC606D4ED030AF0EE481A24
:1017180094ED020AB0EE681A03F0D2FD0834A6422E
:1017280005F1080505ED020A45ED010AECD1D8EDF1
:10173800007AB1EE488A37EEC99A88EE277AC9EE60
:10174800276AF1EE477AC7ED006AC7ED017ABDEC6A
:10175800048BBDE8F08100BF00000000000080009D
:1017680024FB01002DE9F04F2DED0E8BA0F10808A8
:1017780028EAE87885B038F00108B0EE408A0546D6
:10178800F0EE608A0191029300F031819FEDEDAA9D
:101798004FF00009029B02F1010B03F110061C9B9C
:1017A80002F1020A4FEA0B1B01EBCA0A01F110070A
:1017B80003F1100456ED030A16ED040A20EE889A88
:1017C80060EEE89AA8EE809AE8EE009AB4EE699A7C
:1017D800F1EE10FA80F1B88156ED010A16ED020A11
:1017E80060EE881A20EEE81AE8EE801AA0EE081AD1
:1017F800F4EE411AF1EE10FA80F1F48114ED03DAF7
:1018080017ED047A14ED04CAF0EE4D7AA9EE87CAF2
:10181800E9EE077A04ED04CA44ED037A54ED01CAEF
:1018280054ED02BAF0EE6C0AB0EE67DA5AED027ABD
:10183800E7EE81BAE7EEA10A44ED02BA44ED010AE7
:1018480057ED026A17ED016A29EE267A66EE497AA3
:10185800A9EE867AE9EEA67A77EE20CA77EEABBAD9
:1018680044ED01CA44ED02BA57ED01AA56ED027AD9
:1018780056ED016A17ED027A2AEEE7BA6AEEA6AAD1
:10188800A7EE26BAE7EE27AA09F102094D453BEE75
:101898000ABA7AEE8AAA40F34F81DFEDAABACE4699
:1018A800B0EE6BCAB0EE6B0AF0EE6B0A07F1080CEB
:1018B8000AF1080006F1080104F1080310ED016AB5
:1018C8001CED027A10ED024A5CED016A51ED027AD4
:1018D80051ED013A61EEC64A29EE07EA24EE215A93
:1018E80053ED02DA13ED01DA26EEE72A26EE673A1F
:1018F80066EEC95A63EEA6CA63EE862AA6EE015AB8
:10190800E4EE014AB0EE4E6AE7EE87CAE9EE875A7E
:10191800A9EEA66AA3EE872AE7EE842AF0EE436AC8
:1019280034EEAD7A75EE0D7AE3EE846A35EE877A99
:1019380076EE277A0EF1010E754503F108033CEEA9
:101948002CCA7BEE82BA70EEA20A30EE260A0CF19F
:10195800080C00F1080001F1080103ED047A43EDD9
:10196800037AABD17AEE8CAA3BEE2BBA30EE8A9A88
:1019780070EE0A9A14ED04CA14ED03DA54ED02BAB3
:1019880054ED01CA68EE0B7A2BEE687AE8EEAA7A73
:10199800A8EE2A7AB4EE677AF1EE10FA80F1118196
:1019A80068EE290A29EEE80AE8EE890AA8EE090A8B
:1019B800B4EE600A77EE8D7A3CEE077AF1EE10FA13
:1019C80044ED037A04ED047A80F1EE8070EEAC0AFF
:1019D8007BEE80BAC84504F110045F44DA4406F18E
:1019E800100644ED050A44ED06BA3FF7E3AE454557
:1019F80040F39A80029B03EBC8071C9B03EBC804C7
:101A080002FB08F301324FEAC209019AA9F1080A58
:101A180002EBC30606EBC506434402EBC30B083EC4
:101A2800D7ED010A97ED000A68EE204A20EEE85A41
:101A3800E8EE804AA8EE005AB4EE645AF1EE10FAC5
:101A480080F1A780DBED006A94ED007AD4ED017A8D
:101A5800A6EE857AE6EEA47A08F101084545F0EE8F
:101A6800479AB0EE679A84ED007AC4ED017ADFED0B
:101A7800351A5EDD394622465B46B0EE611AD3ED73
:101A8800035A93ED026A24EEE57A66EE247AD2EDE3
:101A9800026A92ED034AE5EE857AA6EE057A77EEBC
:101AA800847A36EE877AC2ED037A82ED027AD1ED36
:101AB800026AD3ED037AD1ED035A27EEE67A93ED65
:101AC800026A67EEA57AA6EE257AE6EE267A08334C
:101AD8009E4202F1080201F1080171EE871A31EE07
:101AE800271ACCD1D4ED009A94ED019A68EE817A48
:101AF80021EEE87AE8EE217AA8EE017AB4EE677A68
:101B0800F1EE10FA2DD637EE297A77EE897A454527
:101B180004F1080407F10807CB44564404ED027A9F
:101B280044ED017A7FF47CAF05B0BDEC0E8BBDE8C7
:101B3800F08FB0EE611AD9E7F0EE4A9AB0EE4A9A01
:101B480020E700BF00000000F0EE681AB0EE481A67
:101B5800039203F07DFA039AF0EE409AB0EE609A91
:101B68003AE6F0EE680AB0EE480A03F071FA30EE91
:101B7800297A70EE897A454504F1080407F10807C7
:101B8800CB44564404ED027A44ED017A7FF448AF21
:101B9800CAE7F0EE681AB0EE481A03F059FAB0EE48
:101BA800405AF0EE604A4DE7F0EE681AB0EE481A77
:101BB800F0EE690AB0EE490A039203F049FA039A73
:101BC80004E7F0EE681AB0EE481AF0EE4B0AB0EEF1
:101BD8006A0A039203F03CFA039AB0EE407AF0EEF8
:101BE800607ADDE6F0EE681AB0EE481A039203F068
:101BF8002FFA039AB0EE401AF0EE601AFEE500BF25
:101C08002DE9F043DFED6F1A2DED028BB0EE608AFF
:101C1800F0EE408AA0EE218AE0EEE18AB4EE688A0E
:101C2800F1EE10FA87B004460D46914602AF80F1F6
:101C3800B98099ED030AD9ED040ADFED621AB0EE16
:101C4800401AF0EE607AA0EEE11AE0EE217AF4EEA6
:101C5800417AF1EE10FA80F19C8068EE010A27EED5
:101C6800C80AE8EEA70AA8EE810AB4EE600AF1EE07
:101C780010FA80F18580D4E90013DE0079B34FF0C3
:101C88000008D9F81440B4B1AA690091234629681C
:101C98006868FFF767FDB6F5003F06D9B8F1000F91
:101CA80003D058F8040C18F09BFD1437BD46BDEC62
:101CB800028BBDE8F083D9F81800C000B0F5003FEA
:101CC8001AD81030ADEB000DAA690DF11703009179
:101CD8002968686823F00F03FFF744FDDBE7B6F5D2
:101CE800003F34D806F11003ADEB030D0DF11708D2
:101CF80028F00F084146C4E71030C7ED010A87ED08
:101D0800020AF96018F064FD97ED020AD7ED010A9E
:101D1800F96818B120F00F04E0601034D9F81430D5
:101D2800002BB1D1D9F8183000914FEAC309AA693C
:101D3800234629686868FFF715FDB9F5003FAAD959
:101D4800002CA8D054F8040C18F04AFDA3E706F1BB
:101D58001000C7ED020A87ED030A18F039FD97ED68
:101D6800030AD7ED020A50B320F00F0808F1100853
:101D780048F8040CD4E90016F600E1B9414680E7BA
:101D8800F0EE671AF0EE480AB0EE680A03F060F960
:101D980071E7B7EE001A03F05BF9B0EE401AF0EE07
:101DA800607A5AE7B7EE001A03F052F9F0EE408A6B
:101DB800B0EE608A3DE741464FF0000861E7804693
:101DC800D8E700BF00000000036842681B6892ED76
:101DD800007AD3ED057A67EE877AC3ED057A036852
:101DE80042681B6892ED007AD3ED067A67EE877A2F
:101DF800C3ED067A036842681B6892ED007AD3ED5A
:101E0800077A67EE877AC3ED077A036842681B682A
:101E180092ED007AD3ED087A67EE877AC3ED087AF7
:101E2800036842681B6892ED007AD3ED097A67EE81
:101E3800877AC3ED097A03681B684268D3ED0A7A8A
:101E480092ED007A67EE877AC3ED0A7A03684268F2
:101E58001B6892ED007AD3ED0B7A67EE877AC3EDB3
:101E68000B7A036842681B6892ED007AD3ED0C7A0E
:101E780067EE877AC3ED0C7A036842681B6892EDB7
:101E8800007AD3ED0D7A67EE877AC3ED0D7A036891
:101E980042681B6892ED007AD3ED0E7A67EE877A76
:101EA800C3ED0E7A036842681B68D3ED0F7A92ED92
:101EB800007A67EE877AC3ED0F7A036842681B6879
:101EC80092ED007AD3ED107A67EE877AC3ED107A37
:101ED800036842681B6892ED007AD3ED117A67EEC9
:101EE800877AC3ED117A036842681B6892ED007A1D
:101EF800D3ED127A67EE877AC3ED127A03684268E7
:101F08001B6892ED007AD3ED137A67EE877AC3EDFA
:101F1800137A036842681B6892ED007AD3ED147A4D
:101F280067EE877AC3ED147A036842681B6892EDFE
:101F3800007AD3ED157A67EE877AC3ED157A0368D0
:101F480042681B6892ED007AD3ED167A67EE877ABD
:101F5800C3ED167A036842681B6892ED007AD3EDE8
:101F6800177A67EE877AC3ED177A036842681B68A9
:101F780092ED007AD3ED187A67EE877AC3ED187A76
:101F8800036842681B6892ED007AD3ED197A67EE10
:101F9800877AC3ED197A03681B684268D3ED1A7A09
:101FA80092ED007A67EE877AC3ED1A7A0368426881
:101FB8001B6892ED007AD3ED1B7A67EE877AC3ED42
:101FC8001B7A036842681B6892ED007AD3ED1C7A8D
:101FD80067EE877AC3ED1C7A036842681B6892ED46
:101FE800007AD3ED1D7A67EE877AC3ED1D7A036810
:101FF80042681B6892ED007AD3ED1E7A67EE877A05
:10200800C3ED1E7A036842681B68D3ED1F7A92ED10
:10201800007A67EE877AC3ED1F7A036842681B6807
:1020280092ED007AD3ED207A67EE877AC3ED207AB5
:10203800036842681B6892ED007AD3ED217A67EE57
:10204800877AC3ED217A036842681B6892ED007AAB
:10205800D3ED227A67EE877AC3ED227A0368426865
:102068001B6892ED007AD3ED237A67EE877AC3ED89
:10207800237A036842681B6892ED007AD3ED247ACC
:1020880067EE877AC3ED247A036842681B6892ED8D
:10209800007AD3ED257A67EE877AC3ED257A03684F
:1020A80042681B6892ED007AD3ED267A67EE877A4C
:1020B800C3ED267A036842681B6892ED007AD3ED77
:1020C800277A67EE877AC3ED277A70472DE9F04FB4
:1020D80081462DED0C8B0028B8BF00F1030929F0CB
:1020E800030987B0B9F1000FF0EE408A9246B0EECE
:1020F800609A04900091019340F3128100241D9B83
:10210800DDF8708003EB43051D9B1D9A4FEA431BC6
:10211800009B08EBC505DB00043508EB021708EB4C
:10212800C2060593DAF80420A01CE11C02FB04FE99
:1021380002FB00F002FB01F104FB02224FEACE0C85
:102148004FEAC20E009A9FEDD48A002ADAF80030CE
:102158004FEAC0004FEAC10140F34481F0EE489ACB
:10216800F0EE48AAB0EE48AAF0EE48BAB0EE48BA87
:10217800F0EE480AB0EE480A0EEB03020292059A06
:10218800184403EB020E019A1944E6446344D2F85A
:1021980000C0029A03941C46D4ED00CA144694ED7C
:1021A80000CA0446D4ED001A0C46DCED017A93ED22
:1021B80001DA92ED011A90ED012A91ED013AD4ED80
:1021C800002A644667EEEC3A94ED007A2DEE274A31
:1021D80067EE814A2CEE675A67EE825A21EEE76A6B
:1021E80067EE836A62EEE77AE7EE0D3AACEE874A6D
:1021F800E7EE0C4AA7EE015AE7EE215AA7EE026A6B
:10220800E7EE226AE7EE037A08339E4570EEA30AEA
:1022180030EE040A3BEE24BA7BEE85BA3AEE25AAE4
:102228007AEE86AA79EEA69A38EE278A02F1080293
:1022380000F1080001F108010CF1080CABD1039C76
:1022480060EEA87A29EE607AE0EE097AA0EE287AA4
:10225800B4EE677AF1EE10FA80F1D3806BEEA80A3B
:1022680029EE6B0AEBEE090AABEE280A98ED016A33
:10227800D8ED006AB4EE600A77EE867A36EE877A91
:10228800F1EE10FAC8ED017A88ED007A80F1F88055
:102298006AEEA87A29EE6A7AEAEE097AAAEE287A2C
:1022A80096ED016AD6ED006AB4EE677A70EE860A9A
:1022B80036EE800AF1EE10FAC6ED010A86ED000A44
:1022C80080F1CF8068EE280A29EE480AE9EE890AEB
:1022D800A9EEA80A97ED016AD7ED006AB4EE600A84
:1022E80077EE867A36EE877AF1EE10FAC7ED017A44
:1022F80087ED007A80F1AA8095ED007A55ED017A94
:1023080070EE870A37EE800A0434A145C5ED000A4D
:1023180005ED010A5F445E44D8445D443FF702AFCF
:10232800049B994556DA1D9B03FB09F41C9B03EBA0
:10233800C4041D9BDD00009BDE00DAF80410009A3F
:1023480001FB09F1002ADFED540ADAF800304FEA00
:10235800C10044DDB0EE600A019A9919126803447D
:1023680001441846D3ED016AD2ED017AD0ED005A46
:1023780092ED006A26EEA77A67EEE57AA5EE867AF0
:10238800E6EE267A0833994230EE070A70EEA70A7D
:1023980002F10802E5D168EEA07A20EEC97AE9EEEA
:1023A800007AA8EE807AB4EE677AF1EE10FA33D6A6
:1023B80094ED016AD4ED006A77EE867A36EE877A74
:1023C800049B09F101094B45C4ED017A84ED007ABB
:1023D8002C44B2D107B0BDEC0C8BBDE8F08FB0EE49
:1023E800600AD8E7F0EE489AF0EE48AAB0EE48AA9C
:1023F800F0EE48BAB0EE48BAF0EE480AB0EE480A35
:102408001EE7F0EE491AB0EE681A02F021FEB0EEAF
:10241800407AF0EE607A21E7F0EE491AB0EE681AD9
:1024280002F016FE94ED017AD4ED007A70EE870A78
:1024380037EE800A049B09F101099945C4ED010AA8
:1024480084ED000A2C447FF478AFC3E7F0EE491A14
:10245800B0EE681AF0EE480AB0EE690A02F0F8FD2C
:102468004AE7F0EE491AB0EE681AF0EE6A0AB0EEE2
:102478004A0A02F0EDFDB0EE407AF0EE607A21E70C
:10248800F0EE491AB0EE681AF0EE6B0AB0EE4B0A9D
:1024980002F0DEFDFCE600BF00000000DFED521A8E
:1024A800F0EE607AF0EE406AE0EE217AE0EEE16A62
:1024B800F4EE667A2DE9F0438BB00B46F1EE10FA94
:1024C80006684168D0F80880056B91461C68586812
:1024D80002AF7BD6DFED451AB0EE660AF0EE670A6A
:1024E800A7EEE10AE6EEA10AB4EE600AF1EE10FAF0
:1024F8005FD69CB1BE610126D9F8003007F11802F9
:102508000093404607F110030196FD613C617E612E
:10251800FFF7DCFD2437BD46BDE8F083C000B0F509
:10252800003F1AD801241030ADEB000DD9F8002077
:102538000DF1170323F00F0300923B6107F1180216
:1025480007F1100340460194BE61FD617C61FFF70D
:10255800BDFD2437BD46BDE8F0831030C7ED010A44
:1025680087ED020AF96018F033F997ED020A03467D
:10257800D7ED010AF9680028BCD0BE61012623F016
:102588000F04E360D9F8003007F118024046103410
:102598000093019607F11003FD613C617E61FFF72E
:1025A80095FD54F8040C18F01BF92437BD46BDE816
:1025B800F083B7EE001AF0EE670AB0EE660AB8606C
:1025C800F96002F045FDB868F96892E7B7EE001ABD
:1025D800B860F96002F03CFDB868F0EE406AF0EED1
:1025E800607AF96876E700BF00000000000000800C
:1025F8002DE9F04F2DED028BADF53B7D029343683D
:102608000DF29F16012B04460F46D2ED007A26F0F4
:102618000F060392049300F0A081F5EE407AF1EEE4
:1026280010FA00F08C81A2467A68A0685092119244
:10263800049A3B6902F1FF383A6879690692FA68A8
:10264800D4F8009001902A900792A069BA69CDE960
:10265800143153930DF1AC0E09F108030590549110
:1026680028930892BAE80F00AEE80F004FF0010B6C
:10267800CDF8A4809AE807008EE807000022059BA1
:10268800CDF8C8B031933392349357AD0DF1A00C07
:10269800BCE80F000FC5BCE80F000FC5BCE80F0071
:1026A8000FC501982960002840F398810546DFF896
:1026B800ECB3029ADBF80000DBF80410134602EBD7
:1026C800C5021860596008339342FAD135ADAA465D
:1026D800509B539A54990DF5AE7C099319930A921D
:1026E8001C920B911D91BCE80F000FC5BCE80F00B0
:1026F8000FC5BCE80F000FC5099B02982193079BE3
:10270800DCF800C00A9A0B990C9023930698089B52
:10271800C5F800C00DF5847E20902492259126935B
:10272800BAE80F00AEE80F00BAE80F00019D0E9559
:10273800AEE80F00BAE80F00AEE80F009BED020A02
:102748000CAADBED030ACEF800C020A942A8FFF7C7
:10275800A5FE002D22681DDD0298019D0346011D7E
:1027680000EBC50093ED016AD2ED017A11ED017A13
:10277800D2ED006A77EE867A37EE267A08339842E9
:1027880001F1080101ED037A02F5A07243ED017A27
:10279800E8D12268039B93ED008AD3ED018AA368F0
:1027A8008DED358A002BCDED368A8DED448ACDED41
:1027B800458A8DED528ACDED538A2BDD1446029958
:1027C80002F1040A0D1D05EBC30B15ED011AD5ED39
:1027D800001A21EE287A68EEE17AA8EE217AE8EE6E
:1027E800017AB4EE677AF1EE10FA80F12981D4ED1E
:1027F800016A1AED016A36EEC77A76EE677A08350D
:10280800AB454AED017A84ED017A0AF5A07A04F520
:10281800A074DAD1D7E90045039A00211368D2F8E9
:1028280004C030464FF4A0723593519345935293A8
:10283800CDF8D8C0CDF818C1CDF84CC11CF0E5FDD5
:1028480000239D429DED538ADDED528AC6F8403142
:1028580020D0C6F840511DDD374604EBC50594ED80
:10286800001AD4ED011A68EE017A21EEC87AE8EE72
:10287800A17AA8EE817AF4EE477AF1EE10FA80F1A7
:10288800FA800834A54287ED007AC7ED017A07F18E
:102898000807E4D1019B002B4BDD4FF0000B049A95
:1028A800A9F10807DDF808A0059B07EBC207019A04
:1028B800DB000AEBC2029AED008ADAED018AB8F170
:1028C800000F8DED188ACDED198A8DED228ACDED98
:1028D800238A8DED388ACDED398A0AF1080A24DD7C
:1028E800354609EB0B0495ED001AD5ED011A28EED3
:1028F800817A61EEE87AA8EE217AE8EE017AB4EE00
:10290800677AF1EE10FA6CD694ED036AD4ED026A98
:1029180036EE477A76EEE77A0834A74205F10805DD
:1029280084ED017AC4ED007ADDD152451F449B4401
:10293800C1D10DF53B7DBDEC028BBDE8F08FD2ED2A
:10294800017AF5EE407AF1EE10FA7FF46CAE0DF5EF
:102958003B7DBDEC028BBDE8F08F92ED017AB7EEBE
:10296800008ADFED4D8A826838EE678A002A78EEA1
:10297800C78A0368DDDD98464FF000094646002700
:1029880008F1040515ED011AD6ED011A68EE817AF1
:1029980021EEE87AE8EE217AA8EE017AB4EE677AB9
:1029A800F1EE10FA3AD605ED017AC6ED017A6368C0
:1029B8000137BB4206F1080605F10805E2DCA2680A
:1029C80009F101099145B4DA002B08F5A078D5DCA6
:1029D8000DF53B7DBDEC028BBDE8F08FDFF8BCB098
:1029E80074E6F0EE680AB0EE480A0292019302F02B
:1029F8002FFB94ED037AD4ED027A77EE600A37EE76
:102A0800C00A0834BC42019B029A05F10805C4EDCE
:102A1800010A84ED000A7FF466AF86E7F0EE680AE3
:102A2800B0EE480A02F014FB083605ED010A46ED3F
:102A3800010A636801379F4205F10805A2DBBEE77A
:102A4800F0EE680AB0EE480A02F002FBD4ED017A13
:102A58001AED017A77EEE00A37EE400A0835AB4501
:102A68000AED010AC4ED010A0AF5A07A04F5A0747A
:102A78007FF4ABAECEE6F0EE480AB0EE680A02F09C
:102A8800E7FA0834AC4207F1080707ED020A47EDF8
:102A9800010A7FF4E4AEFDE60000000024FB01001B
:102AA8002DE9F04F2DED048BADF53B7D0DF2AF1305
:102AB80023F00F0309EE103A02F0800BC2F3C013A3
:102AC8008A680393012A04460B6800F016834FF0C6
:102AD800000E01269C4605467746D1F804A000F56D
:102AE80048520AEB0609DFF8C8824FEAC90904927E
:102AF800012E00F05581D8F80000D8F8041004EB36
:102B0800C702106051600832AA42FAD1DCF80020EE
:102B1800282E2A60DCF8042030466A6015D00EEBB7
:102B28000601BA1903EBC10104EBC202D1ED007A28
:102B3800C2ED007AD1ED017A0130282801F10801AF
:102B480002F1080242ED017AF0D10136292ECC4477
:102B580005F5A47507F12807D644C9D194ED017A83
:102B6800D4ED006AB0EEC78AF0EEE67AF4EEC87AE1
:102B7800F1EE10FA58BFB0EE678AB5EE408AF1EE72
:102B880010FA0BD0C7EE087A86EE887A67EEA77A35
:102B9800E7EE077AB1EEE77A28EE078A234604F5CE
:102BA8009C7593ED036AD3ED026AF0EEC67AB0EE37
:102BB800E67AB4EEE77AF1EE10FA58BFF0EE477A0B
:102BC800F5EE407AF1EE10FA03F108030BD086EE29
:102BD800277A86EEA76A27EE077AA6EE067AF1EE3E
:102BE800C76A67EEA67AF4EE487AF1EE10FA37FE75
:102BF800888A9D42D5D104F5207204F54D51A2F57D
:102C0800A07393ED016AD3ED006AF0EEC67AB0EED8
:102C1800E67AB4EEE77AF1EE10FA58BFF0EE477AAA
:102C2800F5EE407AF1EE10FA03F108030BD086EEC8
:102C3800277A86EEA76A27EE077AA6EE067AF1EEDD
:102C4800C76A67EEA67AF4EE487AF1EE10FA37FE14
:102C5800888A9A42D5D102F5A0729142CFD1B5EEB9
:102C6800408AF1EE10FA264608BFB7EE008A002720
:102C7800DFED4E8AD6ED010A96ED000AF0EE681AED
:102C8800B0EE481A02F01CFB0137282F86ED000A27
:102C9800C6ED010A17D0B046D8ED030A98ED020A2E
:102CA800F0EE681AB0EE481A02F00AFB08F10808BC
:102CB800454588ED000AC8ED010AEDD106F5A47670
:102CC80005F5A075D6E74FF49C7200211AA81CF0F0
:102CD8009CFB20461AA9FDF7E7FD234604F54A5553
:102CE800049A2035196803F5A47342F8041B954229
:102CF800F8D12A46234604F54C503C30996803F530
:102D0800A47342F8041B9042F8D1BBF1000F51D1D3
:102D18000AAB04F5405613AF0DF13009029329466A
:102D28000094039D049C2B461E222046FEF72EFA93
:102D3800D6ED805A96ED816AD6ED826A96ED837A51
:102D4800D6ED847A034665EE885A26EE086A66EE62
:102D5800886A27EE087A67EE887A029986F83C3303
:102D680089ED008AC6ED805A86ED816AC6ED826AD1
:102D780086ED837AC6ED847A3C601AA81C91CDF85A
:102D88006C901A971D94FFF71FF8012386F83E539D
:102D980086F83D330DF53B7DBDEC048BBDE8F08F27
:102DA8001A68304622605A686260B8E6000000007F
:102DB80024FB0100DFF8A4834FF4A072002119EE70
:102DC800100A1CF022FBD8ED037A98ED027A04F27F
:102DD800245C04F5CD6704F26C6004F5F66104F236
:102DE800B47204F6F80304F5A46EC4ED017A84ED18
:102DF800007A84ED527AC4ED537A84EDA47AC4ED56
:102E0800A57A84EDF67AC4EDF77A04F6FC098EED1E
:102E1800007ACCED007A87ED007AC0ED007A81ED7A
:102E2800007AC2ED007A83ED007A04F52463C9EDD7
:102E3800007A83ED007A04F64423C3ED007A04F6A1
:102E4800883383ED007A04F68C33C3ED007A04F5F9
:102E58004D6383ED007A04F6D443C3ED007A04F69B
:102E6800186383ED007A04F61C63C3ED007A04F559
:102E7800766383ED007A04F6647304F5805AC3ED33
:102E8800007A04F5A4538AED2A7ACAED2B7A8AEDE2
:102E98007C7ACAED7D7A8AEDCE7ACAEDCF7A83ED57
:102EA800007A0AF28443C3ED007A0AF5B96383ED28
:102EB800007A0AF2CC53C3ED007A0AF5E26383ED97
:102EC800007A0AF21473C3ED007A0AF6580383ED08
:102ED800007A0AF65C03C3ED007A04F5CD5383ED5E
:102EE800007A0AF6A413C3ED007A0AF6E82383ED04
:102EF800007A0AF6EC23C3ED007A0AF5436383ED02
:102F0800007A0AF63443C3ED007A0AF6785383ED63
:102F1800007A0AF67C5304F5005BC3ED007A04F5E9
:102F2800F65383ED007A0AF6C46A0BF5A563CAED79
:102F3800007A8BED027ACBED037A8BED547ACBEDE8
:102F4800557A8BEDA67ACBEDA77A8BEDF87ACBED97
:102F5800F97A83ED007A0BF22C53C3ED007A0BF566
:102F6800CE6383ED007A0BF27463C3ED007A0BF540
:102F7800F76383ED007A0BF2BC73C3ED007A04F5B6
:102F8800245383ED007A0BF60413C3ED007A0BF695
:102F9800482383ED007A0BF64C23C3ED007A0BF53A
:102FA800396383ED007A0BF69433C3ED007A0BF6A0
:102FB800D84383ED007A0BF6DC43C3ED007A0BF5BA
:102FC800626383ED007A0BF62463C3ED007A0BF697
:102FD800687383ED007A04F5405604F5A0730BF688
:102FE8006C7BCBED007A9C4686ED2C7A86ED7E7A5A
:102FF800C6ED2D7AC6ED7F7A0121D8F80070D8F891
:103008000400079304F5A47263461F6058600833F0
:103018009A42FAD1013128290CF5A07C02F5A47254
:10302800F2D1272313AF0DF1300906910AA93846CA
:1030380002912F4649461D46B146264604F5475A91
:1030480004F543520DF1680B0AF1380A0592DBEDDD
:103058004D7A069BF1EE677A83618B612B46029C61
:10306800DBF830C1C3F12802C4F800C00361436132
:1030780042608260AAF59C7CC3F12702013D0133BE
:103088004A600B61C1F800C019EE103A2246C4ED3F
:10309800017AC0F800A0C660CE604D610990089121
:1030A800FFF7A6FAD8F800E0D8F804C0059C0899FC
:1030B8000998AAF5A073C3F800E0C3F804C0083360
:1030C8009C42F8D1A4F5A073AAF5A47AABF1080B39
:1030D8000593002DBBD134463D464E4607468946EA
:1030E800D8F80420D8F80010079804F108031960EC
:1030F8005A6008339842FAD111E60146024603F5B0
:10310800485518680833106053F8040C9D4202F1C2
:10311800080242F8040CF4D1236804F54056C6F8B6
:103128000032BBF1000F0CD0DFF8308004F54854B2
:10313800D8F80820D8F80C300A604B600831A14252
:10314800FAD14FF48073039AA6F83C3386F83E23ED
:103158000DF53B7DBDEC048BBDE8F08F24FB010031
:103168002DE9F047DFF8309184B0D9F800000E4619
:10317800DDE90C4510F0010A90461F460BD14FF4CB
:10318800485251463E481CF040F90123C9F8003026
:103198003C4B83F83DA34FF00009B36880220193AC
:1031A800F36869460293336935480093364B83F8D0
:1031B8000090FFF775FC304600F070F8D8ED017A02
:1031C8004F4520EE270A58DDDFED307A4E46304A6B
:1031D80006E032ED017A0136B74277EE877A04D0FD
:1031E800B4EEE70AF1EE10FAF3DCEB68002B0EDD23
:1031F800002327492A6951F8040D02EB8302106065
:10320800EA680133282AA8BF28229A42F2DCEE6035
:10321800E3684FF0000C9E42A8BF1E46002E1D4FCB
:1032280028DD38460021D0ED017AF1EE677A03FBFC
:103238000C132269066802EBC303C3ED017A1E6012
:10324800E368EE68282B1A46A8BF2822B242A8BF16
:10325800324601319142A0F5A070E4DB0CF1010C7B
:10326800BCF1280F06D09E42A8BF1E46002E07F1CB
:103278000807D6DC04B0BDE8F0874E46B5E700BFC6
:10328800800A0020803A0020000000200000000092
:10329800203D0020403B00203C5000208368C1684E
:1032A8008B42A8BF0B46002B9C460EDD00229FEDEB
:1032B800080A01310369C900D3ED007A0132624579
:1032C80030EE270A0B44F7D170479FED010A70478B
:1032D800000000002DE9F04F2DED028B8B6887B0C0
:1032E800002BC768009340F38D80002682468946EC
:1032F800FF1A98467B1C0193FF009FED748A4FEAE2
:10330800C60B5D460024F0EE488A22460134012CA3
:103318007DD0DAF81030D100A1F108001844D0EDC2
:10332800016A90ED001AA5F108001844D0ED010AD1
:1033380090ED000A60EE817A26EEA07AE6EEC07A79
:10334800A0EE017AF4EE477AF1EE10FAF1EE661A81
:1033580080F1AE8039441944D1ED016A91ED001A2B
:10336800E9190B44D3ED010A93ED000A38EEC77A48
:1033780078EE677A66EEA08A21EE208AE1EE008A6E
:10338800A6EEC08AF4EE488AF1EE10FAF1EE661A5B
:103398007DD678EE878A37EE888AD9F80C3091196D
:1033A80003FB0210D9F8103003EBC00393ED017A48
:1033B800D3ED007A38EE077A77EEA87A83ED017AB2
:1033C800C3ED007A9EB1D9F80C3003FB0122D9F87D
:1033D800103003EBC20393ED017AD3ED007A37EE98
:1033E800487A77EEA87A83ED017AC3ED007A4445EE
:1033F80005F1080589D1009B0136B34208F1FF3871
:103408007FF47BAF07B0BDEC028BBDE8F08F019B6A
:10341800002BC2DDDAF810C00CF108010CEB0B032D
:10342800C81909E088428C4678EE878A38EE278AE0
:1034380003F10803B1D00831DCED016A9CED001AF4
:10344800D3ED010A93ED000A60EE817A26EEA07AA8
:10345800E6EEC07AA0EE017AF4EE477AF1EE10FAC1
:10346800F1EE661ADED7059104920390029301F0FB
:10347800EFFD05990398029B88428C4678EE808A76
:1034880038EE208A049A03F10803D4D185E7CDEDFC
:10349800047A8DED037A029201F0DAFDDDED047A0B
:1034A800F0EE408AB0EE608A9DED037A029A70E7EA
:1034B80004910392029301F0CBFD0499B0EE407A97
:1034C800F0EE607A039A029B44E700BF0000000018
:1034D80017F07EB917F084B910B5044600F00EFB5A
:1034E800204610BD2DE9F04107462DED028BD00096
:1034F8001646F0EE408AFFF7EBFF804658B3002EE1
:103508001CDD0546002407EE904AB8EEE78A28EE4F
:10351800688AB0EE480A15F00BFFF0EE407AB0EE7C
:10352800480AB0EE678A15F047FF0134A64205F154
:10353800080505ED028A05ED010AE4D101230B4ACD
:10354800BE603A60C7F810803B71FB603846BDEC3E
:10355800028BBDE8F081054B3871B860F8603861BE
:103568003B603846BDEC028BBDE8F0817CFB010076
:103578002DE9F0472DED028B03468CB00C4607A8C9
:1035880019461546FFF7AEFF9DF82030C3B99FEDE9
:103598003B8A3B4B0B98079310B19DF8203033B909
:1035A800B0EE480A0CB0BDEC028BBDE8F087FFF71F
:1035B80091FFB0EE480A0CB0BDEC028BBDE8F08775
:1035C800A668DDF828A00AFB06F94FEAC9084046B4
:1035D800FFF77EFF07460028D9D0E3680690ADF8CC
:1035E8000630A36805AAADF80430236903A902933D
:1035F8000A9B01A8ADF80E30099BADF816A0ADF8EE
:103608000C300B9BADF8146004930FF0FDFA4046A4
:10361800FFF75EFF044650B3B9F1000F06DDB8F1BD
:10362800000F03D0424639461BF0D5FE002E21DD9F
:1036380023469FED140A04EBC606D3ED017A93EDF9
:10364800007A67EEA77AE7EE077A08339E4230EEF3
:10365800270AF2D107EE905AB8EEE78A204638EEEC
:10366800408AFFF737FF3846FFF734FF91E79FEDB1
:10367800038AF8E79FED030AECE700BF0000C07F6C
:103688007CFB0100000000002DE9F04F2DED028BBE
:103698004FF0000C01FB01F893B0934D4FEAC809B5
:1036A8000390C3F800C04846DDE91E4A1E46B0EE46
:1036B800408A9346CDE90A1108950491FFF708FF5F
:1036C8000C90002800F0068101228DF82420B8F122
:1036D800000F0ED000EB090398420AD0834A116804
:1036E80052680160426008308342FAD19DF8243064
:1036F800C3B1DBF80830002B5EDD4FF000084FF057
:103708000109DBF80C700D95F800CDF83C90109786
:10371800FFF7DEFE002814BF0123002311908DF867
:1037280038300ED1724B0C983360089520B19DF853
:103738002430002B40F0C48013B0BDEC028BBDE8F0
:10374800F08F002F26DDDBF80C30012F03FB08F289
:10375800DBF8103003EBC2031A6802605B68436051
:1037680014D00122DBF80C3003FB0820DBF8103002
:1037780003EBC000119BD0F800C003EBC201C1F8F5
:1037880000C04368013297424B60EBD19DF8383056
:10379800002BC7D00DA808A9FFF79CFD11980D951F
:1037A80020B19DF83830002B40F09180DBF80830CC
:1037B80008F101084345A4DC039AD3680D93136903
:1037C8000E93209B012B00F0F4800C98089520B1F3
:1037D8009DF82430002B40F08480039ADAF80C30EE
:1037E800D2699A42A8BF1A469146B9F1010FB8BFEB
:1037F8004FF0010900224B45079208927EDCE368EE
:10380800D4F808A04B4500F3A2800AFB03FB4FEA5B
:10381800CB0B58460F93CDF840A00D95FFF758FEF7
:10382800002814BF0123002311908DF8383051D09F
:10383800A368002B22DD4FF0000EE368002B1ADD91
:1038480000220EFB03232069109F00EBC303D3F86B
:1038580000C0586807FB02E31199013201EBC3036A
:10386800C3F800C05860E3689342EADCA2680EF12E
:10387800010E9645E2DB9DF838305BB3049BB0EE51
:10388800480A0398009307AA08AB0DA9FDF728FA80
:103898009FED180ADDED076A28EE000A9FED167AFB
:1038A800C6EE807A67EE877A1198C6ED007A0D9594
:1038B80000283FF441AF9DF83830002B3FF43CAF6F
:1038C800FFF708FE13B0BDEC028BBDE8F08FFFF7E1
:1038D80001FE6BE7064B336013B0BDEC028BBDE80D
:1038E800F08FFFF7F7FD78E77CFB010054FB010040
:1038F8000000C07FDB0FC940C2F38E4D4FEA890339
:1039080018460593FFF7E4FD059B834658B15946D1
:1039180000221818DAF8103013441B68043241F8F2
:10392800043B8842F6D1DAF8100018B19AF804304E
:10393800002B4ED10123CAF810B0CAF80C90CAF86F
:103948000830E368D4F808A04B457FF75EAF0AFB60
:1039580009FB4FEACB0B5846FFF7BAFD0346E8B11F
:10396800BAF1000F1ADD4FF0000E7046002703EB86
:10397800CE01E268083102FB007C2269013702EBC4
:10398800CC02D2F800C0B94541F808CC526841F8D9
:10399800042CEED101305045CE44E7D1206908B15E
:1039A8002279CAB92361C4F808A04B46C4F80C9020
:1039B8002FE707A8FDF7E4FBCDE9004A039B07A81A
:1039C800DB690DAA08A9FFF7CBFB07A8FDF7D0FB19
:1039D800FBE6FFF77FFDADE70593FFF77BFD059B52
:1039E800E0E700BF2DE9F0472DED028B1E46C369C5
:1039F800DFF804818B42A8BF0B4601FB03FA4FEAAC
:103A0800CA048EB0054620468946B0EE408A17465D
:103A1800CDF8108006910793FFF75AFD089000280B
:103A28005DD00123BAF1000F8DF814300EDD00EBE4
:103A3800040C60450AD02D4B1A685B68026043602D
:103A480008308445FAD19DF814309BB1E869012308
:103A58004845A8BF4846264C0C9080000B93099413
:103A6800FFF736FD002814BF012300230D908DF8C1
:103A780028300DD11F4B08983360CDF8108010B155
:103A88009DF814300BBB0EB0BDEC028BBDE8F0877F
:103A98002846189D3346029509AD019504AD3A466E
:103AA8004946B0EE480A0095FFF7EEFD0D980994D7
:103AB80010B19DF828307BB90898CDF810800028FF
:103AC800E1D09DF81430002BDDD0FFF703FD0EB0D8
:103AD800BDEC028BBDE8F087FFF7FCFCECE7054B7B
:103AE80033600EB0BDEC028BBDE8F08754FB0100DB
:103AF8006CFB01000000C07F7CFB010030B5002199
:103B08009FED0B7ADFED0B7A4FF0884E6425082481
:103B1800DFF828C0084A80ED037AC0ED047AC0F8BF
:103B280014E08561C461C0F800C04160826030BDA6
:103B380095BFD633A4707D3FCDCCCC3D0AD7A33BEF
:103B48002DE9F043C2680446571E0E4683B002D1E1
:103B580003B0BDE8F0831E3252099200104601926C
:103B6800FDF702FB0021019A05461BF04EFC002FD1
:103B780040F3978000214FF00108E368226903FBB6
:103B880006F002EBC00292ED037AD2ED007AD2ED94
:103B9800026A92ED016A76EEE74A37EE464A77EE18
:103BA800A66AF0EEE45AF0EEC47AF4EEE75AF1EEC3
:103BB80010FA58BFF0EE657A37EE066AF5EE407AED
:103BC800B0EEE65AB0EEC67AF1EE10FA01F01F0038
:103BD8004FEA511EB4EEC75A08FA00F001F101018C
:103BE8000BD0C4EE275A84EEA74A65EEA55AE4EE38
:103BF800045AF1EEE54A67EEA47AF1EE10FA58BFDE
:103C0800B0EE457AB5EE407AF1EE10FA0BD0C6EE7A
:103C1800075A86EE876A65EEA55AE6EE065AF1EE71
:103C2800E56A27EE267AB4EEE77AF1EE10FA55F84F
:103C38002EC040EA0C092CEA000038D5B94245F8F4
:103C48002E9002F108029ED10021012001E08F424E
:103C580027D00A464FEA511C55F82CC002F01F0223
:103C680000FA02F212EA0C0F01F10101EFD08B42C7
:103C7800EDDD0A4603FB062C2369013203EBCC0376
:103C880093ED017AD3ED007AB1EE477AF1EE677AD7
:103C980083ED017AC3ED007AE3689A42EADB8F424A
:103CA800D7D1284603B0BDE8F043FDF75FBAB94263
:103CB80045F82E0002F108027FF465AFC4E700BFA3
:103CC8002DE9F04F2DED088B97B013939368934629
:103CD800002B1490159140F32F840023DFED559AA3
:103CE8009FED558ADFED558A9FED569A9A46DBF887
:103CF8000C70FD002846FFF7EBFB0646002800F095
:103D08004E84DBF80C30002B40F3A0808046B1468F
:103D180038460024B6EE00AA149E159F15E026EE3C
:103D28000A6AB5EEC07AF1EEC66AF1EE10FA4CBF37
:103D3800F1EE667AF0EE667AC3ED006AC3ED017AB9
:103D4800DBF80C300134A3427EDDF268F96802FB2F
:103D58000A42336901FB0A4103EBC20393ED001ADF
:103D6800D3ED011A3B6903EBC103D3ED010A93EDCF
:103D7800000A20EE817A60EEE17AA0EE217AE0EE88
:103D8800017AB4EE677AF1EE10FA80F12184B0EE90
:103D9800670AF0EE470AF5EE407A88ED000AC8EDAA
:103DA800010AF1EE10FADBF80C20DBF8103002FB08
:103DB8000A42B0EEC76A08F1080803EBC203AED0A6
:103DC800F0EEE76AF4EEC66AF1EE10FA54BFF0EED0
:103DD800665AF0EE465AF5EE405AF1EE10FA0BD05C
:103DE80087EE255AC7EEA54A25EE055AA4EEA45A31
:103DF800F1EEC54A65EEA45A76EEA56AF5EEC07AEC
:103E080076EEA66AF1EE10FAF1EEE65A65EE8A6AE7
:103E180002DDC7EE257A8FE7B5EEC07AF1EE10FA2B
:103E280086EE255A48BFF1EE666AF0EE667AF0EE45
:103E3800456A81E70000C07FDB0F4940DB0FC940BE
:103E4800DB0F49C00000000007464E46BB001C4679
:103E5800514658460193FFF773FE2046FFF738FB9B
:103E68008046002800F0A183002F0EDDB1460446ED
:103E78003544D9ED000A99ED010A1BF07AFA09F1E7
:103E880008094D45A4EC010AF3D1019B013F1C1F11
:103E98002046FFF71DFB002800F08A83002F40F31F
:103EA800948342460346054608EB040C1146D1EDBF
:103EB800017A91ED007A77EEC77A04329445E5EC01
:103EC800017AF3D11FED217A5FED236A0444F3EC04
:103ED800017AF4EEC87AF1EE10FAC8BF77EEE87A04
:103EE800F4EEE67AF1EE10FA48BF77EEA87A9C4233
:103EF80043ED017A37EE277AE9D107EE907AF8EEAA
:103F0800E77A87EE27BAFFF7E5FA4046FFF7E2FAC5
:103F18003046FFF7DFFADBF80C40E6003046FFF7E3
:103F2800D7FA0890002800F03A83002C40F3438326
:103F3800F6EE007A07468046002527EECBBA07EE54
:103F4800905AF8EEE7AA6AEE8BAAB0EE6A0A15F064
:103F5800EFF9B0EE40AAB0EE6A0A15F02DFADBF8D8
:103F68000C3003FB0A52DBF8103003EBC203D3ED2D
:103F7800010AD3ED006A6AEE207A20EEC07AE0EEFC
:103F8800267AAAEE267AF4EE477AF1EE10FA80F154
:103F980029830135AC4288ED007AC8ED017A08F131
:103FA8000808CCD1F0EE493AB0EE494A5FED5B5AC9
:103FB800089B3344D7ED006A97ED016AB0EEE67AC4
:103FC800F0EEC67AB4EEE77AF1EE10FA58BFF0EEEA
:103FD800477AF5EE407A73EEA64A34EE065AF1EEC9
:103FE80010FAF0EE643AB0EE454A00F0CB8086EE67
:103FF800277A86EEA76A27EE077AA6EE067AF1EE0A
:10400800C76A67EEA67A08379F42E7EEA75AD1D16A
:1040180007EE904AB8EEE76AC4EE866AC5EE064A2D
:10402800B0EEE67AF0EEE47AB4EEE77AF1EE10FA62
:1040380058BFF0EE477AF5EE407AF1EE10FA0BD061
:1040480084EEA77A86EEA75A27EE077AA5EE057AB8
:10405800F1EEC76A67EEA67A67EEA77AC5EE866ABA
:1040680076EEE76AB6EE006A87EEA67A67EE067A1B
:10407800139B103E1B694FEA8A0203EB8A03C3EDC8
:10408800007A3046A51E11920695FFF721FA0346DD
:104098000F90002800F08082002D40F35382811990
:1040A800884207D0564A1068526818605A60083328
:1040B8009942FAD13046FFF70BFA03460A900028D6
:1040C80000F067829919994207D04D4A10685268E2
:1040D80018605A6008339942FAD13046FFF7F8F968
:1040E80003460C90002800F0518299198B4207D0A2
:1040F800434A1068526818605A6008339942FAD1E6
:104108003046FFF7E5F903460D90002800F03B82A2
:104118009919994207D03A4A1068526818605A604B
:1041280008339942FAD13046FFF7D2F903460B908B
:10413800002800F025829919994207D0304A106862
:10414800526818605A6008339942FAD13046FFF72E
:10415800BFF903460E90002800F00F821E449E42CD
:1041680007D0274A1168526819605A6008339E427E
:10417800FAD1069B6BB9069A136823F00303136000
:104188001368FFDE0837BB42E7EEA75A7FF412AF89
:104198003EE71D346409A4002046FCF7E5FF2246EB
:1041A8000021064612901BF030F92046FCF7DCFF90
:1041B80005462246002103901BF027F93368344650
:1041C80023F0030333602B6823F003032B60069B63
:1041D800022B40F3F78100270B9E0E9DCDF840A0DF
:1041E800B0EE006A0222A246089B0F980A99DDF8F1
:1041F80030E0DDF834900997019602958AE000BF17
:104208005CFB010044EA08080494019D4AF82780F1
:10421800D5ED055AD5ED046AF0EEE57AB0EEE67A0A
:10422800B4EEE77AF1EE10FA58BFF0EE477AF5EE01
:10423800407AF1EE10FA0BD085EEA77AC6EEA75AAF
:1042480027EE077AA5EEA57AF1EEC76A67EEA67A99
:10425800029D95ED055AD5ED045AB0EEC57AF0EEFB
:10426800E56AF4EEC76AF1EE10FA58BFB0EE667A66
:10427800B5EE407AF1EE10FA0BD0C5EE076A85EE7E
:10428800875A66EEA66AE5EE056AF1EEE65A27EE6B
:10429800257AB4EEE77AF1EE10FA039D55F82780F7
:1042A8004CBF44EA080428EA040445F82740049F60
:1042B800EFB1059C670904F01F08012404FA08F807
:1042C8005AF8274018EA040F11D155F8274018EA80
:1042D800040F40F0E180079F7C0955F82440012530
:1042E80007F01F0705FA07F7274240F0D580019C21
:1042F800013208340194029C083308340294069C65
:104308000830944201F108010EF1080E09F108097C
:1043180000F0E880D3ED025AD3ED036A93ED007AFA
:10432800D3ED017A95EE867AD6EE867A80ED047A18
:10433800C0ED057AD3ED065AD3ED076A93ED087AF6
:10434800D3ED097A95EE867AD6EE867A81ED047AEF
:10435800C1ED057AD0ED055AD0ED046A93ED057AE2
:10436800D3ED047A37EE657A77EEE67A8EED057A44
:10437800CEED047A93ED057AD3ED047AD0ED055AA3
:10438800D0ED046AB1EE477AF1EE677A37EE657AD6
:1043980077EEE67A89ED057AC9ED047AD1ED055A0A
:1043A800D1ED046A93ED057AD3ED047A012537EE51
:1043B800657A77EEE67A02F01F0405FA04F4551ED2
:1043C8000595951E0795019D944685ED057AC5EDE1
:1043D800047A93ED057AD3ED047AD1ED055AD1ED3F
:1043E800046AB1EE477AF1EE677A37EE657A77EECE
:1043F800E67A029D570985ED057AC5ED047ADEED6A
:10440800055ADEED046AF0EEE57AB0EEE67AB4EE2F
:10441800E77AF1EE10FA58BFF0EE477AF5EE407AF7
:10442800F1EE10FA0BD085EEA77AC6EEA75A27EE62
:10443800077AA5EEA57AF1EEC76A67EEA67A99ED36
:10444800055AD9ED045AB0EEC57AF0EEE56AF4EEF5
:10445800C76AF1EE10FA58BFB0EE667AB5EE407A48
:10446800F1EE10FA0BD0C5EE076A85EE875A66EEB4
:10447800A66AE5EE056AF1EEE65A27EE257AB4EE6D
:10448800E77AF1EE10FA5AF827803FF5BBAE00251F
:1044980028EA04080495B8E6DBF80C7097421DDD9D
:1044A800019EDDF84080029D08FB07C7DBF810403D
:1044B8000CF1010C04EBC70494ED017AD4ED007AF9
:1044C800B1EE477AF1EE677A84ED017AC4ED007AAD
:1044D800DBF80C70BC45E7DB01960295099C0134BA
:1044E800099404E7DDF840A00398FCF73FFE129812
:1044F800FCF73CFE0E98FEF7EDFF0B98FEF7EAFF7F
:104508000D98FEF7E7FF0C98FEF7E4FF0A98FEF710
:10451800E1FF0F98FEF7DEFF119A289B11461B69F1
:10452800099A08985A50FEF7D5FFDBF808300AF1C7
:10453800010A9A45FFF6DBAB012017B0BDEC088BEA
:10454800BDE8F08F3046FEF7C3FF0A9008B3304647
:10455800FEF7BEFF0C90C8B13046FEF7B9FF0D90CC
:1045680088B13046FEF7B4FF0B9048B13046FEF7ED
:10457800AFFF0E9000287FF4FCAD0B98FEF7AAFF62
:104588000D98FEF7A7FF0C98FEF7A4FF0A98FEF710
:10459800A1FF0F98FEF79EFF0898FEF79BFF0020EB
:1045A80017B0BDEC088BBDE8F08FB0EE69BAAFE488
:1045B800B0EE69BAA9E4F0EE494AB0EE495ADFED27
:1045C800135A25E5002309938EE79FED107A94E4AA
:1045D800019000F03DFD0198F0EE407AB0EE607A6F
:1045E800FFF7D9BBF0EE401AB0EE4A1AB0EE660AF1
:1045F80000F02EFD0135A54288ED000AC8ED010A3C
:1046080008F108087FF49BACCCE400BF0000000070
:1046180030B50024054687B0CDE90444039490F8EA
:10462800B51590F8C0352246CDE90131D0F8BC1552
:104638000346009190F8A00505F2A451FBF788FD08
:10464800224605F2FF4105F24F5C11F8013F541C68
:1046580013B991F8503003B1E2B28C45F5D1052A6F
:1046680028BF022007B030BD9FED180A00B590F8AA
:10467800A03583B0012B8DED010A02D003B05DF89F
:1046880004FB002100F2FF4300F24F5E13F8012FF4
:1046980001F1010C12B993F850200AB15FFA8CF1BC
:1046A8009E45F3D1042904D99FED080A03B05DF8AB
:1046B80004FB012228219FED060A01ABFCF74EFC02
:1046C8009DED010A03B05DF804FB00BF0000C07F48
:1046D8000024744981F0004102E000BF83F00043E8
:1046E80030B54FEA41044FEA430594EA050F08BF85
:1046F80090EA020F1FBF54EA000C55EA020C7FEA49
:10470800645C7FEA655C00F0E2804FEA5454D4EBC5
:104718005555B8BF6D420CDD2C4480EA020281EA8F
:10472800030382EA000083EA010180EA020281EAC7
:104738000303362D88BF30BD11F0004F4FEA013119
:104748004FF4801C4CEA113102D0404261EB410128
:1047580013F0004F4FEA03334CEA133302D05242AE
:1047680063EB430394EA050F00F0A780A4F101046A
:10477800D5F1200E0DDB02FA0EFC22FA05F28018A4
:1047880041F1000103FA0EF2801843FA05F359418A
:104798000EE0A5F120050EF1200E012A03FA0EFC09
:1047A80028BF4CF0020C43FA05F3C01851EBE37133
:1047B80001F0004507D54FF0000EDCF1000C7EEB50
:1047C80000006EEB0101B1F5801F1BD3B1F5001F8E
:1047D8000CD349085FEA30004FEA3C0C04F10104AD
:1047E8004FEA445212F5800F80F09A80BCF1004FD6
:1047F80008BF5FEA500C50F1000041EB045141EA58
:10480800050130BD5FEA4C0C404141EB0101013C20
:1048180028BFB1F5801FE9D291F0000F04BF01460F
:104828000020B1FA81F308BF2033A3F10B03B3F1E1
:1048380020020CDA0C3208DD02F1140CC2F10C0271
:1048480001FA0CF021FA02F10CE002F11402D8BFCF
:10485800C2F1200C01FA02F120FA0CFCDCBF41EA9B
:104868000C019040E41AA2BF01EB0451294330BD6A
:104878006FEA04041F3C1CDA0C340EDC04F1140447
:10488800C4F1200220FA04F001FA02F340EA03001E
:1048980021FA04F345EA030130BDC4F10C04C4F164
:1048A800200220FA02F001FA04F340EA0300294644
:1048B80030BD21FA04F0294630BD94F0000F83F48E
:1048C800801306BF81F480110134013D4EE77FEA71
:1048D800645C18BF7FEA655C29D094EA050F08BFBD
:1048E80090EA020F05D054EA000C04BF194610469E
:1048F80030BD91EA030F1EBF0021002030BD5FEAE2
:10490800545C05D14000494128BF41F0004130BD09
:1049180014F580043CBF01F5801130BD01F000455D
:1049280045F0FE4141F470014FF0000030BD7FEAD0
:10493800645C1ABF194610467FEA655C1CBF0B46CB
:10494800024650EA013406BF52EA033591EA030FE2
:1049580041F4002130BD00BF90F0000F04BF0021DA
:10496800704730B54FF4806404F132044FF000050D
:104978004FF0000150E700BF90F0000F04BF002186
:10498800704730B54FF4806404F1320410F00045EC
:1049980048BF40424FF000013EE700BF42004FEAE7
:1049A800E2014FEA31014FEA02701FBF12F07F4364
:1049B80093F07F4F81F06051704732F07F4208BF1B
:1049C800704793F07F4F04BF41F40021704730B522
:1049D8004FF4607401F0004521F000411CE700BF6E
:1049E80050EA010208BF704730B54FF000050AE0F1
:1049F80050EA010208BF704730B511F0004502D5F2
:104A0800404261EB41014FF4806404F132045FEAF3
:104A1800915C3FF4D8AE4FF003025FEADC0C18BF9C
:104A280003325FEADC0C18BF033202EBDC02C2F18E
:104A3800200300FA03FC20FA02F001FA03FE40EA20
:104A48000E0021FA02F11444BDE600BF70B54FF024
:104A5800FF0C4CF4E06C1CEA11541DBF1CEA135502
:104A680094EA0C0F95EA0C0F00F0DEF82C4481EA6A
:104A7800030621EA4C5123EA4C5350EA013518BF8A
:104A880052EA033541F4801143F4801338D0A0FB77
:104A980002CE4FF00005E1FB02E506F00042E0FB24
:104AA80003E54FF00006E1FB03569CF0000F18BF2A
:104AB8004EF0010EA4F1FF04B6F5007F64F54074D2
:104AC80004D25FEA4E0E6D4146EB060642EAC62165
:104AD80041EA55514FEAC52040EA5E504FEACE2ED2
:104AE800B4F1FD0C88BFBCF5E06F1ED8BEF1004FD5
:104AF80008BF5FEA500E50F1000041EB045170BD51
:104B080006F0004646EA010140EA020081EA030194
:104B1800B4EB5C04C2BFD4EB0C0541EA045170BD90
:104B280041F480114FF0000E013C00F3AB8014F10A
:104B3800360FDEBF002001F0004170BDC4F1000453
:104B4800203C35DA0C341BDC04F11404C4F12005D4
:104B580000FA05F320FA04F001FA05F240EA02002F
:104B680001F0004221F0004110EBD37021FA04F665
:104B780042EB06015EEA430E08BF20EAD37070BD1F
:104B8800C4F10C04C4F1200500FA04F320FA05F07E
:104B980001FA04F240EA020001F0004110EBD37080
:104BA80041F100015EEA430E08BF20EAD37070BDF0
:104BB800C4F1200500FA05F24EEA020E20FA04F3C9
:104BC80001FA05F243EA020321FA04F001F0004178
:104BD80021FA04F220EA020000EBD3705EEA430EE9
:104BE80008BF20EAD37070BD94F0000F0FD101F018
:104BF8000046400041EB010111F4801F08BF013C51
:104C0800F7D041EA060195F0000F18BF704703F08E
:104C18000046520043EB030313F4801F08BF013D15
:104C2800F7D043EA0603704794EA0C0F0CEA1355D1
:104C380018BF95EA0C0F0CD050EA410618BF52EA8B
:104C48004306D1D181EA030101F000414FF0000091
:104C580070BD50EA410606BF1046194652EA43069F
:104C680019D094EA0C0F02D150EA013613D195EA13
:104C78000C0F05D152EA03361CBF104619460AD15B
:104C880081EA030101F0004141F0FE4141F4700165
:104C98004FF0000070BD41F0FE4141F4780170BD55
:104CA80070B54FF0FF0C4CF4E06C1CEA11541DBFBA
:104CB8001CEA135594EA0C0F95EA0C0F00F0A7F8BC
:104CC800A4EB050481EA030E52EA03354FEA0131E9
:104CD80000F088804FEA03334FF0805545EA1313FC
:104CE80043EA12634FEA022245EA111545EA1065C4
:104CF8004FEA00260EF000419D4208BF964244F15B
:104D0800FD0404F5407402D25B084FEA3202B61A79
:104D180065EB03055B084FEA32024FF480104FF44D
:104D2800002CB6EB020E75EB030E22BFB61A7546C1
:104D380040EA0C005B084FEA3202B6EB020E75EB54
:104D4800030E22BFB61A754640EA5C005B084FEABC
:104D58003202B6EB020E75EB030E22BFB61A754689
:104D680040EA9C005B084FEA3202B6EB020E75EB94
:104D7800030E22BFB61A754640EADC0055EA060E55
:104D880018D04FEA051545EA16754FEA06164FEA98
:104D9800C30343EA52734FEAC2025FEA1C1CC0D144
:104DA80011F4801F0BD141EA00014FF000004FF0D1
:104DB800004CB6E711F4801F04BF01430020B4F192
:104DC800FD0C88BFBCF5E06F3FF6AFAEB5EB030C4A
:104DD80004BFB6EB020C5FEA500C50F1000041EB47
:104DE800045170BD0EF0004E4EEA113114EB5C0414
:104DF800C2BFD4EB0C0541EA045170BD41F48011E7
:104E08004FF0000E013C90E645EA060E8DE60CEAEE
:104E1800135594EA0C0F08BF95EA0C0F3FF43BAF0B
:104E280094EA0C0F0AD150EA01347FF434AF95EAC2
:104E38000C0F7FF425AF104619462CE795EA0C0FA6
:104E480006D152EA03353FF4FDAE1046194622E773
:104E580050EA410618BF52EA43067FF4C5AE50EA4D
:104E680041047FF40DAF52EA43057FF4EBAE12E73D
:104E78004FF0FF3C06E000BF4FF0010C02E000BF1E
:104E88004FF0010C4DF804CD4FEA410C7FEA6C5C01
:104E98004FEA430C18BF7FEA6C5C1BD001B050EAA4
:104EA800410C0CBF52EA430C91EA030F02BF90EA8F
:104EB800020F0020704710F1000F91EA030F58BF4E
:104EC800994208BF90422CBFD8176FEAE37040F0B0
:104ED800010070474FEA410C7FEA6C5C02D150EA4E
:104EE800013C07D14FEA430C7FEA6C5CD6D152EA09
:104EF800033CD3D05DF8040B704700BF84461046CE
:104F080062468C461946634600E000BF01B5FFF7CC
:104F1800B7FF002848BF10F1000F01BD4DF808ED9C
:104F2800FFF7F4FF0CBF012000205DF808FB00BF6D
:104F38004DF808EDFFF7EAFF34BF012000205DF8C7
:104F480008FB00BF4DF808EDFFF7E0FF94BF012014
:104F580000205DF808FB00BF4DF808EDFFF7CEFF15
:104F680094BF012000205DF808FB00BF4DF808ED54
:104F7800FFF7C4FF34BF012000205DF808FB00BF25
:104F88004FEA4102B2F1E04324BFB3F5001CDCF163
:104F9800FE5C0DD901F0004C4FEAC0024CEA50709B
:104FA800B2F1004F40EB830008BF20F001007047CA
:104FB80011F0804F21D113F13872BCBF01F00040CD
:104FC800704741F480114FEA5252C2F11802C2F1FF
:104FD800200C10FA0CF320FA02F018BF40F0010080
:104FE8004FEAC1234FEAD32303FA0CFC40EA0C0032
:104FF80023FA02F34FEA4303CCE77FEA625307D16F
:1050080050EA01331EBF4FF0FE4040F440007047A5
:1050180001F0004040F0FE4040F40000704700BF3F
:1050280053B94AB9002908BF00281CBF4FF0FF3107
:105038004FF0FF3000F096BAADF1080C6DE904CEE0
:1050480000F092FADDF804E0DDE9022304B07047CD
:1050580020EE014A60EEA14A20EE215A61EE205A64
:1050680034EE647A75EE256AB4EE477AF1EE10FAFA
:10507800C0F1C180F4EE666AF1EE10FAC0F1BB80AF
:10508800B0EEC06ADFED8A7AF0EEE03AB4EE676A15
:10509800F1EE10FA04DCF4EE673AF1EE10FA47DDAF
:1050A800B4EE676AF1EE10FAF4EE673ACCBF01236A
:1050B800002306EE103A10EE103AB8EEC66A002B3E
:1050C800B0EEC66AB8BFB1EE466AF1EE10FAB4EEB9
:1050D800411AB0EE460ACCBF0123002306EE103A6F
:1050E80010EE903AB8EEC66A002BB0EEC66AB8BFAA
:1050F800B1EE466AF1EE10FAF0EE460A08D711EE64
:10510800103A9FED6C6A9FED6C1A002B21FE061A6F
:10511800F4EE611AF1EE10FA08D711EE903A9FED0D
:10512800656ADFED651A002B61FE861A012300E02F
:105138000023F0EEC13AB0EEE16AF4EE673AF1EE20
:1051480010FA04DCB4EE676AF1EE10FA58DDF4EEFA
:10515800673AF1EE10FAB4EE676ACCBF0123002378
:1051680007EE103A11EE103AB8EEC77A002BB0EEFF
:10517800C77AB8BFB1EE477AF1EE10FAB4EE400A3A
:10518800B0EE471ACCBF0123002307EE903A11EE88
:10519800903AF8EEE77A002BF0EEE77AB8BFF1EE36
:1051A800677AF1EE10FAF0EE671A08D710EE103AA7
:1051B800DFED407A9FED400A002B20FE270AF4EE2F
:1051C800600AF1EE10FA08D710EE903ADFED397A5E
:1051D800DFED390A002B60FEA70A21EEE07ADFED49
:1051E800376A60EE810AA0EE017AE0EE210A27EE26
:1051F800267A60EEA66AB0EE470AF0EE660A7047B5
:10520800002BEAD1B0EEC44AB4EE674AF1EE10FAC8
:1052180014DCF0EEE44AF4EE674AF1EE10FA0DDC25
:10522800B0EEC55AB4EE675AF1EE10FA06DCF0EEAD
:10523800E55AF4EE675AF1EE10FADCDDB4EE400AF6
:10524800F1EE10FA08D710EE103ADFED1A7A9FED5A
:105258001A0A002B20FE270AF4EE600AF1EE10FA73
:1052680008D710EE903ADFED137ADFED130A002B22
:1052780060FEA70AB4EE411AF1EE10FA08D711EE53
:10528800103ADFED0C7A9FED0C1A002B21FE271A3D
:10529800F4EE611AF1EE10FA9FD711EE903ADFEDB5
:1052A800057ADFED051A002B61FEA71A95E700BF06
:1052B800FFFF7F7F00000080000000000000807F6B
:1052C8002DE9F04F2DED068BF0EE608A85B0B0EE3B
:1052D80041AA10EE100AF0EE619AB0EE409AFFF77C
:1052E8005DFBCDE9000118EE900AFFF757FBCDE909
:1052F80002011AEE100AFFF751FB06460F4619EE97
:10530800900AFFF74BFB324604460D463B463046B3
:105318003946FFF79BFB8046894622462B462046A6
:105328002946FFF793FB02460B4640464946FFF7DE
:10533800D7F9324682468B463B46DDE90001FFF746
:1053480085FB8046894622462B46DDE90201FFF7A8
:105358007DFB02460B4640464946FFF7C1F95246D7
:105368005B46FFF79DFCFFF70BFE32463B4608EE17
:10537800100ADDE90201FFF769FB06460F462246DF
:105388002B46DDE90001FFF761FB02460B4630467C
:105398003946FFF7A3F952465B46FFF781FCFFF752
:1053A800EFFDB4EE488A07EE900AF1EE10FA25D721
:1053B800F4EE677AF1EE10FA20D7B5EE40AAF1EED6
:1053C80010FA24D1F5EE409AF1EE10FA1FD1B4EE9E
:1053D800499AF1EE10FA04D7F4EE688AF1EE10FA61
:1053E80015D61AEE103ADFED5B7A9FED5B7A002B4B
:1053F80067FE877A27EE898A67EEA87AB0EE480AB0
:10540800F0EE670A05B0BDEC068BBDE8F08FB0EE94
:10541800C96A9FED527AF0EECA6AB4EE476AF1EEB5
:1054280010FA06DCF0EEE85AF4EE475AF1EE10FAFC
:1054380042DDF4EE476AF1EE10FA3DD8F0EEE95A93
:10544800F4EE475AF1EE10FA36D8B4EE476AF0EEA9
:10545800E87AF1EE10FAF4EE477A9FED3E7ACCBF87
:105468000123002306EE903A19EE103AF8EEE66AA8
:10547800002BF0EEE66AB8BFF1EE666AF1EE10FABC
:10548800CCBF0123002307EE903A18EE903AF8EECD
:10549800E77A002BF0EEE77AB8BFF1EE677A29EEEB
:1054A800A78AAAEE268A66EEE96AEAEE276A28EE55
:1054B800078A67EE267AA1E7F4EE476AF1EE10FA5A
:1054C80006DCF0EEE95AF4EE475AF1EE10FA95DDF3
:1054D800B4EE476AF1EE10FA90D8B0EEE86AB4EE8E
:1054E800476AF1EE10FA89D8F4EE476AF0EEE96AF5
:1054F800F1EE10FAF4EE476ADFED196ACCBF01232A
:10550800002307EE903A1AEE103AF8EEE77A002BED
:10551800F0EEE77AB8BFF1EE677AF1EE10FACCBF99
:105528000123002307EE103A19EE903AB8EEC77A35
:10553800002BB0EEC77AB8BFB1EE477A28EE878A5B
:1055480027EE497AA9EE278AA8EEA77A28EE268AB6
:10555800AFE700BF0000807F000080FFFFFF7F7F74
:1055680000000000704700BF2DE9F04786468C46D2
:105578000846089E154674461946002B40F0C1801F
:105588008542B2FA82F245D94AB1C2F1200300FA43
:1055980002FC954094402EFA03F343EA0C0C4FEAC0
:1055A800154EA8B2230CBCFBFEF80EFB18CC08FB6A
:1055B80000F943EA0C43994528D9EB1808F1FF375D
:1055C80004D2994502D9A8F102072B44A3EB090399
:1055D800A4B2B3FBFEFC0EFB1C330CFB00F044EA48
:1055E8000344A04214D92C190CF1FF3304D2A04271
:1055F80002D9ACF102032C44241A43EA07401EB135
:10560800D440002334607360BDE8F0874746DDE787
:105618006346F1E792BB431B01214FEA154EAFB237
:10562800200CB3FBFEFC0EFB1C330CFB07F840EA16
:105638000343984561D9EB180CF1FF3004D2984523
:1056480002D9ACF102002B44A3EB0803A4B2B3FBCC
:10565800FEFC0EFB1C330CFB07F744EA0344A7428D
:105668004DD92C190CF1FF3304D2A74202D9ACF161
:1056780002032C44E41B43EA0040C0E7C2F12003C4
:105688009540944020FA03F12EFA03F34FEA154EA1
:105698009040AFB20343B1FBFEFC0EFB1C10190C8B
:1056A8000CFB07F841EA0041884522D969180CF13A
:1056B800FF3004D2884502D9ACF102002944A1EB9D
:1056C80008019BB2B1FBFEFC0EFB1C110CFB07F79B
:1056D80043EA01439F420ED9EB180CF1FF3104D283
:1056E8009F4202D9ACF102012B44DB1B41EA004185
:1056F80093E76046E3E76146F7E76046A4E7634659
:10570800B8E7834206D916B9002108467CE7C6E9FE
:1057180000E0F9E7B3FA83F78FB9834201D3724502
:1057280008D8BEEB020460EB030301209C461EB9B7
:10573800002169E73846FAE7C6E9004CF8E7C7F1FF
:10574800200CBB400EFA07F522FA0CF42EFA0CF1E5
:10575800BA401C4320FA0CF3B8404FEA14490143FD
:105768001FFA84FEB3FBF9F809FB18300B0C08FB91
:105778000EFA43EA00439A4540D9E31808F1FF308E
:1057880004D29A4502D9A8F102002344A3EB0A03E4
:1057980089B2B3FBF9F809FB183308FB0EFE41EA9E
:1057A80003418E452CD9611808F1FF3304D28E4588
:1057B80002D9A8F10203214443EA0040A1EB0E01FB
:1057C800A0FB02984145CE46434602D306D14D453B
:1057D80004D20138B9EB020E68EB0403002EA7D0FF
:1057E800B5EB0E0261EB030101FA0CFC22FA07F398
:1057F800F9404CEA0303C6E9003199E74046C5E79A
:105808004346D9E710F8012B11F8013B012A28BFBC
:105818009A42F7D0D01A7047034613F8012B002A92
:10582800FBD1181A013870472DE9F04F87B0039063
:10583800254F0021BB683846029304AA5B68984745
:1058480000283ADBDDE9044A4FF47A23A4FB03B5C8
:1058580003FB0A551AA3D3E900234FF0FF39294661
:105868005846FFF7DDFBDFF86480D94578EB05057E
:10587800064622D34FF6FF72039B9B02B3FBF2F35B
:105888004FF47A725343A3FB045403FB0A440CA35A
:10589800D3E9002321462846FFF7C2FBA94578EB48
:1058A8000404034609D3864207D301220092029AD0
:1058B8000021146838463246A04707B0BDE8F08F8B
:1058C80000CA9A3B00000000E4F50100FFC99A3BBA
:1058D8002DE9F04F824616461C4600259FB00391DD
:1058E800307810B9284600F085BD731C252806932A
:1058F80006D00399D0470028C0F27C8501351BE209
:105908001822002110A819F080FD7378252B00F0CB
:10591800BA80002398469E469C461846711C0F463E
:1059280011F8012B2B2A00F0DD8000F2D480202A08
:1059380000F0DB80232A00F0DB802BB19DF8483093
:1059480043F040038DF84830B8F1000F05D09DF8BA
:10595800483043F020038DF84830BEF1000F05D0E1
:105968009DF8483043F010038DF84830BCF1000F23
:1059780005D09DF8483043F008038DF8483028B129
:105988009DF8483043F004038DF848309DF84830BE
:1059980003F04401442903D16FF386138DF848308E
:1059A8009DF848302A2A43F080030E978DF8483036
:1059B80040F0A3809DF8493043F001038DF8493049
:1059C8007B1C1A782E2A0CBF012100219DF8492042
:1059D80061F341028DF849200CD15A1C0E925A7875
:1059E8002A2A40F09A809DF84920023342F00402A6
:1059F8008DF849201A786C2A00F0BB8000F29D804F
:105A0800682A00F0A3806A2A00F0BC804C2A00F0C3
:105A1800C18013F8012B782A06938DF84B2000F2E9
:105A280001816D2A00F2C380692A00F2FB80572A9F
:105A380000F2DA80412A04D0A2F14503022B00F2D9
:105A4800F18004219DF84A3002F0DF02A2F14107FB
:105A580061F302037A429DF849107A4162F3C71153
:105A68000A068DF84A308DF84910CBB200F1198139
:105A780003F07802182A40F003816FF3C6038DF80B
:105A880049300023F2E0B21C06928DF84B309DF8A5
:105A98004930D90740F1078154F8042B002A0492B1
:105AA80008DA9DF8482042F004028DF84820049A4C
:105AB800524204925A0740F1FE8054F8047B002FAA
:105AC80080F2FD809DF849306FF341038DF849302D
