:020000040100F9
:1000000000D60021D1A30201EF0E0301A5A3020136
:10001000A5A30201A5A30201A5A3020100000000FF
:100020000000000000000000000000000DA102011F
:10003000A5A3020100000000B1A00201A5A30201D6
:100040008DA102018DA102018DA102018DA10201EC
:100050008DA102018DA102018DA102018DA10201DC
:10006000A31403018DA102018DA102018DA1020142
:10007000591403018DA102018DA102018DA102017C
:100080008DA102018D1403018DA102018DA1020138
:100090008DA102018DA102018DA102018DA102019C
:1000A0008DA102018DA102018DA102018DA102018C
:0800B0008DA102018DA10201E6
:1000B80001F0D4BC01F0F2BC2DE9F04104460D4634
:1000C80016461F4602F058FC02F0C4F902F056FD2D
:1000D80002F024FA3B46324629462046BDE8F04164
:1000E80002F008B82DE9F04F0025D0F8009087B04D
:1000F8009582174616880C46059002F077FC99F809
:1001080008102046A1F10201B1FA81F1490902F073
:10011800C1FC02F0A7FC02F0EFF902F031FDBC8A45
:1001280099F80030A34261D9A6F1A0030193BA4619
:10013800A6F524732E46CDE903530295D9F8048019
:1001480004EB8404374608EB8406707801F0B8FEA7
:1001580018F8240001F0AEFE707800F0C3F899F8A2
:100168000830AB46012B05465BD0022B00F08A8095
:1001780002F048FA019802F06BFCBBF1000F6CD05A
:10018800002F47D0DBF8083013B13946504698475E
:10019800002D65D06B6813B1314650469847002F43
:1001A8003CD07B78002B39D17378002B36D0059B57
:1001B8001B7A002B6FD002F097FC1DB12B680BB196
:1001C8005046984702F056FC002854D14FF00103DE
:1001D800B370BAF814400134A4B2AAF8144099F8DC
:1001E80000309C42AAD35746804667D04FF000089B
:1001F80002F0A2F889F8090002F06CF902F012FC8A
:1002080002F0F4FB01F06AFD02F0BAF9404607B0CB
:10021800BDE8F08F4DB36B68002BBDD102F064FCD4
:10022800CCE77378002B31D102F00AFC039B3BB377
:10023800029A801A90FBF3F46442029BE01A02F0DF
:1002480007FC049802F0A6FA029402F0DBF9019880
:1002580002F0FEFBBBF1000F92D1002D9AD127B11D
:100268007B7813B97378002BA1D102F03DFC02F022
:1002780001FC0028AAD07378CBB14FF00208B7E789
:100288001C46DAE7049802F0CFFA71E718F8240060
:1002980001F034FEC8E702F05FF87F280BD002F0C7
:1002A80031F801F097FE039002F06AFC83E702F050
:1002B80053F87F28E1D14FF0010899E7002D95D038
:1002C800AB68002B92D031463846984790E700BF7C
:1002D80000487047B0210021014800EBC110704769
:1002E800B0200021024B00EB400003EB8000704778
:1002F800F0220021012810B50C4602D002280ED0A9
:1003080010BD084600F0CCFA204600F02FFD20462C
:1003180000F09EF92046BDE8104001F049B80846B3
:1003280000F0D4FA204600F07BFD204600F0A6F944
:100338002046BDE8104001F08FB800BF70B51546E3
:100348000E46044605220021284632F0AFFE66B16B
:10035800204606EB860604EB8601447814302B5DB4
:10036800814203F101032B55F7D170BD10B5CB7A4B
:100378000C46002B0BBF4FF444714FF4F8714FF447
:1003880030734FF4D07384B0042855D8DFE800F0F8
:100398001920262F0300002A47D0104603AB0DF181
:1003A8000B02217B00F0E0FF45F6A0729DF80B30B0
:1003B800A08802FB03F300EB430000F5496004B09A
:1003C80010BDA0880844184400F5BE6004B010BDF4
:1003D800A08808441844503004B010BD207B70B980
:1003E8006388E08800EB8300A03004B010BD638808
:1003F800A08800EB430000F5326004B010BD02F0A5
:10040800C1FB6388B4F808C0411E00FB03320CFB33
:1004180001F100EBC003E488501850302044104428
:100428000844F03000EB4310C9E701927846714662
:1004380002F0BAFB019AB0E70020C0E770B50446A5
:10044800E37A2D4AB3FA83F3A0205B09137002F014
:10045800FFFA02F053FA02F061F802F053F902F0E1
:1004680043FBE37A254A002B0CBF4FF430704FF45E
:10047800D070A38808BF4FF44C76034413601ABFAA
:100488004FF4F8754FF404764FF4447502F0E0FA2F
:1004980002F0F0F802F028FB502002F0D9FA02F03E
:1004A80037FB02F021FBA088A0F5247002F0D0FAF7
:1004B80002F024FA02F056F902F016FB4FF4247009
:1004C80002F0C6FA02F036F902F00EFBE37A002BCE
:1004D8000BBF6FF01F0400243046284602F0B8FA1C
:1004E80002F0C8F802F000FB204602F0B1FABDE8BD
:1004F800704001F0BFBD00BF6E3100212C230021E8
:1005080070B50446E37A284AB3FA83F3A0205B095E
:10051800137002F09DFA02F0F1F901F0FFFF01F00B
:100528001FFC02F0E1FAE37AB3BB4FF430754FF4E5
:100538004C702026A3882B441C4A136002F088FACA
:1005480002F098F802F0D0FAA088A0F52470801B79
:1005580002F07EFA01F08EFD02F0A4F802F0C4FA6F
:100568004FF4247002F074FA02F0D2FA02F0C6F9DD
:1005780002F0C8F802F0B8FA284602F069FA02F068
:1005880079F802F0B1FA502002F062FA02F03AF873
:10059800BDE8704002F0A8BA4FF4D075A3884FF4B4
:1005A800F87000262B44C7E76E3100212C23002168
:1005B80038B50D4602F0BAFA044601F097FC00B1CE
:1005C8004CB94FF6FF73AB8001F016FDA87101F02E
:1005D80019FDE87138BD4FF47A43174A1749106876
:1005E8000978174A201A03FB00F0127871B1F2B1AA
:1005F800A0F52404A4F53C5401F098FE00F59830C9
:1006080000F58070201AC0F38F23DCE752B100F5A3
:10061800240303F53C5303F5983303F58073C3F3C0
:100628008F23D0E700F5AE0303F5CE43F3E7A0F53B
:10063800AE04A4F5CE44DFE72C2300216F3100215E
:100648006E310021084604220021104432F02EBDEC
:10065800012008B5054B1870FFF744FE0449054A08
:10066800054BC0E90112036008BD00BF6F310021CE
:100678004D060001B905000145040001002208B536
:10068800054B01201A70FFF72DFE0449044A054B5B
:10069800C0E90112036008BD6F3100214D06000159
:1006A800B90500010905000170B50446E37AA020E8
:1006B800002B0BBF4FF430764FF4D0764FF45C75B7
:1006C8004FF4147502F0C4F901F028FF02F01AF88B
:1006D80002F00AFA304602F0BBF901F0CBFF02F053
:1006E80003FA502002F0B4F901F08CFF02F0FCF993
:1006F800A088A0F5287002F0ABF902F033F802F0F8
:10070800F3F94FF4247002F0A3F902F013F802F0A1
:10071800EBF9284602F09CF901F0D0FA02F0CEF885
:1007280002F0E2F901F0A6FC4FF4AA6002F090F999
:1007380002F050F901F09EFFBDE8704002F0D4B914
:10074800F8B5C37A3D4D002B04460CBF4FF45876DC
:100758004FF4107601F056FF01F0E0FE01F0EEFADA
:1007680001F0FEFA2B78FBB9E37A002B0CBF0D27BA
:100778006FF0180701F0ECFE01F062FF637B002BBD
:100788004FD101F0B3FA287001F074FC02F094F92B
:10079800637B002B4ED002F029F9A088A0F5A07049
:1007A800C01B02F055F916E0E37A002B0BBF202599
:1007B80000254FF474704FF4247002F049F901F0E9
:1007C80021FF02F091F9A088A0F5A070401B02F06B
:1007D8003FF901F04FFC01F0A1FE01F063FF02F0C8
:1007E80083F94FF4A07002F033F901F08BFF02F0A7
:1007F8007BF9304602F02CF901F004FF02F074F99D
:100808004FF4A06002F024F901F034FF02F06CF913
:10081800502002F01DF901F0F5FEBDE8F84002F0A5
:1008280063B901F035FA01F025FC02F045F9637B64
:10083800002BB0D101F070FAAFE700BF7031002192
:1008480010B582B00C4601F039FA01F02FFC01F026
:10085800F5FB607301F0C0FAFFF73AFD0446012387
:10086800002203210094502001F0DCFA02B010BDF0
:1008780010B50C4601F0C0FB207301F0C3FBA07358
:1008880001F0B4FB6060FFF723FD01F043F8024676
:10089800A26094F90C102078BDE8104001F0FABC71
:1008A80010B50020FFF71EFD04460C22002132F08F
:1008B800FDFB0349034A044BC4E90112236010BD40
:1008C8004908000179080001B106000110B50020AF
:1008D800FFF708FD04460C22002132F0E7FB4FF039
:1008E800000C0549054A064B0648C4E9011280F880
:1008F80000C0236010BD00BF49080001790800014D
:1009080049070001703100212DE9F04700270C4606
:10091800DFF850810F748AB002F032F998F80010AD
:10092800261D002957D04FF0010A3D46DFF83891BF
:1009380001F094FB291D49008A1C3244314400F01F
:10094800C1FE29462078FFF7C7FC99F800306946B0
:100958008DF8243000F0E6FD00216A46084600F0D4
:10096800EBFEBDF82210BDF820C004EB4503621968
:100978001981A3F804C05074B3F90C2001379532DB
:10098800B2F5957F98F80010FDB205D8B3F90E308E
:100998009533B3F5957F01D984F810A0A942C7D83B
:1009A800C9B140F2E672B4F9043003F2F533934268
:1009B80047D90223237401290DD040F2E672B4F915
:1009C800063003F2F533934242D8B4F90A3003F201
:1009D800F53393423CD82078FFF77EFC98F8001056
:1009E800403049000A1D3244314400F06BFE0022B9
:1009F80098F8005063195A74207800F083FF1B4B55
:100A08000746196839BBFF2D18D004EB4505063594
:100A18000834214630463A4600F046FFB6F9003021
:100A280001335B1026F8023BB4F90030B54203F1FC
:100A380001034FEA630324F8023BEAD10AB0BDE898
:100A4800F087B4F9083003F2F5339342B1D8B2E72E
:100A580002232374BFE7064B186800F043FF0744DE
:100A68003FB2D0E7733100217531002134230021D2
:100A7800302300212DE9F0410E46002782B01022D4
:100A8800FF210446301D32F011FB1E4D3378DFF88C
:100A980078802F7088F8003001F0A2FA02461B4BCC
:100AA80098F800001A601A4B29781E78194BB3F988
:100AB8000080FFF711FC3B4642463146009020205B
:100AC80001F0B0F92B7801332B7001F04FF9A37ABC
:100AD800012B0BD0A38A1049DA4303F0010302F07B
:100AE80001024A700B7002B0BDE8F081A28A0A497F
:100AF800D34302F0010203F001034A700B7002B005
:100B0800BDE8F081713100217231002130230021CC
:100B18007431002168310021382300212DE9F04F7C
:100B2800284E83B0074601F0C9FE01F0DDFF337897
:100B3800ABB100242546DFF890A0DFF89090DFF8ED
:100B48009080788801F084FF3378013B9D4217D06C
:100B580001F0CAFF01343378E5B2AB42F1D87888A6
:100B680001F076FF01F04EFD01F0BEFF502001F0CC
:100B78006FFF01F0BBFE03B0BDE8F04F01F0B4BF5A
:100B8800144B98F8001018789AF80050B9F900B08A
:100B9800FFF7A2FB844629465A46CDF800C0002339
:100BA800202001F03FF998F800300134013388F82B
:100BB800003001F083FE01F097FF3378E5B2AB42D5
:100BC800BFD8CCE77331002174310021683100218E
:100BD80071310021723100212DE9F0412F4E074675
:100BE800A02001F035FF01F099FC01F015FD01F09E
:100BF8007BFF3378C3B10024DFF8A480254606E0E4
:100C080001F072FF01343378E5B2AB420ED978882F
:100C180001F01EFF3378013B9D42F1D198F8003076
:100C280073BB01F09FFDEBE7DFF87480788801F073
:100C38000FFF98F8003073B301F094FD01F054FFF2
:100C4800502001F005FF01F0DDFC01F04DFFF888B0
:100C5800A0F5A07001F0FCFE01F0D4FC01F090FFBB
:100C680001F042FF4FF4A07001F0F2FE3846FFF7A2
:100C780055FF01F013F83078012804D8BDE8F08159
:100C880001F0C0FCBCE700EBC0004001A030BDE8AB
:100C9800F04101F0DDBE01F0B5FCCFE77331002172
:100CA800382300212DE9F0410746A02001F0D0FEAD
:100CB80001F034FC3846FFF731FFF888294EA0F5DB
:100CC800A07001F0C5FE01F05BFF01F0EBFC01F044
:100CD8000BFF4FF4A07001F0BBFE01F09DFC01F08A
:100CE80003FF3378C3B10024DFF87C80254606E093
:100CF80001F0FAFE01343378E5B2AB420ED97888B8
:100D080001F0A6FE3378013B9D42F1D198F80030FE
:100D1800D3B901F0AFFCEBE7DFF84C80788801F03D
:100D280097FE98F80030D3B101F0A4FC01F0DCFE86
:100D3800502001F08DFE01F065FC01F0D5FE307801
:100D4800012804D8BDE8F08101F05CFCD0E700EB95
:100D5800C0004001A030BDE8F04101F079BE01F0CB
:100D680051FCE3E7733100213823002138B543886B
:100D78000446B3F5A07F2CD0B3F5207F37D0A02B45
:100D880031D07846714601F00FFF0220FFF7AAFA2A
:100D980005460C22002132F089F91949194A1A4BE3
:100DA800C5E901122B60207B01F0ECFE174B0128EE
:100DB800187008BF0023628818BF2389E18813448C
:100DC80000FB033301F15000114A03441B0913606F
:100DD80038BD0420022520220E4B0F491D700F4BF1
:100DE80008701A80D1E7052001251022F4E70323B3
:100DF80040250949074A09480B7005801370C4E764
:100E08007D0A000111090001E10B00017331002185
:100E1800342300217531002174310021683100210B
:100E280038B543880546B3F5A07F1FD0B3F5207FBA
:100E38002AD0A02B24D07846714601F0B5FE0220B6
:100E4800FFF750FA04460C22002132F02FF913491B
:100E5800134A144BC4E901122360287B01F092FE67
:100E680000221149114B08701A6038BD0420022471
:100E780020220F4B0F491C700F4B08701A80DEE7B9
:100E8800052001241022F4E7032340240949084AD5
:100E980009480B7004801370D1E700BF7D0A000178
:100EA80011090001AD0C0001733100213423002128
:100EB800753100217431002168310021704700BF6D
:100EC80070B500240D46134E134B2146A922304617
:100ED8002C711D6032F0EAF8C5F8054001F0E6F81B
:100EE80000F0F4FE3346A9210C4A0D48127803F8A5
:100EF800011B023A02600B480B4A04700B4813604E
:100F0800047000F069FF3146BDE87040A82000F089
:100F1800ABBF00BF40230021F0230021783100211E
:100F2800FC230021763100213C2300217931002166
:100F38002DE9F04F0026374ADFF8DCA03749384B57
:100F48001568DAF8002091F800801968354B002AF6
:100F58003746304693F800C0DFF8CC901CDB02EB34
:100F6800820305EB83035C78FCB993F90C4093F991
:100F78000DE0A4B244EA0E440C6042B35B78CBB9EE
:100F880001264FF0000C3746013A01302A2803D0D9
:100F9800002A01F10401E2DA0FB1CAF8002016B103
:100FA800204B83F800C0BDE8F08F022C13D0012C31
:100FB80029D062B10CF1010C5FFA8CFCBCFBF8F390
:100FC80008FB13C3DBB2002BDAD00126DDE70127CB
:100FD8004FF0FF32D9E71C7C03EB4C0E240704F0DA
:100FE800405BBEF80840BEF804E0C4F30D044BEAC9
:100FF800040493F811B009EA8E3E44EA8B7444EA7B
:101008000E040C60B9E7B3F804E09C7944EA0E24B6
:101018000C60B2E7F4230021FC2300217731002182
:101028003C2300217631002100C0FF0F70B5204D10
:101038004FF4A06001F00CFD2B680BB1FFF778FFAF
:1010480001F0E0FA1B4E01F04FFD4FF4287001F05B
:10105800FFFC01F03FFB01F047FD45F6902001F051
:10106800F7FC00F033FE01F0CDFA01F03DFD3378D6
:10107800012B1CD900244FF4A06001F0E9FC2B6877
:101088000BB1FFF755FF01F025FB01F02DFD45F6EB
:10109800A02001F0DDFC00F019FE01F0B3FA01F028
:1010A80023FD33780134E4B2013B9C42E3DB70BD9D
:1010B800F02300217A3100212DE9F0474FF0000894
:1010C800324A334B334E344F1578344A1C68C14684
:1010D800C4463368106897F800E017E003EB830212
:1010E80004EB8202517819BB0168090C517301683D
:1010F8001173C3B14FF001084FF0000EC146013B18
:101108000CF1010CBCF12A0F02D00430002BE5DAF7
:10111800B9F1000F00D03360B8F1000F01D087F8A3
:1011280000E0BDE8F0874FF001094FF0FF33E7E733
:10113800022917D001290FD0002BF4D00EF1010E8F
:101148005FFA8EFEBEFBF5F205FB12E2D2B2002A70
:10115800D0D04FF00108D3E70168090A91800168EF
:101168009171E9E7016802EB4E0A41F38D31AAF863
:101178000410016841F30D01AAF808100168C1F3D1
:10118800017111740168890F5174D5E77731002115
:10119800F8230021FC230021793100213C23002180
:1011A8002DE9F04106464FF4A06001F051FC01F032
:1011B80029FA01F099FC4FF4247001F049FC01F080
:1011C80089FA01F091FC45F6A02001F041FC00F0FD
:1011D8007DFD01F017FA737B002B3DD001F084FCF4
:1011E8001F4F3B78012B29D90024DFF878804FF472
:1011F800A06001F02DFCD8F800504DB100F032FF8E
:1012080040B32B79002B18BF03232B71FFF754FF32
:1012180001F060FA01F068FC45F6A02001F018FC26
:1012280000F054FD01F0EEF9737B4BB101F05CFC6A
:101238003B780134E4B2013BA342D8DCBDE8F0813D
:1012480000F06AFD3B780134E4B2013B9C42CEDBFE
:10125800BDE8F0810323D8E700F05EFDC0E700BFDA
:101268007A310021F023002110B504468088A0F5CA
:10127800F87001F0EDFB01F051F901F073FA01F09B
:1012880033FC2046FFF78CFF4FF4A06001F0E0FB31
:10129800124B1C6834B100F0E5FED0B9032323716A
:1012A800FFF70AFF01F0FEF901F01EFC0C4B0D4A96
:1012B8001B78023B1360FFF7B9FE4FF4A06001F002
:1012C800C7FB01F09FF901F0D5F9BDE8104001F026
:1012D8000BBC2379002B18BF0323E0E7F023002180
:1012E80078310021FC23002110B504468088A0F540
:1012F800F87001F0ADFB01F011F901F0D3F901F03C
:10130800F3FBFFF793FE4FF4A06001F0A1FB01F09F
:1013180079F901F027FA01F0E7FB104B104A1B7826
:101328002046023B1360FFF73BFF4FF4A06001F03B
:101338008FFB0C4B1C6834B100F094FE48B90323B2
:101348002371FFF7B9FE01F095F9BDE8104001F0EF
:10135800CBBB2379002B18BF0323F1E77831002199
:10136800FC230021F023002170B5044608461546E9
:101378001E4601F007FC2178A9B189000231637883
:101388000BB101EB8301A3781BB100FB03F301EB65
:101398008301064A4B1EDB08A2FB03235B080133CB
:1013A80031602B7070BD0221E9E700BF1986611812
:1013B80010B5044682B0007B01F0E4FB84461D4A68
:1013C8001D491E4B106809786A4683F800C0FEF76D
:1013D800B5FF207B01F0D6FB9DF8002042B39200B8
:1013E80002329DF801300BB102EB83029DF8023006
:1013F8001BB100FB03F302EB8302531E1049DB0809
:10140800A1FB03130F4810495B0801330260042055
:101418000B70FEF767FF0C220021044631F046FEF0
:101428000A490B4A0B4BC4E90112236002B010BDF4
:101438000222D6E7F42300217831002177310021F8
:1014480019866118EC2300217A310021C90E0001A8
:10145800C50E00017112000110B5044682B0007B70
:1014680001F090FB84461D4A1D491E4B10680978FF
:101478006A4683F800C0FEF761FF207B01F082FB1B
:101488009DF8002042B3920002329DF801300BB162
:1014980002EB83029DF802301BB100FB03F302EB61
:1014A8008302531E1049DB08A1FB03130F481049A0
:1014B8005B080133026004200B70FEF713FF0C2257
:1014C8000021044631F0F2FD0A490B4A0B4BC4E9EE
:1014D8000112236002B010BD0222D6E7F4230021D6
:1014E800783100217731002119866118EC23002119
:1014F8007A310021C90E0001C50E0001F112000168
:1015080010B4054A4968054B11604268044C0178DB
:101518001A60217010BC7047F8230021F4230021C1
:1015280078310021F0B5B0F90030B0F90620B0F9F3
:101538000440B0F902501C441544B0F90830B0F921
:101548000A2023442A44B0F90C40B0F90E50234431
:101558001544B0F91040B0F912201C442A44B0F9DF
:101568001430B0F916501C441544B0F91830B0F9CD
:101578001A2023442A44B0F91C40B0F91E502344D1
:1015880015440B600D61B0F92440B0F92060B0F942
:101598002220B0F926702644B0F928401744264482
:1015A800B0F92A20B0F92C403A443444B0F92E70EE
:1015B800B0F930603A443444B0F93270B0F934606C
:1015C80017442644B0F93620B0F938401744264469
:1015D800B0F93A20B0F93C403A443444B0F93E609E
:1015E8004C6032444A61B0F940702344B0F9444039
:1015F800B0F942602744B0F94840B0F946C02744E2
:10160800B0F94C40B444B0F94A603C44B0F9507069
:101618006644B0F94EC03C44B0F954706644B0F921
:1016280052C02744B0F95840B444B0F95660274432
:10163800B0F95C40B444B0F95A603C44B0F95E700B
:1016480066443E448C608E61B0F960E02344B0F992
:101658006440B0F966C0B0F96270A644B0F9684059
:101668006744A644B0F96AC0B0F96C40BC447444FD
:10167800B0F96E70B0F970E0BC447444B0F972709F
:10168800B0F974E06744A644B0F97840B0F976C080
:10169800A644B0F97C4067447444B0F97AC01B1979
:1016A800B0F97E0048BF1F335B11BC442A44604434
:1016B8000B8493191B1848BF1F335B11CC60C8619A
:1016C8004B84F0BD10B5B0F904C0B0F90030B0F9E2
:1016D80006406344B0F908C0B0F902E09C44B0F990
:1016E8000C30A644B0F90A409C44B0F91030A64426
:1016F800B0F90E406344B0F914C07444B0F912E074
:101708006344B0F918C07444B0F916E09C44B0F9C9
:101718001A30A6449E44B0F91E30B0F91C00734438
:1017280010EB0C0048BF0730002BB8BF0733C010C0
:10173800DB100880138010BD70B500EB8000C0EB93
:10174800C006106801EB8101801B1446C1EBC1057E
:1017580031F08BFC034660682360801B31F085FC08
:101768000346A0686360801B31F07FFC0346E06895
:10177800A360801B31F079FC03462069E360401BBD
:1017880031F073FC034660692361401B31F06DFC46
:101798000346A0696361401B31F067FC0346E069BA
:1017A800A361401B31F061FC23692268E061934228
:1017B8006DDBC3EB431302EB420203EB82025311CE
:1017C80065696268AA425ADCC5EB451502EB42021C
:1017D80005EB82025511A169A268914247DBC1EB72
:1017E800411102EB420201EB82025111E268904280
:1017F80035DAC2EB421200EB400002EB80025211D4
:10180800AB422DBF184628461E462E4688422B441A
:1018180023D38E4228BF0E4690420B441BD39642D8
:1018280028BF1646134494F824101E4A9B0852F801
:10183800211040F25C52801B01FB00F003FB02F216
:1018480082422CD340F20A3202FB03F383422CBFBC
:101858000020012070BD1046E4E70846DCE702EBF3
:101868004202C0EB401000EB82025211C8E7C2EB03
:10187800421201EB410102EB81014911B6E7C2EBCB
:10188800421205EB450502EB85056D11A3E703EB55
:101898004303C2EB421202EB83035B1190E7022081
:1018A80070BD00BFCC35030170B50546104616461D
:1018B8000C462BF017FB034630461E462BF0F0FA79
:1018C800B5F90010B4F900C000FB01F20CFB00F3FD
:1018D80006FB1C2206FB0133D213DB132A8023806C
:1018E80070BD00BF41F2C703404201FB00F003FB9B
:1018F80000F00028BCBF00F5FF3000F2FF104014D4
:10190800704700BF00EB800300EBC300400000B24B
:10191800704700BF0246B0F900104FF0000C00F508
:101928009E7005E00432A3F5C97382429C440FD02F
:101938000B46B2F90410CB1AC92BF3DC13F1C90F0B
:1019480002F10402B8BF03F5C97382429C44EFD187
:1019580047F6574000FB0CF08012704770B50446FC
:1019680000238A88488886B012010001ADF8022059
:101978000A89ADF80000C88812010001ADF80620F8
:101988004A89ADF8040025780888097C1201CDE958
:1019980003330593ADF80820ADF80A008DF80C1054
:1019A80075B96678DEB9A67846BBE678002E34D1DC
:1019B8002679002E40D105F10F00000906B070BD50
:1019C800224618466946FEF7D1FC00FB05F5237848
:1019D800BDF80020667802FB0355002EE3D02246AE
:1019E80069460120FEF7C2FC6378BDF8002002FBBF
:1019F800035500FB0655A678002ED6D02246694628
:101A08000220FEF7B3FCA378BDF8002002FB0355C3
:101A180000FB0655E678002ECAD022466946032008
:101A2800FEF7A4FCE378BDF8002002FB035500FB99
:101A380006552679002EBED0224669460420FEF7B8
:101A480095FC2379BDF8002002FB035500FB0655E1
:101A580005F10F00000906B070BD00BFF8B50024FD
:101A680000250C4F1646C7E9004505460C461046AA
:101A780000F07CFF32462978686800F0C1FCE36812
:101A8800227A6168207801F071F80023024A3B72DB
:101A98005373F8BDB8080021002400212DE9F04F48
:101AA8001D461378D2F814C0012BD2F818E083B081
:101AB80002D06346F4469E46B2F802809788D688DC
:101AC80014895389DFF89CA14FEA08183F013601B1
:101AD8001B012401AAF80080AAF80270AAF8046081
:101AE800AAF80640AAF808305378DFF87C818AF80B
:101AF8000B3013785D4E8AF80A30137C5C4F8AF8F5
:101B08000C30D368C6F800E0C8F800305378C7F83E
:101B180000C02BB1012B03D0032003B0BDE8F08F28
:101B2800DFF850B1DFF85091CBE90001017889F86E
:101B38000030D9B10024224607E0EDD8DBF80000D8
:101B480001340178E2B2914210D9D0F804C002EB16
:101B580082030CEB83035B78042BEED101398A42B4
:101B6800DAD1DBF80410FFF7CBFCE7E7007A3D4950
:101B7800FEF7C0FBDBF800306A4619785868FEF7B4
:101B8800DDFB9DF80040002C5ED19DF801B0BBF153
:101B9800000F4BD19DF802B0BBF1000F38D19DF872
:101BA80003B0BBF1000F25D19DF804B0BBF1000FC5
:101BB80012D1204600F068FF3A68D8F8001099F86A
:101BC80000003368FEF778FA2946264A294803B008
:101BD800BDE8F04FFEF786BA6A4604202149FEF7B1
:101BE800C5FBBAF800209DF8043002FB034400FB53
:101BF8000B44DEE76A4603201A49FEF7B7FB9DF857
:101C08000330BAF8002002FB034400FB0B44CBE787
:101C18006A4602201349FEF7A9FB9DF80230BAF87C
:101C2800002002FB034400FB0B44B8E76A4601208E
:101C38000C49FEF79BFB9DF80130BAF8002002FB27
:101C4800034400FB0B44A5E76A4600200549FEF75C
:101C58008DFB00FB04F49DF80030BAF8002002FB6D
:101C6800034492E700240021202400211C240021A1
:101C780018240021B80800217B31002101230249E2
:101C8800024A0B7253737047B808002100240021E0
:101C98000122014BDA6070470080004110B5064C04
:101CA80002E000F0E7FE18B9D4F86039012BF8D14A
:101CB8000122014B1A6110BD008000410022024B35
:101CC800C3F80421704700BF008000410022024B86
:101CD800C3F80C21704700BF008000410022024B6E
:101CE800C3F8FC2F704700BF0080004110B5094CB5
:101CF80002E000F0BFFE18B9D4F80431002BF8D088
:101D08000022044BD3F80401C3F80421801A18BF39
:101D1800012010BD0080004110B5074C02E000F022
:101D2800A9FE18B9D4F80C31002BF8D00022024BC8
:101D3800C3F80C2110BD00BF0080004110B5074C4E
:101D480002E000F097FE18B9D4F80031002BF8D063
:101D58000022024BC3F8002110BD00BF00800041E3
:101D68000122014B9A60704700800041194BD3F85B
:101D78008C2522F07062C3F88C25D3F88425D3F81B
:101D88008C15120302F070620A43C3F88C25D3F84D
:101D9800882522F00062C3F88825D3F8882542F008
:101DA8000062C3F88825D3F8902522F4E022C3F80E
:101DB8009025D3F8902542F48022C3F89025D3F8D3
:101DC800902522F48012C3F89025D3F89025C3F803
:101DD8009025704700800041114BD3F88C2522F0E4
:101DE8007062C3F88C25D3F88C2542F00072C3F8D2
:101DF8008C25D3F8902522F48012C3F89025D3F8C7
:101E0800902542F48012C3F89025D3F8882522F053
:101E18000062C3F88825D3F88825C3F88825704759
:101E28000080004110B40E4C090401F4E021DDF8F3
:101E380004C004EA024241EAC3310405094B44F0F4
:101E4800060441F40061C3F850C9C3F85409C3F843
:101E58001019C3F81429C3F81C4910BC704700BFF7
:101E68000000FF0F00800041F0B40022032408277F
:101E780040F25B650D4B0E4E40F0007040F4403070
:101E8800C3F83021C3F81475C3F81805C3F83445EE
:101E9800C3F83C65C3F83855C3F81045C3F8442A5D
:101EA800C3F8302AC3F80415F0BC7047008000411D
:101EB80055555500014BC3F808057047008000418F
:101EC800022809D0074B1B7833B1012B03D1042218
:101ED800054BC3F8102570470322034BC3F81025A0
:101EE800704700BF7C31002100800041024BD3F8CD
:101EF8004004C0F3003070470080004110B42B4B01
:101F080000F516609B682A4A03FB00F082FB00324A
:101F180063284FEAE073C3EB621234DD254B984225
:101F28001ADB4FF4FE004FF07F0C234B234C24495F
:101F3800D31A2360D1F88C25224C22F47F02C1F8F1
:101F48008C25D1F88C35034343F00043C1F88C3518
:101F5800A4F800C010BC70471B4902F5747081FBDF
:101F68000031C3170144C3EBA12343F609511804F8
:101F78000FFA83FC01FB03F3002BB8BF073300F40F
:101F88007F00DB10D2E71049A2F5747481FB04319D
:101F9800E3172144C3EBA1230C498842E5DA4FF447
:101FA80000006FF07F0C0A4BC0E700BF58240021E7
:101FB8001F85EB51C0F47B01EEC8030068240021A3
:101FC800008000416A31002103F039865D1081FEEE
:101FD800702FFCFF014BD868704700BF58240021C0
:101FE800014B1868704700BF68240021014B5868EE
:101FF800704700BF6C240021014B1878704700BF60
:102008006C2400210B4B0C4A93F90010D2F84004C1
:102018007F2901D0C10403D4022210465A707047A8
:10202800D2F8502412F4F81218BF012210465A7040
:10203800704700BF6C24002100800041054BD3F895
:102048000C35DBB2F43B082B9ABF034AD05600206C
:10205800704700BF00800041DC350301004870472D
:1020680024240021024BD3F8000400F0010070473B
:10207800008000410B4B0021D3F81C21012A04D019
:102088007F22094B59601A707047D3F84825C3F866
:102098001C11D3F82414044B02F07F0259601A7003
:1020A800704700BF008000416C2400210122024BD0
:1020B800C3F80827704700BF0080004130B40020F3
:1020C80008254FF4C1240122074B0849C3F85019C9
:1020D8000749C3F85459C3F81049C3F81409C3F899
:1020E8001C195A6430BC7047008000412424002128
:1020F800060080002DE9F84F04460F4615460021DA
:1021080034225A481E4630F0D1FF4FF0000C4FF0F1
:10211800010BE646564B5749A3F800C0564B574AA1
:10212800C3F800C0564BDFF85C81DFF85CA11C7077
:10213800DFF8589101F1080303C982E803000FCBC7
:102148008AE80F00C8F8FCCFC8F8FCBF4FEACE0CED
:102158000CF1FF7C0CF5803CDCF800330EF1010E2D
:1021680003EA0903434504D1DCF80033DCF804230F
:102178001A60BEF1200FE9D1002C70D10322414B27
:10218800C3F81025DFF8FC800020C8F80C7500F0B3
:10219800E9F8330EC8F824352B0E13F0800F4FEAF8
:1021A8000626C8F81C6518BF4FF00A0CC8F8283571
:1021B80008BF4FF0050C231E18BF01232D02C8F8D5
:1021C8002055012204274FF44036022510243049B7
:1021D8001B06002043F4802381F800C0C8F830258E
:1021E800C8F82C75C8F81435C8F81865C8F8041567
:1021F800C8F80059D8F8183923F47003C8F8183902
:10220800D8F8183923F0F853C8F81839D8F820390D
:1022180023F44033C8F82039D8F82039C8F82039D1
:10222800C8F80827C8F80042D8F8503623F4407395
:10223800C8F85036D8F8503643F40073C8F850360A
:10224800D8F8503623F00103C8F85036D8F850367D
:102258001343C8F85036C8F83405BDE8F88F012C88
:1022680090D10422074BC3F810258BE724240021C2
:102278006A31002164350301682400216C2400219F
:102288007C310021008000415824002100F0FFFF2C
:102298007D31002110B4184C94F901308B4213DDC4
:1022A8006FF000439A4261700CD0642102FB01F187
:1022B80000F5166391FBF3F320706260A36062B9C6
:1022C8005042E06010BC70477F29FBD06FF000439C
:1022D80061689942E9D010BC7047084B0849002A48
:1022E80001FB003082EAE273A3EBE273B0FBF3F088
:1022F800E7DC0246E4E700BF5824002100180D8FF0
:1023080040420F0008B5064B587800F041F800220B
:10231800044B0549C3F80C074860C3F8082708BDF3
:1023280058240021008000416C240021014B58787A
:1023380000F05CB85824002108B5064B93F9010059
:102348007F2805D0C0B200F03BF8C0F10A0040B2C7
:1023580008BD00BF58240021014B93F901007047C4
:1023680058240021014B1870704700BF7E310021AE
:10237800064B93F90030C01A1D2803DD462803DCFC
:102388001E38704700207047282070477E31002192
:10239800094B93F90030C01A1D2806DD462807DCD2
:1023A800064B1E3853F8200070474FF400707047F2
:1023B80040F23770704700BF7E310021E8350301D5
:1023C800084B93F90030C01A1D2806DD462806DCA4
:1023D800054B184410F81E0C7047142070473C2019
:1023E800704700BF7E3100218C36030108B5FFF726
:1023F800BFFF024B53F8200008BD00BFB8360301E9
:1024080006290B46A8BF062310B40F4C2370B9B198
:102418000E490478012B0C6012D04478022B4C60D2
:102428000ED08478032B8C600AD0C478042BCC603F
:1024380006D0062B047908BF43790C6108BF4B61AD
:10244800034B1A6010BC70477F31002178240021AB
:10245800742400211B4B1A787AB3012310B41A484C
:102468001A4904689A4203FA04F4C1F804451FD0D3
:102478004468022A03FA04F4C1F8044518D08468B1
:10248800032A03FA04F4C1F8044511D0C468042AE5
:1024980003FA04F4C1F804450AD00469052A03FACA
:1024A80004F4C1F8044503D042699340C1F80435E7
:1024B8000022074B1A6010BC70470022044B1A60B8
:1024C800704700BF7F3100217824002100F00041CF
:1024D80090240021012306480649D0E9002003FA88
:1024E80002F28340C1F80825C1F80835704700BFDB
:1024F8007824002100F00041012306480649D0E96C
:10250800002003FA02F28340C1F80425C1F804351B
:10251800704700BF7824002100F0004110B4094B37
:1025280009491A680868094B02F5E0741B680C60D1
:1025380008B10021016043F00043C2F8C03110BC6B
:10254800704700BF742400219424002178240021BE
:10255800074A084B116808481B68106009B1002237
:102568000A60064A43F00043C2F88431704700BF4E
:1025780094240021782400218481004100800041B6
:10258800002130B4194B1A68196002B11160184B58
:102598000020D3E900349C421DD0164A156810600B
:1025A800154AF5B111682860106019B100229C42E3
:1025B8000A6005D0002111480268016002B111606B
:1025C80001220F4902FA03F3A240C1F80835C1F805
:1025D800082530BC7047084A116810600029E5D109
:1025E800EEE7116815600029E0D1E3E79C2400219B
:1025F80078240021A024002194240021982400217B
:1026080000F000410021034B1A68196002B1116003
:10261800704700BF9C2400210021034B1A681960F1
:1026280002B11160704700BF9C24002110B5034C13
:10263800236813B198470023236010BD902400211C
:1026480010B4094B09491A680868094B02F1C0041B
:102658001B680C6008B10021016043F00043C2F818
:10266800C03010BC704700BF742400219C24002196
:1026780078240021074A084B116808481B68106035
:1026880009B100220A60064A43F00043C2F89030BC
:10269800704700BF9C2400217824002190800041CD
:1026A80000800041074A084B116808481B68106001
:1026B80009B100220A60064A43F00043C2F880309C
:1026C800704700BF9C2400217824002180800041AD
:1026D80000800041074A084B116808481B681060D1
:1026E80009B100220A60064A43F00043C2F8883064
:1026F800704700BF9C240021782400218880004175
:1027080000800041074A084B116808481B681060A0
:1027180009B100220A60064A43F00043C2F8883033
:10272800704700BF9C240021782400218880004144
:1027380000800041074A084B116808481B68106070
:1027480009B100220A60064A43F00043C2F8883003
:10275800704700BF9C240021782400218880004114
:1027680000800041074A084B116808481B68106040
:1027780009B100220A60064A43F00043C2F88430D7
:10278800704700BF9C2400217824002184800041E8
:102798000080004110B500F0DBF91B4A1B49536863
:1027A80012680968934201F5E27012D0184A146859
:1027B8001060ECB943F00043C1F8C431154916481C
:1027C8000A6808600AB100211160144AC2F8803012
:1027D80010BD134A146810608CB1002243F0004306
:1027E8002260C1F8C4310F490B480A680860E9E75C
:1027F800002243F000432260C1F8C431DEE743F011
:102808000043C1F8C431EEE7782400217424002184
:1028180098240021A02400218080004100800041EC
:10282800942400219C24002110B500F091F91B4A42
:102838001B49536812680968934201F5E27012D087
:10284800184A14681060ECB943F00043C1F8C43169
:10285800154916480A6808600AB100211160144A2F
:10286800C2F8843010BD134A146810608CB100227D
:1028780043F000432260C1F8C4310F490B480A688D
:102888000860E9E7002243F000432260C1F8C43140
:10289800DEE743F00043C1F8C431EEE778240021B5
:1028A8007424002198240021A02400218480004160
:1028B80000800041942400219C240021074A084BF1
:1028C800116808481B68106009B100220A60064AAE
:1028D80043F00043C2F8C430704700BF9C24002175
:1028E80078240021C480004100800041014B024A45
:1028F8001A60704790240021C520000110B4134AC3
:10290800134CD2E900138B420CBF124812480168DD
:10291800046009B100200860104843F00043C0F883
:102928008431D2E900230E4993420CBF0D4C0E4C62
:102938000968226801F1C80020600AB1002010600F
:1029480043F00043C1F8C83010BC70477824002118
:1029580084810041942400219824002100800041B2
:10296800742400219C240021A0240021014B18601C
:10297800704700BFA424002138B5134C2368E3B185
:102988000022032401211148114DC3F808450260B3
:10299800C3F81025D960C3F84025C3F84425C3F807
:1029A8004825C3F84C25C3F84021C3F84421C3F88F
:1029B8004821C3F84C212A7038BD7846714600F08A
:1029C800F3F82368DCE700BFA4240021B024002129
:1029D800803100210022044B1B68C3F84021C3F852
:1029E8004421C3F848217047A42400210022012172
:1029F8000A4B0B481B680270D960C3F84025C3F81E
:102A08004425C3F84825C3F84C25C3F84021C3F82A
:102A18004421C3F84821C3F84C217047A42400215D
:102A2800803100210121044B044A1B685960D3F806
:102A380040351360704700BFA4240021B024002152
:102A4800024B1B68D3F84005704700BFA42400213F
:102A5800034B1B68D3F840251044C3F84005704762
:102A6800A42400210122024B1B681A60704700BF92
:102A7800A4240021034B1B68D3F84C01003818BF6D
:102A880001207047A4240021014B1860704700BF43
:102A9800A8240021064B00011B6829B1054A1268C9
:102AA800801AC3F84C057047C3F84C05704700BF3F
:102AB800A4240021A8240021084B1A786AB901200F
:102AC80010B40749074A09681468D1F84C251870EA
:102AD8002244C1F84C2510BC704770478031002152
:102AE800A4240021A824002110B5084C236802E082
:102AF800D3F84C211AB9D3F84021002AF8D0FFF7AF
:102B080095FD00222368C3F8402110BDA4240021AC
:102B18000022044B04491B68D3F84805C3F848252C
:102B280008607047A4240021AC240021064B1868D3
:102B380048B1064B1B68D3F848251AB1D3F8483575
:102B4800181A704710467047AC240021A4240021AD
:102B58000022054B1B68C3F84421D3F840250244E2
:102B6800C3F84425704700BFA4240021102AA8BF39
:102B78001022014B1A70704781310021704700BF45
:102B8800704700BF07280DD8DFE800F00A080604E0
:102B98000806040404207047032070470220704789
:102BA8000120704700207047024BC3E9000100BEB6
:102BB800704700BFB42400213449354A70B580EA13
:102BC800500380EA900480EAD00002EA50020840EC
:102BD800104401EA530203F055331A4402F0333328
:102BE800920800F0333C02F033328008134400F0BE
:102BF8003330604403F00F321B0900F00F3C03F040
:102C08000F3300091A4400F00F30844402F0FF101B
:102C1800120A02F0FF12024401EA540321400B4455
:102C280090B200EB12409A0802F0333203F03333CB
:102C380013441A0902F00F3203F00F3313440CF057
:102C4800FF151A0A4FEA1C2C02F0FF120CF0FF1CA9
:102C580003F0FF131344AC4440001FFA8CF59EB2F6
:102C68001F3805EB1C4506EB134630F0FEF9044609
:102C780070001E3830F0F9F9034668001D381C440E
:102C880030F0F3F9E4B22044C0B270BD5555551583
:102C98005555550510B50146304C006880EA40305E
:102CA80080EA504080EA4010C34300EA400203EA49
:102CB800430302EA420203EA430302EA420203EA46
:102CC800430302EA420203EA430302EA420203EA36
:102CD80043034FEAE06C02EA420203EA43038CEA48
:102CE800A06C13430CF1FF3E2ED180EA600253081A
:102CF80003F0553302F0553213449A0802F0333288
:102D080003F0333313441A0902F00F3203F00F3380
:102D180013441A0A02F0FF1203F0FF13134403EBE3
:102D280013431EEA0C0F03F0FF030DD080EA0402E0
:102D3800182B1FFA80FC02F1FF3E05D8BCEB104FA0
:102D480004D01EEA020FA9D1086010BD80EA102342
:102D580013F0FF1FF5D1086010BD00BFD6BE898EE5
:102D680000487047A837030108B5044A03460449D8
:102D78000448FDF79FF9044B187008BDBC240021D6
:102D8800E4240021D8240021F0240021FDF790B983
:102D98002DE9F0470546894C894E94B02022002140
:102DA800204630F083F96B781C220021304663708E
:102DB80030F07CF92B780DF1040833702B7C4046F9
:102DC8007370D5F812304FF0090AC6F802306B8BD1
:102DD8007381D5F81630C6F80630AB68F3602B7BE4
:102DE80033746B680193FFF755FF8146FFF7E4FEE4
:102DF80007464046FFF74EFF0446FFF7DDFE0AF19F
:102E0800FF33B8423CBF0746A14613F0FF0AF0D192
:102E18004046C6F81490FFF73DFF8246FFF7CCFE08
:102E2800092481464046FFF735FF0746FFF7C4FEF1
:102E3800013C48453CBF8146BA4614F0FF04F1D135
:102E4800C6F818A06F684B2240465E4930F021F959
:102E58003B460DF14E02C8F1010C83EA433383EA85
:102E680053430CEB020083EA4313B3FBF0F100FB7E
:102E7800113192F800E018F8010008F801E002F8B2
:102E880001094245E9D1504BDFF838E1A3FB07239C
:102E9800DB0803EB8303C3EB031314AAFB1A1344E5
:102EA8000021724613F84CCC03E04A2B01F10101D2
:102EB8007FD012F8010B0B468445F6D11EF801C0ED
:102EC80000214F20404A03F119083233A2FB08A918
:102ED800A2FB03A2D2084FEAD90902EB8202C2EB95
:102EE800021209EB89099B1AC9EB09191EF803306C
:102EF800A8EB0909DFF8D4801EF8092088F82830E3
:102F0800334B88F8142088F8011088F8151088F8D1
:102F1800291018806B7888F800C0002B44D0012B4A
:102F280038D10220294B0DF1030203F2DC5C12F8C0
:102F3800011F83F83D0083F83C1014339C45F6D1FB
:102F4800042388F81936204B0137A3FB0723DB0835
:102F580003EB8303C3EB0313FF1A14AB3B4413F8CF
:102F68004C3C1C4F40F22C62184988F818363846F9
:102F780030F08FF84F22184B3178C3F804801A705C
:102F88001972164B1A705F602B7F3BB9204614B03C
:102F9800BDE8F0872B7F0324002BF7D0FEF76EFEE9
:102FA800204614B0BDE8F0872B7B002BF2D101201E
:102FB800B8E74FF0040C002382E700BFF02400219B
:102FC800BC2400215C370301B5814E1B102500216C
:102FD8006C3100213C2B0021D8240021E42400215D
:102FE80010B5012388B0EC46072100228DF8103077
:102FF800084C094BCDF81240CDF81630ADF81A1030
:103008008DF81C200FC88CE80F006046FFF7C0FE43
:1030180008B010BD50000A003C0028002DE9F0431C
:1030280005468BB01C22D5E90147002103A82E7B59
:1030380095F8009030F03AF801238DF80D30072309
:10304800ADF816302C4B01A8CDF80E302B4B069757
:103058008DF81C60CDF812308DF80C900194FFF7B4
:1030680019FE0746FFF7A8FD4FF00908064601A814
:10307800FFF710FE0446FFF79FFD08F1FF33B0424B
:103088003CBF0646274613F0FF08F0D101A8089771
:10309800FFF700FE0746FFF78FFD4FF009080646C9
:1030A80001A8FFF7F7FD0446FFF786FD08F1FF3397
:1030B800B0423CBF0646274613F0FF08F0D1032272
:1030C8006B780997019263B94B238DF8053001237A
:1030D80003A901A88DF80830FEF740FC0BB0BDE845
:1030E800F083012B03D14B238DF80630EFE74046E0
:1030F8000BB0BDE8F08300BF50000A003C00280078
:103108002DE9F04F40F2C45283B0002106462FF05B
:10311800CDFF4FF0004300229E4D86F8BA256B6123
:103128006FF000432A78697886F8B4259A4A86F8B9
:10313800A015107CAB61FFF725FD47F67F73974C10
:10314800DFF85CC294F90C10A6F8B6357F299CF913
:103158000C301CBFC9B286F8B61501907F2B94F9C4
:1031680020001CBFDBB286F8B7358142C8BFC1B2A8
:103178009CF92000C8BF86F8B6158342C8BFC3B201
:1031880094F93400C8BF86F8B7358842B8BFC1B2D1
:103198009CF9340094F90D20B8BF86F8B61598420A
:1031A800B8BFC3B286F8B82592B2B8BF86F8B735AB
:1031B800134400229CF90D70C6F8BC2586F8B97531
:1031C800BFB239440B445B1086F8B535754B86F8A9
:1031D800C0251B88013B03EB830304EB83031B79A6
:1031E800032B09D196F8BA25022A98BF86F8BA3572
:1031F800EB6943F00403EB61684C4FF00008DFF81B
:10320800A0A104F2DC5B07E0012B00F08F801434EE
:10321800A3450AF1140A73D094F83D30022B00F04C
:10322800C380032BF0D1B4F9440000F00FFA94F8EE
:103238003C3046F82300B4F9460006EB830900F059
:1032480005FAC9F84001BAF9440000F0FFF9C9F8D5
:103258008002BAF9460000F0F9F9C9F8C00394F8F9
:1032680048307E2B16D89AF848307E2B12D8226C1C
:10327800DAF84010D6F8BC358A4296BF5B189B181E
:103288009B1A96F8C02588BF5B1AC6F8BC35531C34
:1032980086F8C03594F84930022B00F0EA806B6953
:1032A800B4F94400B4F946109842C4BF03466861B3
:1032B8009942C8BF0B46BAF94420C8BF69619A420F
:1032C800C8BF1346BAF946C0C8BF6A619C45AB6916
:1032D800C8BFC5F814C09842BCBF0346A86199424C
:1032E800BCBF0B46A9619A42BCBF1346AA619C4564
:1032F8008DDA1434A345C5F818C00AF1140A8BD125
:10330800AB6913F5AF6F03DB6B69B3F5AF6F0ADD1C
:1033180096F8BA35012B9CBF022386F8BA35EB69BB
:1033280043F02003EB6103B0BDE8F08F94F83C2034
:1033380006EB820346F82280C3F84081C3F88082F6
:10334800C3F8C08394F842307E2B3FF660AF9AF8FA
:1033580042307E2B3FF65BAF4FF6FF71B4F840303A
:103368008B423FF454AFBAF840208A423FF44FAF43
:1033780009490878D6F8BC1501280CBF9B1AD31A3E
:103388000B44C6F8BC3596F8C035013386F8C0350D
:103398003DE700BFF0240021BC24002110250021B6
:1033A8003C2B00216C310021019B94F83C70CBB17F
:1033B800B4F9400000F04AF946F82700B4F944008F
:1033C80000F044F906EB8709C9F84001BAF9400052
:1033D80000F03CF9C9F88002BAF9440000F036F967
:1033E800C9F8C00394F84D20F31983F800259AF81A
:1033F8004D2083F8502594F84C30022B4DD0012BEA
:1034080003D1EB6943F01003EB619AF84C30022BBF
:103418003BD0012B03D1EB6943F08003EB616B696F
:10342800B4F94000B4F944109842C4BF0346686137
:103438009942C8BF0B46BAF94020C8BF69619A4291
:10344800C8BF1346BAF944C0C8BF6A619C45AB6996
:10345800C8BFC5F814C09842BCBF0346A8619942CA
:10346800BCBF0B46A9619A42BFF641AF1346AA6199
:103478003DE796F8BA351BB94FF0010386F8BA351F
:10348800EB6943F00803EB6109E796F8BA3563B1D5
:10349800EB6943F04003EB61C1E796F8BA357BB1BD
:1034A800EB6943F00803EB61AFE74FF0010386F8DF
:1034B800BA35EB6943F04003EB619AF84C30A8E762
:1034C8004FF0010386F8BA35EB6943F00803EB6166
:1034D80094F84C3093E700BF80F0004002E000BF52
:1034E80081F0004142001FBF5FEA410392EA030FE7
:1034F8007FEA226C7FEA236C6AD04FEA1262D2EB31
:103508001363C1BFD218414048404140B8BF5B4235
:10351800192B88BF704710F0004F40F4000020F0CE
:103528007F4018BF404211F0004F41F4000121F0E4
:103538007F4118BF494292EA030F3FD0A2F101022E
:1035480041FA03FC10EB0C00C3F1200301FA03F16C
:1035580000F0004302D5494260EB4000B0F5000F8F
:1035680013D3B0F1807F06D340084FEA310102F14E
:103578000102FE2A51D2B1F1004F40EBC25008BF00
:1035880020F0010040EA03007047490040EB0000CA
:10359800013A28BFB0F5000FEDD2B0FA80FCACF1CB
:1035A800080CB2EB0C0200FA0CF0AABF00EBC250F8
:1035B80052421843BCBFD0401843704792F0000FE6
:1035C80081F4000106BF80F400000132013BB5E739
:1035D8004FEA41037FEA226C18BF7FEA236C21D0AF
:1035E80092EA030F04D092F0000F08BF0846704714
:1035F80090EA010F1CBF0020704712F07F4F04D1E2
:10360800400028BF40F00040704712F100723CBFF4
:1036180000F50000704700F0004343F0FE4040F41E
:10362800000070477FEA226216BF08467FEA2363DC
:103638000146420206BF5FEA412390EA010F40F4C7
:10364800800070474FF0000304E000BF10F0004313
:1036580048BF40425FEA000C08BF704743F09643FA
:1036680001464FF000001CE050EA010208BF704715
:103678004FF000030AE000BF50EA010208BF70479C
:1036880011F0004302D5404261EB41015FEA010CB1
:1036980002BF84460146002043F0B64308BFA3F1A9
:1036A8008053A3F50003BCFA8CF2083AA3EBC2538B
:1036B80010DB01FA02FC634400FA02FCC2F12002AA
:1036C800BCF1004F20FA02F243EB020008BF20F0E1
:1036D8000100704702F1200201FA02FCC2F1200247
:1036E80050EA4C0021FA02F243EB020008BF20EA3C
:1036F800DC70704753B94AB9002908BF00281CBFBD
:103708004FF0FF314FF0FF3000F00CB8ADF1080C6E
:103718006DE904CE20F07CFCDDF804E0DDE902234D
:1037280004B07047704700BF2DE9F00791E8F8072B
:10373800B2E802105B1854EB0C04B2E802104D41D9
:1037480056EB0C06B2E802104F4158EB0C08B2E8F1
:10375800021059EB01095AEB0C0A80E8F80780417E
:103768000130BDE8F00770472DE9F00791E8F80748
:10377800B2E802105B1A74EB0C04B2E802108D4137
:1037880076EB0C06B2E802108F4178EB0C08B2E831
:10379800021079EB01097AEB0C0A80E8F8078041FE
:1037A8004042BDE8F00770472DE9F007524290E823
:1037B8007800B1E880071740DB1918EA020854EBD3
:1037C800080419EA020955EB09051AEA020A56EB38
:1037D8000A0678C090E87800B1E8800717407B4176
:1037E80018EA020854EB080419EA020955EB09051E
:1037F8001AEA020A56EB0A0678C080410130BDE891
:10380800F00770472DE9F007524290E87800B1E8D8
:1038180080071740DB1B18EA020874EB080419EA52
:10382800020975EB09051AEA020A76EB0A0678C05E
:1038380090E87800B1E880071740BB4118EA020811
:1038480074EB080419EA020975EB09051AEA020A79
:1038580076EB0A0678C080414042BDE8F007704721
:103868002DE9F00152424FF0040890E8300091E849
:10387800C000A31B1340E41AF618EB1B1340ED1A03
:10388800FF1830C0C0C1B8F10108EED1BDE8F001A1
:10389800704700BF00B592E8DC072DE9DC07B1E806
:1038A800805702B4A7FB02510A95A8FB020B09181E
:1038B8000020E7FB03105BEB000B00204041E9FB15
:1038C80002B00B91A8FB0351401800214941EAFBC3
:1038D80002011BEB050B0025E7FB04B56841002539
:1038E800E7FB0605694100256D41E8FB0615CDF8A3
:1038F80030B0A9FB03B689190026EAFB0316754107
:1039080000267641ECFB035610EB0B005FF0000B32
:10391800E8FB040B51EB0B015FF0000BE9FB041B08
:1039280055EB0B055FF0000BEAFB045B56EB0B064F
:103938005FF0000B5BEB0B0BECFB046B0D90ACFB2F
:103948000230059C2D180020EEFB02504641002055
:10395800E9FB04605BEB000B00204041EAFB04B08C
:103968005B180021E7FB04314D410021E8FB0451BD
:10397800069C4E410021E8FB04615BEB010B002132
:10398800E9FB04B1484100214941EAFB04010E93D7
:10399800A7FB0432079CB6180022E7FB04625BEB26
:1039A800020B0022E8FB04B250410022E9FB0402AA
:1039B800514100225241EAFB0412049CED180023F5
:1039C800E9FB04535E410023EAFB0463089C5BEBBC
:1039D800030B0023E7FB04B358410023E8FB04036F
:1039E80059410023E9FB04135A4100235B41EAFBD8
:1039F80004230F955DF8049B99E80006DDF8008024
:103A0800A9FB08541BEB040B0024EAFB08B4DDF8FF
:103A1800108060410024ECFB080461410024EEFBA7
:103A2800081462410024E9FB08246341002464412E
:103A3800EAFB0834DDF8048076190025EEFB0865FA
:103A48005BEB050B0025E9FB08B568410025EAFB9F
:103A58000805DDF8148069410025ECFB08156A416A
:103A68000025EEFB08256B410025E9FB08356C4174
:103A780000256D41EAFB08450F96DDF80880AEFB8E
:103A8800087680190026E9FB080671410026EAFB42
:103A98000816DDF8188072410026ECFB08267341F1
:103AA8000026EEFB083674410026E9FB08467541FE
:103AB80000267641EAFB0856DDF80C801BEB070B65
:103AC8000027ECFB08B778410027EEFB080779418F
:103AD8000027E9FB08177A410027EAFB0827DDF8E9
:103AE8001C807B410027ECFB08377C410027EEFB5C
:103AF80008477D410027E9FB08577E4100277F41A1
:103B0800EAFB086708B000BD2DE9F14F87B0FFF761
:103B1800C1FEDDF81C8008F1200888E8FF00FFBC22
:103B280087E87F08BDE8F08F00B591E84C57A2FB05
:103B380002410194A2FB034524190020E2FB065030
:103B48006D417F41641802940021E2FB0801A3FB48
:103B5800034B654103950024E3FB060440417F4184
:103B6800091900246441E2FB0914FF0750EB0B001C
:103B780004900025E2FB0A455FF0000BE3FB081BFD
:103B880049415FEA370714EB0B045FF0000BE3FBD6
:103B9800094B55EB0B055FF0000B5BEB0B0BE2FBE6
:103BA8000C5BFF0F0020E2FB0EB000225141E6FB48
:103BB800061205910021E6FB084164417F416D181A
:103BC8000021E3FB0A515BEB010B0021E3FB0CB185
:103BD800484100214941E3FB0E010023E6FB09535C
:103BE8001BEB030B0023E6FB0AB358410023E6FB5B
:103BF8000C03594100235B41E6FB0E13FF075441B8
:103C080006946D417F41A8FB08265541079500227F
:103C1800E8FB09B25BEB0B0B7F4180180022E8FB45
:103C28000A0251410022E8FB0C125A4100235B4171
:103C3800E8FB0E230024E9FB0E340025E9FB0A15F6
:103C480052190025E9FB0C256B410025EAFB0C35D0
:103C58006C4100256D41EAFB0E45FF075BEB060B47
:103C68000026ECFB0E564041494152415B416441FC
:103C78006D417641AEFB0EE848F100087F00A9FBD4
:103C88000979784151EB0901AAFB0A7A7A4153EB89
:103C98000A03ACFB0C7C7C4155EB0C0556EB0E067D
:103CA80048F1000700BD00BF2DE9F14F87B0FFF7CD
:103CB8003BFFDDF81C8008F1200888E8FF00FFBC06
:103CC80087E87F08BDE8F08F30B44FF0000310F8A4
:103CD800014B11F8015B013A84EA050443EA040345
:103CE800F5D1A3F101034FEAD37030BC704700BF90
:103CF8004FF0000310F8012B013943EA0203F9D110
:103D0800A3F101034FEAD370704700BF30B411F834
:103D1800014B12F8015B6C4000F8014B013BF6D1F6
:103D280030BC70472DE9F00791E8F807B2E80210B7
:103D38005B1854EB0C04B2E802104D4156EB0C062C
:103D4800B2E802104F4158EB0C08B2E8021059EBE8
:103D580001095AEB0C0A8941B3F1FF3374F1FF34BE
:103D680075F1FF3576F1000677F1000778F1000864
:103D780079F101097AF1FF3A51F100015B184C41E0
:103D88004D4156F1000657F1000758F1000859EB6C
:103D9800D1795AEB010A80E8F807BDE8F0077047C7
:103DA8002DE9F00791E8F807B2E802105B1A74EB06
:103DB8000C04B2E802108D4176EB0C06B2E8021052
:103DC8008F4178EB0C08B2E8021079EB01097AEB25
:103DD8000C0A89415B184C414D4156F1000657F1D8
:103DE800000758F1000859EBD1795AEB010A80E82D
:103DF800F807BDE8F007704718EB040859EB050908
:103E08005AEB060A5BEB070B5FF0000C4CF1000C59
:103E180018EB050859EB06095AEB070A5BEB070B89
:103E280050EB0C005FF0000C51EB0C0152EB0C0254
:103E380063414CF1000CB8EB070879F100097AF1FD
:103E4800000A7BEB040BA841B141A241B3416CF1DC
:103E5800000CBBEB050BB041B941AA41BB416CF169
:103E6800000C6FEAEC74B8EB040879EB04097AEB00
:103E7800040A7BF1000B70F1000071F1000172EB94
:103E8800D472A3416CF1000C18EBEC7859EBEC7987
:103E98005AEBEC7A5BF1000B50F1000451F100058C
:103EA80052EBDC7653EBEC774CF1000C18EBEC7032
:103EB80059EBEC715AEBEC725BF1000354F100041E
:103EC80055F1000556EBDC7657EBEC77704700BFF1
:103ED8002DE9F14F87B0FFF7DDFCDDF81080DDF844
:103EE8001490DDF818A0FFF787FFBDE8000FFFF773
:103EF80083FF03B05DF8048B88E8FF00BDE8F08F0E
:103F08002DE9F14F87B0FFF70FFEDDF81080DDF8DF
:103F18001490DDF818A0FFF76FFFBDE8000FFFF75A
:103F28006BFF03B05DF8048B88E8FF00BDE8F08FF5
:103F38002DE9F047002386B0704EC41C05460F4695
:103F4800B27D24F00304CDE9033333788DF81220D1
:103F58008DF80D307378F27E8DF80E30B3788DF8C9
:103F680014208DF80F30327FF3788DF815208DF8F6
:103F7800103096F8202033798DF811300AB18DF879
:103F88001330002F03A94FF000080CBF2046002073
:103F980000F02AFF96F8009073780444C2469944CA
:103FA8005FFA89F95FFA88F3994500F2998003343A
:103FB800002F4946524624F0030414BF002020462F
:103FC80001F088F8B178204459B10330002F738A82
:103FD80020F00304F27814BF0020204601F01CFAF8
:103FE800204496F821308BB1317C79B196F8223093
:103FF8000330002B20F0030414BFFF222522002FDA
:104008000CBF2046002001F09DFB20443C4B1B6860
:104018005BB1317949B10330002F327D20F00304C0
:1040280014BF0020204698472044364B1B6853B1E4
:10403800717D41B10330002F20F0030414BF00202C
:10404800204698472044304BD3F80080B8F1000F41
:104058000FD0B17D69B10330002F737E20F00304C7
:10406800F27D009318BF0020337E08BF2046C0476A
:10407800204496F8203063B1317951B10330002FD4
:10408800B27E20F0030414BF0020204601F0EEFBAE
:104098002044737F6BB1033020F0030457BB2046E4
:1040A8001AF0A2FA20464FF48C72717F21F04BFF70
:1040B8002044B37F6BB1033020F00304E7B92046F6
:1040C80023F027FE20464FF48C72B17F21F03BFF8E
:1040D8002044073020F00700401B06B0BDE8F087F9
:1040E800337A08F10108F279B179707921F0CCFEC0
:1040F800824457E70020D6E70020E4E7C8080021FB
:104108004C00002154000021500000218FB572B6E8
:104118001A4B5D6AE5B9BFF34F8F1949194BCA6845
:1041280002F4E0621343CB60BFF34F8F00BFFDE79B
:10413800B4FBF6F4D3B20132002CF9D103F110022A
:104148006A4402F80C4C0A2433B901A8A847E2E7EC
:10415800044600220A26EDE7013BDBB203F1100218
:104168000DEB0206C2B2B2FBF4F704FB17223032A1
:10417800B0FBF4F006F80C2CE6E700BFC8080021F5
:1041880000ED00E00400FA051FB51A4C02A8237AD6
:104198008DF80930E3798DF80830A379ADF80C3043
:1041A8006379ADF80A3018F06BFA18B1A72103202B
:1041B800FFF7ACFFE36801A8019318F077FA08B19C
:1041C800AB21F4E7012368468DF8003023F00AFCA0
:1041D80008B1AF21EBE7607E18F07AFA08B1B82190
:1041E800E5E7207E18F06EFA08B1B921DFE704B0E0
:1041F80010BD00BFC808002138B5054600283CD0CE
:104208001EF02AFA10B94FF0FF3038BD1DF0E2FE5B
:10421800B0F5FA7FF7D81A4C1A48656200F004FB2B
:1042280019490220194A0023194D84F8283084F8C6
:10423800293084F8213084F8223084F82030C4E909
:10424800001241F64C52C4E90202124AC4E904526F
:10425800114AC4E90623EFF3108472B601F090FB0B
:104268000E4801F053FC18B1C5210320FFF74EFF9B
:10427800002CCAD162B62046C7E76FF01500C4E724
:10428800C80800219141000101010100001B1B0326
:1042980003001F000200000149000100A1450001C0
:1042A80010B5002871D13D4C94F82830002B69D105
:1042B80079B1002A6CD001390C2966D8DFE801F001
:1042C800071417272A4A523055585D363C00137890
:1042D800237001210020FFF72BFEB0F5803F5ADA4A
:1042E800012384F8293010BD13786370F1E79378BF
:1042F800002B4DD0D378002B4AD013781A2B47D9EE
:1043080053781A2B44D91068C4F80500E1E71368FC
:10431800E360DEE71378E278934239D3A370D8E7F5
:104328001378A278934233D8E370D2E71378A2784F
:1043380093422DD8A375CCE713784BB35378013B40
:10434800DBB2F82B24D813889278A4F81730144BD2
:104358009A70BEE7137894F821200AB1012B17D977
:104368002374B6E713886382B3E713782371B0E741
:104378001378012B0CD92375ABE71378082B07D8D2
:104388006375A6E74FF0FF30ADE76FF02C00AAE7A2
:104398006FF01500A7E76FF00B00A4E7C80800212D
:1043A800DF08002170B50D460646F0B1E9B111F0FD
:1043B80007041AD100F048F9D0B130460E4E1EF06D
:1043C8008FF9214686F82A002846FFF7B1FD18F034
:1043D800BFFA96F82A00214618F030FAFFF7D4FE03
:1043E8000123204686F8283070BD6FF01500FBE7E2
:1043F8004FF0FF30F8E700BFC808002110B5094C9E
:1044080094F828302BB118F035FA94F82A001EF0E9
:1044180083F901F0C9FA01F08FFB002084F8280025
:1044280010BD00BFC808002150B1074B03F11402AA
:1044380053F8041B934240F8041BF9D1002070473D
:104448006FF01500704700BF6D490301074B93F8E3
:10445800292010B532B993F828401CB918F09CF9F6
:10446800204610BD4FF0FF30FBE700BFC808002111
:10447800074B93F8292010B532B993F828401CB996
:1044880018F09EF9204610BD4FF0FF30FBE700BF43
:10449800C808002138B5094D95F829305BB995F859
:1044A800284044B918F0AEF90123204685F8213098
:1044B80085F8223038BD4FF0FF30FBE7C8080021EF
:1044C800074B93F8292010B532B993F828401CB946
:1044D80018F012F9204610BD4FF0FF30FBE700BF7F
:1044E800C8080021074B93F8292010B532B993F872
:1044F80028401CB918F0F2F8204610BD4FF0FF30E4
:10450800FBE700BFC8080021074B93F8292010B526
:1045180032B993F828401CB923F08CFA204610BD14
:104528004FF0FF30FBE700BFC8080021074B93F8A6
:10453800292010B532B993F828401CB923F07DFA28
:10454800204610BD4FF0FF30FBE700BFC808002130
:10455800074B93F8292010B532B993F828401CB9B5
:1045680023F06EFA204610BD4FF0FF30FBE700BF86
:10457800C8080021074B93F8292010B532B993F8E1
:1045880028401CB923F05EFA204610BD4FF0FF30DA
:10459800FBE700BFC808002137B5114C256801A802
:1045A80001F080FA034618B1052816D035210BE032
:1045B800019A022A05D0032AF1D1226852B92D2185
:1045C80002E022681AB928210420FFF79FFD236022
:1045D800A847E4E701202360FAE703B030BD00BF35
:1045E800F408002107C8024B83E807000020704741
:1045F800F8080021054B5B6810B51BB98C21042015
:10460800FFF784FDBDE81040184700BFF4080021FB
:10461800054B9B6810B51BB992210420FFF776FD66
:10462800BDE81040184700BFF4080021054BDB68BF
:1046380010B51BB998210420FFF768FDBDE81040AC
:10464800184700BFF4080021044B586828B198683F
:1046580018B1D868003818BF01207047F408002145
:10466800014B1870704700BF040900212DE9F7437A
:10467800334D031D04462F4647F8043F95F80C3187
:104688007BB195F80E2105F20D1120460426023261
:104698001EF0BAF8002385F80C31304603B0BDE8A7
:1046A800F083384605F012FD0228064604D1254954
:1046B80020461FF02CFEF0E704283AD12B790A2B6C
:1046C80015D13E2000F054F860B92B8901A968463D
:1046D800ADF8003020F044FB0028CFD0A7210820F7
:1046E800FFF714FD052000F08FF80028EDD03946BB
:1046F80020461FF0B9FE0028C0D094F8009094F826
:104708000280484600F034F80028B7D0B9F13E0FCF
:10471800C3D1B8F1120F06D195F80E32022B02D090
:104728002B78002BAAD0404600F06EF80028B4D1B0
:10473800A4E70828B1D1034920461FF020FEACE7C2
:104748000409002108090021074B4FF0FF3141F609
:10475800FF72C3E9001205490022C1E900221F21A6
:10476800C3E90212704700BF00000021140B0021AA
:104778003F280CD801380B4BC0F3421200F01F0041
:1047880053F8223023FA00F000F001007047FF28A8
:1047980006D04038044BC0F3421200F01F00EFE788
:1047A8000120704700000021140B0021074B01462F
:1047B800006849681A4603C240F48C221A6041F026
:1047C800107242F4FF625A60704700BF0000002177
:1047D8000246024B0068516803C37047140B00215E
:1047E800084B01460068496803F1080203C21969C9
:1047F80020EA010259699A60DA6822EA0102DA605D
:10480800704700BF000000210138064BC0F3421278
:1048180000F01F0003EB82039B6823FA00F000F00E
:104828000100704700000021014B1860704700BF6D
:104838001C0B002110B5FFF787FF0020FFF710FFC2
:1048480022F01CFA034B04461B6803B19847204624
:1048580010BD00BF1C0B002138B5274C0546D4F805
:10486800A432013306D1D4F8A8324FF6FF729BB2B6
:1048780093423ED0D4F8A032DB073AD5D4F8A4222C
:10488800D4F8A832C5F80120A5F80530C3F30723EA
:1048980063F03F03AB71D4F89032013323D0D4F8DE
:1048A800943201331FD0D4F8983201331BD0D4F896
:1048B8009C32013317D0002001F03CFA98B9D4F8A3
:1048C8009002D4F89412D4F89822D4F89C32C5F8FF
:1048D8000700C5F80B10C5F80F20C5F813300123E1
:1048E80000202B7038BD10220021E81D1EF002F8B0
:1048F800F5E70023F4E700BF0000FF0110B5102220
:10490800002104461DF0F6FF10220021A0181DF01A
:10491800F1FF224BD3F8802201320BD1D3F8842245
:10492800013207D1D3F88822013203D1D3F88C227F
:1049380001320BD0D3F88002D3F88412D3F888223E
:10494800D3F88C3220616161A261E361002001F03B
:10495800F1F9124B18B9D3F8A022D2071CD4D3F816
:10496800902201320BD1D3F89422013207D1D3F827
:104978009822013203D1D3F89C3201330CD0074B73
:10498800D3F89002D3F89412D3F89822D3F89C3233
:1049980020606160A260E360002010BD0000FF019C
:1049A80080B588B000AF786039603B681B88BB83EE
:1049B800BB8BC3F30E037B837B68DB7C184620F03C
:1049C80019FA03463B837B681A883B8B1344FB82A6
:1049D8007B6818333B617B8B3A691344FB603B8BE4
:1049E800FA68128892B21A44FB8A13445A1EFB8A48
:1049F80092FBF3F39BB2FA8A02FB03F37B817A8B77
:104A08007B891344FB837B685B88FA8B9A420AD2C2
:104A1800B7F91C200A4B13401AB2B7F91E301343DA
:104A28001BB2FB8305E0BB8BDB439AB2044B1340FC
:104A3800FB833B68FA8B1A8000BF2037BD4680BDD8
:104A48000080FFFF80B483B000AF0346FB71FB79A1
:104A5800064A32F8133003339BB223F003039BB2A8
:104A680018460C37BD4680BC704700BF3438030178
:104A780080B483B000AF0023FB71254B1A78FB7913
:104A88001344FB71224B5A78FB791344FB71204B7A
:104A98001A7AFB791344FB711D4B9B78BB71FA7929
:104AA800BB79934238BF1346FB71194BDB787B7196
:104AB800FA797B79934238BF1346FB71144B1B7903
:104AC8003B71FA793B79934238BF1346FB71104B1F
:104AD8005B79FB70FA79FB78934238BF1346FB7118
:104AE8000B4B9B79BB70FA79BB78934238BF13465E
:104AF800FB71074BDB797B70FA797B78934238BF7F
:104B08001346FB71FB7918460C37BD4680BC7047CD
:104B1800200B002180B588B000AFF8600B467A60A2
:104B2800FB72FB68002B0CBF01230023FB77FB7F84
:104B3800002B01D0002301E007F10C03BB61796869
:104B4800B86920F058FE7861FB7F83F00103DBB27F
:104B5800002B06D0FB7AFA68044902339B000B4409
:104B68005A607B6918462037BD4680BD200B00215E
:104B780080B586B000AF78600B46FB700023FB75EC
:104B880029E07B681B68033323F003031A467B681C
:104B98001A60FB7D1846FFF755FF03461946FB7D53
:104BA800114AD35C01FB03F33B61FB78002B01D076
:104BB800002301E07B681B68F97D3A691846FFF716
:104BC800A9FFF8607B681A68FB681A447B681A605A
:104BD800FB7D0133FB75FB7D082BD2D900BF00BFDD
:104BE8001837BD4680BD00BF200B002180B485B0BA
:104BF80000AF78600B46FB701346BB700023FB7355
:104C080032E07B681B68033323F003031A467B6892
:104C18001A60BB7883F00103DBB2002B1AD0FB7B50
:104C28007A68126815490C3341F823200023BB73B6
:104C38000CE0FB7B114A0C3352F82320BB7B9B0012
:104C4800134400221A60BB7B0133BB73BA7BFB7829
:104C58009A42EED37B681A68FB789B001A447B68FB
:104C68001A60FB7B0133FB73FB7B082BC9D900BFA0
:104C780000BF1437BD4680BC704700BF200B002121
:104C880080B485B000AF0346FB710023FB81FB793C
:104C9800012B02D1194B1B78FB81FB79082B07D11B
:104CA800164B1B789AB2154B5B789BB21344FB8169
:104CB8000023BB8113E0BA89FB8913447B81FB790C
:104CC8000E4A0C3352F823207B899B0013441B683F
:104CD800002B01D17B890BE0BB890133BB81FB79B8
:104CE800064AD35C9BB2BA899A42E4D34FF6FF7363
:104CF80018461437BD4680BC704700BF200B002102
:104D080090B585B000AF03460A46FB8013467B7119
:104D18000023FB60FB88184620F03DFE0346002B6D
:104D280004D140F289111720FFF7F0F97B791D4A69
:104D38000C3352F82320FB889B0013441B68002B7C
:104D480004D04FF4C5711720FFF7E0F97B79154AB5
:104D580002339B0013445B68002B01D100231DE044
:104D68007B79104A02339B0013445C687B791846B0
:104D7800FFF768FE03461946204620F091FDF860CB
:104D8800FB68002B09D07B79064A0C3352F82320A4
:104D9800FB889B001344FA681A60FB6818461437AE
:104DA800BD4690BD200B002180B582B000AF034600
:104DB8000A46FB8013467B71FB88184620F0EBFD02
:104DC8000346002B09D07B79064A0C3352F823207E
:104DD800FB889B0013441B6800E000231846083733
:104DE800BD4680BD200B002180B584B000AF78603F
:104DF80039603B689B781A463B685B781344FF2B05
:104E080004D940F2AD111720FFF780F93B681A78F2
:104E18003B685B789A4204D940F2B1111720FFF73A
:104E280075F90023FB737B68BB607B68002B0CBFA4
:104E380001230023BB733B685A78FB7B1344FB7345
:104E48003B689A78FB7B1344FB73FB7B7B733B6863
:104E58001A7A7B7B13447B733B685A7A7B7B1344B7
:104E68007B733B685B797A7B934238BF13467B73CD
:104E78003B68DB787A7B934238BF13467B737B6849
:104E880003F00303002B04D04FF4E5711720FFF75C
:104E98003DF93B685A781B4B1A703B689A78194B56
:104EA8005A703B68DA78174B9A703B681A79154B39
:104EB800DA703B685A79134B1A713B689A79114B2F
:104EC8005A713B68DA790F4B9A713B681A7A0D4B25
:104ED800DA713B685A7A0B4B1A72BA7B07F10803EE
:104EE80011461846FFF744FEBA7B797B07F10803A1
:104EF8001846FFF77BFEBA687B68D31A1846103746
:104F0800BD4680BD200B002180B582B000AF0346AE
:104F1800FB71FB79082B04D940F203211720FFF716
:104F2800F5F8FB79024AD35C18460837BD4680BDC0
:104F3800200B002190B585B000AF03460A46FB80E0
:104F480013467B71FB884FF6FF72934202D143F2FE
:104F5800020334E07B79082B01D907232FE07A7903
:104F6800FB8811461846FFF71FFFF860FB68002B07
:104F780023D07B79144A52F82330FA88F96810460E
:104F880098477B79114A0C3352F82320FB889B0001
:104F9800134400221A607B790C4A02339B001344A5
:104FA8005C687B791846FFF74DFD03461A46F96899
:104FB800204620F0D7FC002301E043F20203184604
:104FC8001437BD4690BD00BF10380301200B0021E7
:104FD80080B584B000AF78607B689B79BB73FFF7BE
:104FE80047FD03467B737B68DB79FB7323E0BB7B60
:104FF800174A0C3352F82320FB7B9B0013441B6891
:10500800002B15D0FB7B0133DAB27B68DA71FB7BAE
:105018009AB27B689A80BB7B0D4A0C3352F82320E6
:10502800FB7B9B0013441A687B681A6000230AE024
:10503800FB7B0133FB73FA7B7B7B9A42D7D37B687C
:10504800FA7BDA71052318461037BD4680BD00BFCC
:10505800200B002180B582B000AF03460A46FB80D2
:1050680013467B717B79084AD35C9BB2FA889A42D3
:1050780004D340F2B2211720FFF748F8FB88DBB2CF
:1050880018460837BD4680BD200B002180B483B088
:1050980000AF0023FB710023FB710DE00C4B1B6874
:1050A8005A68FB799B0013441B68002B01D000232E
:1050B80009E0FB790133FB71054B1B681B7AFA7910
:1050C8009A42EBD3012318460C37BD4680BC704783
:1050D800740B002180B586B000AFF8600B467A608B
:1050E800FB7200237B61FB68002B0CBF01230023AC
:1050F800FB74FB6803F00303002B03D08621182000
:10510800FFF704F8FB7A002B36D07968002020F0EE
:1051180072FB78617B690C337B61FB7A9B007A694F
:1051280013447B61FB7C83F00103DBB2002B23D0AB
:10513800144AFB681360134B1B68FA7A1A72114BF6
:105148001B68FA680C325A600E4B1B685968FB7A68
:105158009A000C4B1B680A441A600A4B1B68586873
:10516800FB7A9B001A4600211DF0C4FB054B1B6807
:105178007968184620F03FFB7B6918461837BD460A
:1051880080BD00BF740B002190B589B002AF044602
:10519800084611461A462346FB800346BB800B4649
:1051A8007B8013463B80344B1B68002B03D1A52121
:1051B8001820FEF7ABFF304B1B681B7A9BB2FA88AE
:1051C8009A4208D22C4B1B685A68FB889B001344F0
:1051D8001B68002B02D043F2020348E03A88BB88E0
:1051E8001146184620F00EFE0346FB823A8D7B8856
:1051F8001146184620F01EFE0346BB82FB8ABA8A77
:105208001146184620F02EFE03467B821A4B1B6877
:105218001B687A8A1146184620F042FBF860FB6842
:10522800002B01D1042322E0BA8A7B8A1946F86848
:1052380020F0BCFDF86820F0CCFD7A88B98A3B8D57
:105248000093092320F0CCFCF86820F0CDFDBA8843
:10525800F98A3B8800930A2320F04CFD064B1B6813
:105268005A68FB889B001344FA681A6000231846A2
:105278001C37BD4690BD00BF740B002180B584B0BB
:1052880000AF0346FB80224B1B68002B03D1C621CD
:105298001820FEF73BFF1E4B1B681B7A9BB2FA884F
:1052A8009A4208D21A4B1B685A68FB889B00134421
:1052B8001B68002B02D143F2020324E0144B1B6845
:1052C8005A68FB889B0013441B68FB60104B1B68E3
:1052D8005A68FB889B00134400221A600C4B1B6819
:1052E8001868FB685B881A46F96820F03BFBFFF7F3
:1052F800CDFE0346002B05D0054B1B681B681846DE
:1053080020F0AEFA002318461037BD4680BD00BF16
:10531800740B002180B582B000AF0C4B1B68002BCA
:1053280010D00023FB7107E0FB799BB21846FFF70A
:10533800A5FFFB790133FB71044B1B681B7AFA79D3
:105348009A42F1D300BF0837BD4680BD740B0021D7
:1053580080B584B000AF0346FB800023FB60144B8C
:105368001B68002B03D1EC211820FEF7CFFE104B51
:105378001B681B7A9BB2FA889A4213D20C4B1B68A3
:105388005A68FB889B0013441B68002B0AD0084B03
:105398001B685A68FB889B0013441B68184620F05A
:1053A80018FDF860FB6818461037BD4680BD00BF81
:1053B800740B002180B584B000AF0346FB80002346
:1053C800FB60144B1B68002B03D1FA211820FEF751
:1053D8009DFE104B1B681B7A9BB2FA889A4213D227
:1053E8000C4B1B685A68FB889B0013441B68002BF6
:1053F8000AD0084B1B685A68FB889B0013441B683B
:10540800184620F0F1FCF860FB6818461037BD46D6
:1054180080BD00BF740B002180B586B000AF7860F6
:10542800084611461A460346FB700B46BB701346E6
:105438003B807B68002B0CBF012300233B740023B7
:105448007B61FA78BB781344DAB23F4B1A707B68F9
:1054580003F00303002B03D04E210920FEF756FE6C
:105468003B881F2B03D83B889B007B821CE03B8832
:10547800FF2B0FD93B8803F1FF023B885B009A4260
:1054880003DA3B88FF339BB202E03B885B009BB2A8
:105498007B8209E03B885B007C2B03DD3B885B005B
:1054A8009BB200E07C237B827B8A03339BB223F090
:1054B8000303FB813B7C83F00103DBB2002B05D0A7
:1054C800224A7B681360224AFB8913801E4B1B7893
:1054D8001A4613469B001344DB001A467B691344A3
:1054E8007B6100237B7422E03B7C83F00103DBB209
:1054F800002B15D0154B19687A7C13469B00134472
:10550800DB000B4401221A70104B19687A7C134691
:105518009B001344DB000B4479687A690A445A609B
:10552800FB897A6913447B617B7C01337B74064B6E
:105538001B787A7C9A42D7D37B69073323F0070319
:1055480018461837BD4680BD780B00217C0B00211A
:10555800800B002180B588B000AF78600B46FB70E7
:105568007B685B687B61FB78002B30D07B6801220D
:105578005A70404B1B88184620F020FD0346FB81DB
:105588000023FB611FE07B68FA690C32002123F8D5
:1055980012107B68FA691032F98923F81210FB8916
:1055A800FA6902FB03F37A691A447968FB699B007C
:1055B8000B445A607A68FB691344143300221A704A
:1055C800FB690133FB61FB69032BDCD94DE07B6888
:1055D80000225A700023BB611AE07B68BA690C325A
:1055E800002123F812107B68BA691032002123F8D1
:1055F80012107A68BB699B00134400225A607A68CB
:10560800BB691344143300221A70BB690133BB61B0
:10561800BB69032BE1D9174B1B88184620F0DBFC2C
:1056280003467B82134B1B88184620F0E7FC034691
:105638003B827B687A695A607B683A8A1A843B8A1B
:105648007A691A447B689A607B687A8A5A847B688C
:105658007A69DA607B683A8A9A843B8A7A691A445A
:105668007B681A617B687A8ADA8400BF2037BD4676
:1056780080BD00BF800B002180B584B000AF00233F
:10568800FB600023FB7217E01D4B1968FA7A13467A
:105698009B001344DB000B441B78002B09D0184BEC
:1056A8001968FA7A13469B001344DB000B44FB602D
:1056B80007E0FB7A0133FB72124B1B78FA7A9A42A5
:1056C800E2D3FB68002B03D1A9210920FEF71EFDB8
:1056D800FB68002B0ED0FB6802337B6000BF7B6841
:1056E80000221A7000BF0121F868FFF733FFFB683A
:1056F80000221A70FB6818461037BD4680BD00BFEF
:105708007C0B0021780B002180B582B000AF0C4BD8
:105718001B88184620F052FC0346FB80084B1B8868
:10572800184620F06BFC0346BB80FA88BB8893427E
:1057380038BF13469BB218460837BD4680BD00BF28
:10574800800B002180B586B002AF78600B46FB70F5
:105758001346BB702E23FB73BB789BB2FA7892B2C8
:10576800F97B184620F09EFA0346BB817B68002B24
:1057780013D0BB789AB2FB789BB2F87BB9890093B7
:105788000346786820F046FA064A7B681360064AA2
:10579800FB781370054ABB781370BB89184610371D
:1057A800BD4680BD840B0021880B0021890B002198
:1057B80080B500AF054B1B68054A1178054A127879
:1057C8001846FFF7BFFF00BF80BD00BF840B002154
:1057D800880B0021890B002180B400AF024B1B68A5
:1057E8001846BD4680BC7047840B002180B400AFCA
:1057F800024B1B781846BD4680BC7047890B0021B8
:1058080080B584B000AF03460A46FB8013467B711F
:105818007B79002B0FD1FB8805211846FFF71AFC6E
:105828000346BB730D4B1B68BA7B0D49098801FB06
:1058380002F213440EE0FB8806211846FFF70AFC23
:105848000346FB73074B1B68FA7B0749098801FB72
:1058580002F2134418461037BD4680BD940B002150
:105868009A0B0021A00B0021A40B002180B586B063
:1058780002AF78600B46FB701346BB70BB789BB2D7
:105888001A460321F72020F07DFA034603339BB222
:1058980023F00303BB817B68002B28D07B6803F0CF
:1058A8000303002B03D071211920FEF72FFC144AA3
:1058B8007B681360134ABB8913800023FB8111E0C6
:1058C800FB8901211846FFF79BFFB860BB789BB2A4
:1058D800B98900930323F722B86820F025FAFB89D9
:1058E8000133FB81FB789BB2FA899A42E8D3FB78B3
:1058F800BA8902FB03F318461037BD4680BD00BFC6
:10590800A00B0021A40B00210122104B4FF0FF3007
:1059180000215A60C3F8080303F580539A60C3F85E
:105928000012C3F80803C3F80015C3F804259A60E9
:10593800C3F80803C3F80015C3F8042503F580531A
:1059480041F6F872C3F80825704700BF00D000413F
:105958000A4B4FF40052C3F88020BFF34F8FBFF3B8
:105968006F8FC3F880214FF48042C3F88020BFF3C3
:105978004F8FBFF36F8FC3F88021704700E100E0BD
:1059880008B5FFF7C1FFFFF7E3FF00F01BF8054B71
:1059980041F6F872C3F8082500F0AAF8BDE80840F7
:1059A80000F0AEB800F0004108B5FFF7ADFFFFF713
:1059B800CFFF034B41F6F872C3F8082508BD00BFB6
:1059C80000F0004110B5054C204622F0ECFB18B160
:1059D80027211D20FEF79AFB607010BDA60B002141
:1059E8002DE9F04707462B4E2B4C2A4822F0DFFBC7
:1059F800054608B1FF2373704FF001080023DFF854
:105A08009C90C4F80480C4F80031C4F80431C4F888
:105A18000475C4F80080D4F8003113B9D4F80431FF
:105A2800E3B1D4F80431002BE8D1A5B996F8018088
:105A3800032375704FF400523046C4F80833184BEE
:105A4800C4F80451C4F80051C3F8802122F0BEFB09
:105A5800B8F1000FC9D10020BDE8F087D9F810309F
:105A6800DB06D8D50E4B4FF40052C3F88021EFF374
:105A7800108A72B60323C4F80433D4F8003123B96A
:105A8800D4F804310BB922F0ACFBBAF1000FC2D143
:105A980062B6C0E7A60B002100D0004100ED00E08F
:105AA80000E100E0114B1A6870B5E2B15A680C21A8
:105AB800012501321E680C2A28BF002205FA02F4CB
:105AC80026420DD05A60EFF3108172B61A6822EAA6
