:020000040100F9
:10000000289F00211D600201AFBE0201F15F0201C5
:10001000F15F0201F15F0201F15F020100000000E7
:10002000000000000000000000000000655D02010B
:10003000F15F0201000000000D5D0201F15F0201AD
:10004000E55D0201E55D0201E55D0201E55D02019C
:10005000E55D0201E55D0201E55D0201E55D02018C
:100060002DC50201E55D0201E55D0201E55D0201CC
:10007000E3C40201E55D0201E55D0201E55D020107
:10008000E55D020117C50201E55D0201E55D0201C2
:10009000E55D0201E55D0201E55D0201E55D02014C
:1000A000E55D0201E55D0201E55D0201E55D02013C
:0800B000E55D0201E55D0201BE
:1000B80053B94AB9002908BF00281CBF4FF0FF31C7
:1000C8004FF0FF3000F00CB8ADF1080C6DE904CE2C
:1000D80020F0EEFBDDF804E0DDE9022304B0704710
:1000E800704700BF2DE9F00791E8F807B2E8021061
:1000F8005B1854EB0C04B2E802104D4156EB0C06A9
:10010800B2E802104F4158EB0C08B2E8021059EB64
:1001180001095AEB0C0A80E8F80780410130BDE874
:10012800F00770472DE9F00791E8F807B2E80210E8
:100138005B1A74EB0C04B2E802108D4176EB0C06E6
:10014800B2E802108F4178EB0C08B2E8021079EBA4
:1001580001097AEB0C0A80E8F80780414042BDE8C3
:10016800F00770472DE9F007524290E87800B1E8AF
:1001780080071740DB1918EA020854EB080419EA4B
:10018800020955EB09051AEA020A56EB0A0678C075
:1001980090E87800B1E8800717407B4118EA020828
:1001A80054EB080419EA020955EB09051AEA020A90
:1001B80056EB0A0678C080410130BDE8F007704769
:1001C8002DE9F007524290E87800B1E8800717401F
:1001D800DB1B18EA020874EB080419EA020975EB3C
:1001E80009051AEA020A76EB0A0678C090E8780050
:1001F800B1E880071740BB4118EA020874EB08040D
:1002080019EA020975EB09051AEA020A76EB0A06E9
:1002180078C080414042BDE8F00770472DE9F00101
:1002280052424FF0040890E8300091E8C000A31B48
:100238001340E41AF618EB1B1340ED1AFF1830C0F0
:10024800C0C1B8F10108EED1BDE8F001704700BFA8
:1002580000B592E8DC072DE9DC07B1E8805702B465
:10026800A7FB02510A95A8FB020B09180020E7FB1F
:1002780003105BEB000B00204041E9FB02B00B913F
:10028800A8FB0351401800214941EAFB02011BEB7E
:10029800050B0025E7FB04B568410025E7FB0605CB
:1002A800694100256D41E8FB0615CDF830B0A9FB82
:1002B80003B689190026EAFB031675410026764124
:1002C800ECFB035610EB0B005FF0000BE8FB040B94
:1002D80051EB0B015FF0000BE9FB041B55EB0B0521
:1002E8005FF0000BEAFB045B56EB0B065FF0000BBC
:1002F8005BEB0B0BECFB046B0D90ACFB0230059C2D
:100308002D180020EEFB025046410020E9FB046056
:100318005BEB000B00204041EAFB04B05B180021B6
:10032800E7FB04314D410021E8FB0451069C4E4196
:100338000021E8FB04615BEB010B0021E9FB04B140
:10034800484100214941EAFB04010E93A7FB04320E
:10035800079CB6180022E7FB04625BEB020B002245
:10036800E8FB04B250410022E9FB0402514100229B
:100378005241EAFB0412049CED180023E9FB0453E4
:100388005E410023EAFB0463089C5BEB030B00233C
:10039800E7FB04B358410023E8FB04035941002359
:1003A800E9FB04135A4100235B41EAFB04230F9540
:1003B8005DF8049B99E80006DDF80080A9FB085465
:1003C8001BEB040B0024EAFB08B4DDF81080604145
:1003D8000024ECFB080461410024EEFB0814624190
:1003E8000024E9FB0824634100246441EAFB083443
:1003F800DDF8048076190025EEFB08655BEB050B3C
:100408000025E9FB08B568410025EAFB0805DDF889
:10041800148069410025ECFB08156A410025EEFBB4
:1004280008256B410025E9FB08356C4100256D4125
:10043800EAFB08450F96DDF80880AEFB08768019C0
:100448000026E9FB080671410026EAFB0816DDF8DC
:10045800188072410026ECFB082673410026EEFB4B
:10046800083674410026E9FB0846754100267641A6
:10047800EAFB0856DDF80C801BEB070B0027ECFBAA
:1004880008B778410027EEFB080779410027E9FB08
:1004980008177A410027EAFB0827DDF81C807B4112
:1004A8000027ECFB08377C410027EEFB08477D411D
:1004B8000027E9FB08577E4100277F41EAFB0867D0
:1004C80008B000BD2DE9F14F87B0FFF7C1FEDDF898
:1004D8001C8008F1200888E8FF00FFBC87E87F0837
:1004E800BDE8F08F00B591E84C57A2FB024101949A
:1004F800A2FB034524190020E2FB06506D417F4111
:10050800641802940021E2FB0801A3FB034B654138
:1005180003950024E3FB060440417F4109190024A8
:100528006441E2FB0914FF0750EB0B00049000251F
:10053800E2FB0A455FF0000BE3FB081B49415FEA59
:10054800370714EB0B045FF0000BE3FB094B55EB8B
:100558000B055FF0000B5BEB0B0BE2FB0C5BFF0F7B
:100568000020E2FB0EB000225141E6FB0612059185
:100578000021E6FB084164417F416D180021E3FB3F
:100588000A515BEB010B0021E3FB0CB14841002150
:100598004941E3FB0E010023E6FB09531BEB030B68
:1005A8000023E6FB0AB358410023E6FB0C0359413C
:1005B80000235B41E6FB0E13FF07544106946D418F
:1005C8007F41A8FB0826554107950022E8FB09B2A0
:1005D8005BEB0B0B7F4180180022E8FB0A025141BC
:1005E8000022E8FB0C125A4100235B41E8FB0E2372
:1005F8000024E9FB0E340025E9FB0A1552190025F1
:10060800E9FB0C256B410025EAFB0C356C41002504
:100618006D41EAFB0E45FF075BEB060B0026ECFB82
:100628000E564041494152415B4164416D4176411A
:10063800AEFB0EE848F100087F00A9FB0979784174
:1006480051EB0901AAFB0A7A7A4153EB0A03ACFB86
:100658000C7C7C4155EB0C0556EB0E0648F1000767
:1006680000BD00BF2DE9F14F87B0FFF73BFFDDF874
:100678001C8008F1200888E8FF00FFBC87E87F0895
:10068800BDE8F08F30B44FF0000310F8014B11F8BB
:10069800015B013A84EA050443EA0403F5D1A3F1B6
:1006A80001034FEAD37030BC704700BF4FF000031E
:1006B80010F8012B013943EA0203F9D1A3F1010330
:1006C8004FEAD370704700BF30B411F8014B12F8ED
:1006D800015B6C4000F8014B013BF6D130BC704720
:1006E8002DE9F00791E8F807B2E802105B1854EB1F
:1006F8000C04B2E802104D4156EB0C06B2E80210A9
:100708004F4158EB0C08B2E8021059EB01095AEBBB
:100718000C0A8941B3F1FF3374F1FF3475F1FF35E9
:1007280076F1000677F1000778F1000879F1010900
:100738007AF1FF3A51F100015B184C414D4156F1F5
:10074800000657F1000758F1000859EBD1795AEB28
:10075800010A80E8F807BDE8F00770472DE9F007BF
:1007680091E8F807B2E802105B1A74EB0C04B2E8DF
:1007780002108D4176EB0C06B2E802108F4178EB3F
:100788000C08B2E8021079EB01097AEB0C0A8941EE
:100798005B184C414D4156F1000657F1000758F1DE
:1007A800000859EBD1795AEB010A80E8F807BDE84F
:1007B800F007704718EB040859EB05095AEB060ACD
:1007C8005BEB070B5FF0000C4CF1000C18EB050815
:1007D80059EB06095AEB070A5BEB070B50EB0C00C9
:1007E8005FF0000C51EB0C0152EB0C0263414CF131
:1007F800000CB8EB070879F100097AF1000A7BEBE5
:10080800040BA841B141A241B3416CF1000CBBEB10
:10081800050BB041B941AA41BB416CF1000C6FEA2C
:10082800EC74B8EB040879EB04097AEB040A7BF161
:10083800000B70F1000071F1000172EBD472A3415A
:100848006CF1000C18EBEC7859EBEC795AEBEC7A7C
:100858005BF1000B50F1000451F1000552EBDC761E
:1008680053EBEC774CF1000C18EBEC7059EBEC7196
:100878005AEBEC725BF1000354F1000455F10005EA
:1008880056EBDC7657EBEC77704700BF2DE9F14F5C
:1008980087B0FFF7DDFCDDF81080DDF81490DDF897
:1008A80018A0FFF787FFBDE8000FFFF783FF03B02D
:1008B8005DF8048B88E8FF00BDE8F08F2DE9F14F63
:1008C80087B0FFF70FFEDDF81080DDF81490DDF833
:1008D80018A0FFF76FFFBDE8000FFFF76BFF03B02D
:1008E8005DF8048B88E8FF00BDE8F08F2DE9F0473C
:1008F800002386B0704EC41C05460F46B27D24F016
:100908000304CDE9033333788DF812208DF80D30C8
:100918007378F27E8DF80E30B3788DF814208DF848
:100928000F30327FF3788DF815208DF8103096F857
:10093800202033798DF811300AB18DF81330002F4B
:1009480003A94FF000080CBF2046002000F02AFF42
:1009580096F8009073780444C24699445FFA89F97E
:100968005FFA88F3994500F299800334002F4946CD
:10097800524624F0030414BF0020204601F088F8F2
:10098800B178204459B10330002F738A20F0030452
:10099800F27814BF0020204601F01CFA204496F893
:1009A80021308BB1317C79B196F822300330002B9D
:1009B80020F0030414BFFF222522002F0CBF20467D
:1009C800002001F09DFB20443C4B1B685BB1317952
:1009D80049B10330002F327D20F0030414BF0020FA
:1009E800204698472044364B1B6853B1717D41B16E
:1009F8000330002F20F0030414BF0020204698473E
:100A08002044304BD3F80080B8F1000F0FD0B17DEF
:100A180069B10330002F737E20F00304F27D009348
:100A280018BF0020337E08BF2046C047204496F8F0
:100A3800203063B1317951B10330002FB27E20F0FC
:100A4800030414BF0020204601F0EEFB2044737F0E
:100A58006BB1033020F0030457BB20461AF0A2FA0A
:100A680020464FF48C72717F21F0ABFE2044B37F97
:100A78006BB1033020F00304E7B9204623F087FD6B
:100A880020464FF48C72B17F21F09BFE2044073042
:100A980020F00700401B06B0BDE8F087337A08F164
:100AA8000108F279B179707921F02CFE824457E778
:100AB8000020D6E70020E4E7F00600214C000021E2
:100AC80054000021500000218FB572B61A4B5D6AA0
:100AD800E5B9BFF34F8F1949194BCA6802F4E062B0
:100AE8001343CB60BFF34F8F00BFFDE7B4FBF6F4B1
:100AF800D3B20132002CF9D103F110026A4402F892
:100B08000C4C0A2433B901A8A847E2E7044600229E
:100B18000A26EDE7013BDBB203F110020DEB0206FA
:100B2800C2B2B2FBF4F704FB17223032B0FBF4F088
:100B380006F80C2CE6E700BFF006002100ED00E007
:100B48000400FA051FB51A4C02A8237A8DF809305B
:100B5800E3798DF80830A379ADF80C306379ADF8F6
:100B68000A3018F06BFA18B1A7210320FFF7ACFF81
:100B7800E36801A8019318F077FA08B1AB21F4E70C
:100B8800012368468DF8003023F06AFB08B1AF21D5
:100B9800EBE7607E18F07AFA08B1B821E5E7207E25
:100BA80018F06EFA08B1B921DFE704B010BD00BF34
:100BB800F006002138B5054600283CD01EF09CF907
:100BC80010B94FF0FF3038BD1DF054FEB0F5FA7F74
:100BD800F7D81A4C1A48656200F004FB194902203C
:100BE800194A0023194D84F8283084F8293084F8EC
:100BF800213084F8223084F82030C4E9001241F60C
:100C08004C52C4E90202124AC4E90452114AC4E926
:100C18000623EFF3108472B601F090FB0E4801F042
:100C280053FC18B1C5210320FFF74EFF002CCAD191
:100C380062B62046C7E76FF01500C4E7F00600214A
:100C48004D0B000101010100001B1B0303001F00E5
:100C580002000001490001005D0F000110B50028E5
:100C680071D13D4C94F82830002B69D179B1002A14
:100C78006CD001390C2966D8DFE801F00714172772
:100C88002A4A523055585D363C00137823700121AA
:100C98000020FFF72BFEB0F5803F5ADA012384F8D5
:100CA800293010BD13786370F1E79378002B4DD08D
:100CB800D378002B4AD013781A2B47D953781A2B9C
:100CC80044D91068C4F80500E1E71368E360DEE77B
:100CD8001378E278934239D3A370D8E71378A278CF
:100CE800934233D8E370D2E71378A27893422DD891
:100CF800A375CCE713784BB35378013BDBB2F82BE1
:100D080024D813889278A4F81730144B9A70BEE749
:100D1800137894F821200AB1012B17D92374B6E768
:100D280013886382B3E713782371B0E71378012B34
:100D38000CD92375ABE71378082B07D86375A6E79A
:100D48004FF0FF30ADE76FF02C00AAE76FF0150009
:100D5800A7E76FF00B00A4E7F006002107070021C2
:100D680070B50D460646F0B1E9B111F007041AD185
:100D780000F048F9D0B130460E4E1EF001F9214678
:100D880086F82A002846FFF7B1FD18F0BFFA96F852
:100D98002A00214618F030FAFFF7D4FE0123204636
:100DA80086F8283070BD6FF01500FBE74FF0FF3074
:100DB800F8E700BFF006002110B5094C94F8283078
:100DC8002BB118F035FA94F82A001EF0F5F801F066
:100DD800C9FA01F08FFB002084F8280010BD00BF7D
:100DE800F006002150B1074B03F1140253F8041B1D
:100DF800934240F8041BF9D1002070476FF01500AA
:100E0800704700BFA4E80201074B93F8292010B5EA
:100E180032B993F828401CB918F09CF9204610BD47
:100E28004FF0FF30FBE700BFF0060021074B93F8B7
:100E3800292010B532B993F828401CB918F09EF94A
:100E4800204610BD4FF0FF30FBE700BFF006002141
:100E580038B5094D95F829305BB995F8284044B95B
:100E680018F0AEF90123204685F8213085F82230A4
:100E780038BD4FF0FF30FBE7F0060021074B93F831
:100E8800292010B532B993F828401CB918F012F986
:100E9800204610BD4FF0FF30FBE700BFF0060021F1
:100EA800074B93F8292010B532B993F828401CB99C
:100EB80018F0F2F8204610BD4FF0FF30FBE700BFF6
:100EC800F0060021074B93F8292010B532B993F8A2
:100ED80028401CB923F0ECF9204610BD4FF0FF3034
:100EE800FBE700BFF0060021074B93F8292010B557
:100EF80032B993F828401CB923F0DDF9204610BD1B
:100F08004FF0FF30FBE700BFF0060021074B93F8D6
:100F1800292010B532B993F828401CB923F0CEF92E
:100F2800204610BD4FF0FF30FBE700BFF006002160
:100F3800074B93F8292010B532B993F828401CB90B
:100F480023F0BEF9204610BD4FF0FF30FBE700BF8D
:100F5800F006002137B5114C256801A801F080FA88
:100F6800034618B1052816D035210BE0019A022A4C
:100F780005D0032AF1D1226852B92D2102E0226856
:100F88001AB928210420FFF79FFD2360A847E4E74A
:100F980001202360FAE703B030BD00BF1C07002121
:100FA80007C8024B83E8070000207047200700218C
:100FB800054B5B6810B51BB98C210420FFF784FD35
:100FC800BDE81040184700BF1C070021054B9B686F
:100FD80010B51BB992210420FFF776FDBDE810403B
:100FE800184700BF1C070021054BDB6810B51BB96B
:100FF80098210420FFF768FDBDE81040184700BF9E
:101008001C070021044B586828B1986818B1D868A3
:10101800003818BF012070471C070021014B1870C9
:10102800704700BF2C0700212DE9F743334D031DFE
:1010380004462F4647F8043F95F80C317BB195F8E4
:101048000E2105F20D112046042602321EF02CF85E
:10105800002385F80C31304603B0BDE8F0833846EC
:1010680005F012FD0228064604D1254920461FF046
:101078008CFDF0E704283AD12B790A2B15D13E20B4
:1010880000F054F860B92B8901A96846ADF8003022
:1010980020F0A4FA0028CFD0A7210820FFF714FDDC
:1010A800052000F08FF80028EDD0394620461FF0C3
:1010B80019FE0028C0D094F8009094F802804846A1
:1010C80000F034F80028B7D0B9F13E0FC3D1B8F119
:1010D800120F06D195F80E32022B02D02B78002B76
:1010E800AAD0404600F06EF80028B4D1A4E708283A
:1010F800B1D1034920461FF080FDACE72C07002141
:1011080030070021074B4FF0FF3141F6FF72C3E96A
:10111800001205490022C1E900221F21C3E9021279
:10112800704700BF000000213C0900213F280CD86F
:1011380001380B4BC0F3421200F01F0053F8223065
:1011480023FA00F000F001007047FF2806D040386D
:10115800044BC0F3421200F01F00EFE70120704774
:10116800000000213C090021074B0146006849683E
:101178001A4603C240F48C221A6041F0107242F4FD
:10118800FF625A60704700BF000000210246024B10
:101198000068516803C370473C090021084B0146A9
:1011A8000068496803F1080203C2196920EA0102CC
:1011B80059699A60DA6822EA0102DA60704700BF6A
:1011C800000000210138064BC0F3421200F01F0056
:1011D80003EB82039B6823FA00F000F001007047DC
:1011E80000000021014B1860704700BF440900212E
:1011F80010B5FFF787FF0020FFF710FF22F07CF9FA
:10120800034B04461B6803B19847204610BD00BF36
:101218004409002138B5274C0546D4F8A4320133D7
:1012280006D1D4F8A8324FF6FF729BB293423ED053
:10123800D4F8A032DB073AD5D4F8A422D4F8A832DF
:10124800C5F80120A5F80530C3F3072363F03F0371
:10125800AB71D4F89032013323D0D4F894320133EF
:101268001FD0D4F8983201331BD0D4F89C32013304
:1012780017D0002001F03CFA98B9D4F89002D4F8BD
:101288009412D4F89822D4F89C32C5F80700C5F80F
:101298000B10C5F80F20C5F81330012300202B7060
:1012A80038BD10220021E81D1DF074FFF5E700236A
:1012B800F4E700BF0000FF0110B51022002104462A
:1012C8001DF068FF10220021A0181DF063FF224BBB
:1012D800D3F8802201320BD1D3F88422013207D10E
:1012E800D3F88822013203D1D3F88C2201320BD0F3
:1012F800D3F88002D3F88412D3F88822D3F88C323A
:1013080020616161A261E361002001F0F1F9124BF3
:1013180018B9D3F8A022D2071CD4D3F890220132EE
:101328000BD1D3F89422013207D1D3F89822013295
:1013380003D1D3F89C3201330CD0074BD3F8900279
:10134800D3F89412D3F89822D3F89C3220606160C5
:10135800A260E360002010BD0000FF0180B588B0E6
:1013680000AF786039603B681B88BB83BB8BC3F3D5
:101378000E037B837B68DB7C184620F079F90346F3
:101388003B837B681A883B8B1344FB827B6818334A
:101398003B617B8B3A691344FB603B8BFA6812888C
:1013A80092B21A44FB8A13445A1EFB8A92FBF3F347
:1013B8009BB2FA8A02FB03F37B817A8B7B89134405
:1013C800FB837B685B88FA8B9A420AD2B7F91C20A8
:1013D8000A4B13401AB2B7F91E3013431BB2FB83F2
:1013E80005E0BB8BDB439AB2044B1340FB833B689D
:1013F800FA8B1A8000BF2037BD4680BD0080FFFFF2
:1014080080B483B000AF0346FB71FB79064A32F81B
:10141800133003339BB223F003039BB218460C37F7
:10142800BD4680BC704700BF4CDD020180B483B06C
:1014380000AF0023FB71254B1A78FB791344FB712D
:10144800224B5A78FB791344FB71204B1A7AFB79AB
:101458001344FB711D4B9B78BB71FA79BB7993429E
:1014680038BF1346FB71194BDB787B71FA797B79AE
:10147800934238BF1346FB71144B1B793B71FA79C1
:101488003B79934238BF1346FB71104B5B79FB7075
:10149800FA79FB78934238BF1346FB710B4B9B7963
:1014A800BB70FA79BB78934238BF1346FB71074B80
:1014B800DB797B70FA797B78934238BF1346FB71EE
:1014C800FB7918460C37BD4680BC70474809002197
:1014D80080B588B000AFF8600B467A60FB72FB6895
:1014E800002B0CBF01230023FB77FB7F002B01D0CF
:1014F800002301E007F10C03BB617968B86920F0AB
:10150800B8FD7861FB7F83F00103DBB2002B06D0C6
:10151800FB7AFA68044902339B000B445A607B69E2
:1015280018462037BD4680BD4809002180B586B0E1
:1015380000AF78600B46FB700023FB7529E07B68E1
:101548001B68033323F003031A467B681A60FB7D8C
:101558001846FFF755FF03461946FB7D114AD35C31
:1015680001FB03F33B61FB78002B01D0002301E072
:101578007B681B68F97D3A691846FFF7A9FFF86090
:101588007B681A68FB681A447B681A60FB7D013324
:10159800FB75FB7D082BD2D900BF00BF1837BD46AD
:1015A80080BD00BF4809002180B485B000AF7860D5
:1015B8000B46FB701346BB700023FB7332E07B685D
:1015C8001B68033323F003031A467B681A60BB7851
:1015D80083F00103DBB2002B1AD0FB7B7A68126818
:1015E80015490C3341F823200023BB730CE0FB7B27
:1015F800114A0C3352F82320BB7B9B001344002272
:101608001A60BB7B0133BB73BA7BFB789A42EED37B
:101618007B681A68FB789B001A447B681A60FB7B1E
:101628000133FB73FB7B082BC9D900BF00BF1437FC
:10163800BD4680BC704700BF4809002180B485B012
:1016480000AF0346FB710023FB81FB79012B02D11C
:10165800194B1B78FB81FB79082B07D1164B1B789C
:101668009AB2154B5B789BB21344FB810023BB8174
:1016780013E0BA89FB8913447B81FB790E4A0C334A
:1016880052F823207B899B0013441B68002B01D14F
:101698007B890BE0BB890133BB81FB79064AD35CAC
:1016A8009BB2BA899A42E4D34FF6FF7318461437AF
:1016B800BD4680BC704700BF4809002190B585B081
:1016C80000AF03460A46FB8013467B710023FB608C
:1016D800FB88184620F09DFD0346002B04D140F2FC
:1016E80089111720FFF7F0F97B791D4A0C3352F85E
:1016F8002320FB889B0013441B68002B04D04FF465
:10170800C5711720FFF7E0F97B79154A02339B0072
:1017180013445B68002B01D100231DE07B79104A3C
:1017280002339B0013445C687B791846FFF768FE18
:1017380003461946204620F0F1FCF860FB68002BB0
:1017480009D07B79064A0C3352F82320FB889B008A
:101758001344FA681A60FB6818461437BD4690BDF2
:101768004809002180B582B000AF03460A46FB80D5
:1017780013467B71FB88184620F04BFD0346002B6F
:1017880009D07B79064A0C3352F82320FB889B004A
:1017980013441B6800E0002318460837BD4680BD87
:1017A8004809002180B584B000AF786039603B6893
:1017B8009B781A463B685B781344FF2B04D940F2A8
:1017C800AD111720FFF780F93B681A783B685B7802
:1017D8009A4204D940F2B1111720FFF775F9002396
:1017E800FB737B68BB607B68002B0CBF0123002365
:1017F800BB733B685A78FB7B1344FB733B689A784E
:10180800FB7B1344FB73FB7B7B733B681A7A7B7B04
:1018180013447B733B685A7A7B7B13447B733B6826
:101828005B797A7B934238BF13467B733B68DB78DE
:101838007A7B934238BF13467B737B6803F00303BC
:10184800002B04D04FF4E5711720FFF73DF93B68F2
:101858005A781B4B1A703B689A78194B5A703B6838
:10186800DA78174B9A703B681A79154BDA703B682F
:101878005A79134B1A713B689A79114B5A713B6824
:10188800DA790F4B9A713B681A7A0D4BDA713B681B
:101898005A7A0B4B1A72BA7B07F10803114618469D
:1018A800FFF744FEBA7B797B07F108031846FFF778
:1018B8007BFEBA687B68D31A18461037BD4680BDD0
:1018C8004809002180B582B000AF0346FB71FB795F
:1018D800082B04D940F203211720FFF7F5F8FB790C
:1018E800024AD35C18460837BD4680BD4809002126
:1018F80090B585B000AF03460A46FB8013467B715E
:10190800FB884FF6FF72934202D143F2020334E0A0
:101918007B79082B01D907232FE07A79FB881146B8
:101928001846FFF71FFFF860FB68002B23D07B7970
:10193800144A52F82330FA88F968104698477B7998
:10194800114A0C3352F82320FB889B0013440022D1
:101958001A607B790C4A02339B0013445C687B79DC
:101968001846FFF74DFD03461A46F968204620F051
:1019780037FC002301E043F2020318461437BD4642
:1019880090BD00BF28DD02014809002180B584B060
:1019980000AF78607B689B79BB73FFF747FD034610
:1019A8007B737B68DB79FB7323E0BB7B174A0C33C3
:1019B80052F82320FB7B9B0013441B68002B15D097
:1019C800FB7B0133DAB27B68DA71FB7B9AB27B6806
:1019D8009A80BB7B0D4A0C3352F82320FB7B9B007B
:1019E80013441A687B681A6000230AE0FB7B013302
:1019F800FB73FA7B7B7B9A42D7D37B68FA7BDA71DD
:101A0800052318461037BD4680BD00BF4809002190
:101A180080B582B000AF03460A46FB8013467B714F
:101A28007B79084AD35C9BB2FA889A4204D340F285
:101A3800B2211720FFF748F8FB88DBB218460837B1
:101A4800BD4680BD4809002180B483B000AF0023A3
:101A5800FB710023FB710DE00C4B1B685A68FB7986
:101A68009B0013441B68002B01D0002309E0FB797D
:101A78000133FB71054B1B681B7AFA799A42EBD349
:101A8800012318460C37BD4680BC70479C090021CD
:101A980080B586B000AFF8600B467A60FB72002311
:101AA8007B61FB68002B0CBF01230023FB74FB68E0
:101AB80003F00303002B03D086211820FFF704F856
:101AC800FB7A002B36D07968002020F0D2FA7861B2
:101AD8007B690C337B61FB7A9B007A6913447B61D9
:101AE800FB7C83F00103DBB2002B23D0144AFB6894
:101AF8001360134B1B68FA7A1A72114B1B68FA6849
:101B08000C325A600E4B1B685968FB7A9A000C4BD2
:101B18001B680A441A600A4B1B685868FB7A9B00CA
:101B28001A4600211DF036FB054B1B6879681846DC
:101B380020F09FFA7B6918461837BD4680BD00BF64
:101B48009C09002190B589B002AF044608461146A9
:101B58001A462346FB800346BB800B467B80134610
:101B68003B80344B1B68002B03D1A5211820FEF7BE
:101B7800ABFF304B1B681B7A9BB2FA889A4208D29B
:101B88002C4B1B685A68FB889B0013441B68002B6E
:101B980002D043F2020348E03A88BB88114618464F
:101BA80020F06EFD0346FB823A8D7B88114618466D
:101BB80020F07EFD0346BB82FB8ABA8A114618468E
:101BC80020F08EFD03467B821A4B1B681B687A8ABD
:101BD8001146184620F0A2FAF860FB68002B01D1E4
:101BE800042322E0BA8A7B8A1946F86820F01CFD93
:101BF800F86820F02CFD7A88B98A3B8D0093092378
:101C080020F02CFCF86820F02DFDBA88F98A3B8872
:101C180000930A2320F0ACFC064B1B685A68FB882B
:101C28009B001344FA681A60002318461C37BD4607
:101C380090BD00BF9C09002180B584B000AF034669
:101C4800FB80224B1B68002B03D1C6211820FEF70E
:101C58003BFF1E4B1B681B7A9BB2FA889A4208D23C
:101C68001A4B1B685A68FB889B0013441B68002B9F
:101C780002D143F2020324E0144B1B685A68FB8824
:101C88009B0013441B68FB60104B1B685A68FB8859
:101C98009B00134400221A600C4B1B681868FB68F1
:101CA8005B881A46F96820F09BFAFFF7CDFE0346D9
:101CB800002B05D0054B1B681B68184620F00EFA50
:101CC800002318461037BD4680BD00BF9C0900217F
:101CD80080B582B000AF0C4B1B68002B10D00023DE
:101CE800FB7107E0FB799BB21846FFF7A5FFFB796C
:101CF8000133FB71044B1B681B7AFA799A42F1D3C2
:101D080000BF0837BD4680BD9C09002180B584B05E
:101D180000AF0346FB800023FB60144B1B68002BBD
:101D280003D1EC211820FEF7CFFE104B1B681B7A5D
:101D38009BB2FA889A4213D20C4B1B685A68FB88EC
:101D48009B0013441B68002B0AD0084B1B685A6879
:101D5800FB889B0013441B68184620F078FCF86049
:101D6800FB6818461037BD4680BD00BF9C0900219E
:101D780080B584B000AF0346FB800023FB60144BA2
:101D88001B68002B03D1FA211820FEF79DFE104B8B
:101D98001B681B7A9BB2FA889A4213D20C4B1B68B9
:101DA8005A68FB889B0013441B68002B0AD0084B19
:101DB8001B685A68FB889B0013441B68184620F070
:101DC80051FCF860FB6818461037BD4680BD00BF5F
:101DD8009C09002180B586B000AF7860084611469E
:101DE8001A460346FB700B46BB7013463B807B6864
:101DF800002B0CBF012300233B7400237B61FA787E
:101E0800BB781344DAB23F4B1A707B6803F00303C4
:101E1800002B03D04E210920FEF756FE3B881F2BCE
:101E280003D83B889B007B821CE03B88FF2B0FD9A3
:101E38003B8803F1FF023B885B009A4203DA3B8848
:101E4800FF339BB202E03B885B009BB27B8209E0D8
:101E58003B885B007C2B03DD3B885B009BB200E08A
:101E68007C237B827B8A03339BB223F00303FB81B1
:101E78003B7C83F00103DBB2002B05D0224A7B6850
:101E88001360224AFB8913801E4B1B781A4613469F
:101E98009B001344DB001A467B6913447B610023D3
:101EA8007B7422E03B7C83F00103DBB2002B15D06E
:101EB800154B19687A7C13469B001344DB000B44CE
:101EC80001221A70104B19687A7C13469B00134440
:101ED800DB000B4479687A690A445A60FB897A699D
:101EE80013447B617B7C01337B74064B1B787A7CC3
:101EF8009A42D7D37B69073323F00703184618376C
:101F0800BD4680BDA0090021A4090021A80900211F
:101F180080B588B000AF78600B46FB707B685B6863
:101F28007B61FB78002B30D07B6801225A70404BD4
:101F38001B88184620F080FC0346FB810023FB61C8
:101F48001FE07B68FA690C32002123F812107B68C5
:101F5800FA691032F98923F81210FB89FA6902FB31
:101F680003F37A691A447968FB699B000B445A6049
:101F78007A68FB691344143300221A70FB69013331
:101F8800FB61FB69032BDCD94DE07B6800225A70AA
:101F98000023BB611AE07B68BA690C32002123F880
:101FA80012107B68BA691032002123F812107A687F
:101FB800BB699B00134400225A607A68BB691344CA
:101FC800143300221A70BB690133BB61BB69032B50
:101FD800E1D9174B1B88184620F03BFC03467B824F
:101FE800134B1B88184620F047FC03463B827B684E
:101FF8007A695A607B683A8A1A843B8A7A691A44F1
:102008007B689A607B687A8A5A847B687A69DA6026
:102018007B683A8A9A843B8A7A691A447B681A618F
:102028007B687A8ADA8400BF2037BD4680BD00BF4E
:10203800A809002180B584B000AF0023FB6000230D
:10204800FB7217E01D4B1968FA7A13469B0013447C
:10205800DB000B441B78002B09D0184B1968FA7A5F
:1020680013469B001344DB000B44FB6007E0FB7A3C
:102078000133FB72124B1B78FA7A9A42E2D3FB685F
:10208800002B03D1A9210920FEF71EFDFB68002BB8
:102098000ED0FB6802337B6000BF7B6800221A7099
:1020A80000BF0121F868FFF733FFFB6800221A70B0
:1020B800FB6818461037BD4680BD00BFA409002143
:1020C800A009002180B582B000AF0C4B1B881846D0
:1020D80020F0B2FB0346FB80084B1B88184620F013
:1020E800CBFB0346BB80FA88BB88934238BF1346B4
:1020F8009BB218460837BD4680BD00BFA80900211D
:1021080080B586B002AF78600B46FB701346BB7093
:102118002E23FB73BB789BB2FA7892B2F97B1846F0
:1021280020F0FEF90346BB817B68002B13D0BB78F7
:102138009AB2FB789BB2F87BB9890093034678681A
:1021480020F0A6F9064A7B681360064AFB781370EC
:10215800054ABB781370BB8918461037BD4680BD49
:10216800AC090021B0090021B109002180B500AFF8
:10217800054B1B68054A1178054A12781846FFF77F
:10218800BFFF00BF80BD00BFAC090021B00900211E
:10219800B109002180B400AF024B1B681846BD4648
:1021A80080BC7047AC09002180B400AF024B1B789B
:1021B8001846BD4680BC7047B109002180B584B07F
:1021C80000AF03460A46FB8013467B717B79002BE0
:1021D8000FD1FB8805211846FFF71AFC0346BB738D
:1021E8000D4B1B68BA7B0D49098801FB02F21344A9
:1021F8000EE0FB8806211846FFF70AFC0346FB732E
:10220800074B1B68FA7B0749098801FB02F2134454
:1022180018461037BD4680BDBC090021C2090021FF
:10222800C8090021CC09002180B586B002AF7860CA
:102238000B46FB701346BB70BB789BB21A46032152
:10224800F72020F0DDF9034603339BB223F00303A4
:10225800BB817B68002B28D07B6803F00303002B2D
:1022680003D071211920FEF72FFC144A7B681360F4
:10227800134ABB8913800023FB8111E0FB890121EC
:102288001846FFF79BFFB860BB789BB2B9890093EB
:102298000323F722B86820F085F9FB890133FB8115
:1022A800FB789BB2FA899A42E8D3FB78BA8902FB99
:1022B80003F318461037BD4680BD00BFC80900218A
:1022C800CC0900210122104B4FF0FF3000215A6049
:1022D800C3F8080303F580539A60C3F80012C3F8E3
:1022E8000803C3F80015C3F804259A60C3F8080367
:1022F800C3F80015C3F8042503F5805341F6F872B6
:10230800C3F80825704700BF00D000410A4B4FF4BE
:102318000052C3F88020BFF34F8FBFF36F8FC3F80D
:1023280080214FF48042C3F88020BFF34F8FBFF362
:102338006F8FC3F88021704700E100E008B5FFF710
:10234800C1FFFFF7E3FF00F01BF8054B41F6F872F9
:10235800C3F8082500F0AAF8BDE8084000F0AEB8B8
:1023680000F0004108B5FFF7ADFFFFF7CFFF034BC3
:1023780041F6F872C3F8082508BD00BF00F0004117
:1023880010B5054C204622F025F918B127211D204B
:10239800FEF79AFB607010BDCE0900212DE9F047C9
:1023A80007462B4E2B4C2A4822F018F9054608B14F
:1023B800FF2373704FF001080023DFF89C90C4F8E6
:1023C8000480C4F80031C4F80431C4F80475C4F8B2
:1023D8000080D4F8003113B9D4F80431E3B1D4F84B
:1023E8000431002BE8D1A5B996F801800323757054
:1023F8004FF400523046C4F80833184BC4F804515F
:10240800C4F80051C3F8802122F0F7F8B8F1000FA2
:10241800C9D10020BDE8F087D9F81030DB06D8D53F
:102428000E4B4FF40052C3F88021EFF3108A72B6B6
:102438000323C4F80433D4F8003123B9D4F80431A1
:102448000BB922F0E5F8BAF1000FC2D162B6C0E7C5
:10245800CE09002100D0004100ED00E000E100E0DD
:10246800114B1A6870B5E2B15A680C210125013286
:102478001E680C2A28BF002205FA02F426420DD055
:102488005A60EFF3108172B61A6822EA04021A60E1
:1024980001B962B65B680360002070BD0139E6D1FE
:1024A8005A600520F9E700BFD0090021024B00223D
:1024B8001A605A60704700BFD0090021014B002202
:1024C8001A707047D8090021084B10B51C784CB910
:1024D8001CF056FD064BFF28187005D173211F20EC
:1024E800FEF7F2FA0F2010BD2046FCE7D8090021BC
:1024F8001800002110B5044C2078FF2803D01CF0E8
:102508005BFDFF23237010BD18000021044B4FF61C
:10251800FF7200219A86DA8683F832101A8770478C
:10252800240A0021044B4FF6FF7200219A86DA86AE
:1025380083F832101A877047240A0021054B9A8EB7
:10254800824205D100214FF6FF7283F832109A8635
:10255800704700BF240A0021014BD886704700BF8E
:10256800240A00210A4A4FF6FF710346B2F834C024
:102578008C4503D0002210461A60704792F832103A
:10258800012902D001201A6070470020704700BF5F
:10259800240A0021064B93F83220012A06D0012292
:1025A800D98E104683F832209986704700207047EC
:1025B800240A0021014B1887704700BF240A002114
:1025C800074B0246B3F834C0198F8C4501D0002060
:1025D800704793F832000028FAD001201360704742
:1025E800240A0021094B998E1A8F914201D00020AC
:1025F80070474FF6FF7193F832209986002AF6D07B
:102608000022012083F83220704700BF240A0021ED
:10261800064B998E1A8F914201D00120704793F88A
:102628003200B0FA80F04009704700BF240A002148
:10263800704700BF034648B9094B4FF0010C0868C2
:102648008A88586003F804CB9A807047012800D024
:102658007047034A086889889372D060118270476E
:10266800600A002140B90C4A13781BB150681289DE
:1026780008608A8018467047012809D1064A937A6B
:10268800002BF7D0D068128A086018468A807047F5
:1026980000231846704700BF600A002100B580EA91
:1026A800020C1A78087891F805E050404A7860449E
:1026B80093F801C082EA0C0291F802C002449878AB
:1026C8008CEA000CC8789444DA7850400A7900EB18
:1026D8000C0193F804C0587982EA0C038EEA0002D0
:1026E8000B44DA420CBF012000205DF804FB00BF58
:1026F80010B9054B18787047012802D1024B987A17
:1027080070470020704700BF600A002130B50346BB
:102718008DB0CA780D46002400685968EC468DF8DB
:102728001F209A68DB6806948DF81C40CDE90444A4
:10273800ACE80F002B7968468DF81E306B798DF860
:102748001D3020F079FB2A789DF82F309A4202D06C
:1027580020460DB030BD6A789DF82E309A42F7D1E8
:10276800AC789DF82D00201AB0FA80F040090DB021
:1027780030BD00BF30B50C46032105468DB060184A
:1027880052B3FEF723FC6379EC4603F03F0343F0B2
:10279800400363718DF81D300023286806938DF877
:1027A8001C306968AA68CDE90433E3788DF81F30D6
:1027B80023798DF81E30EB68ACE80F00684620F0EE
:1027C8003BFB9DF82F109DF82E209DF82D30217091
:1027D8006270A3700DB030BDFEF706FCD3E700BFF2
:1027E80010B5044639B10621FEF7F0FB637903F012
:1027F8003F03637110BD0621FEF7F6FB637903F012
:102808003F03637110BD00BFF0B52E230E460A4C7E
:102818008446002726F8043B8CF808703346206865
:102828006168A268B4F80CE09CF8085007C3A3F8E4
:1028380000E0002DF0D1F0BD860A002170B5224DD0
:10284800296BEC6A0B78A83403F00303032B1AD125
:10285800EB8E0120AA8E0343207442F40062EB86BB
:10286800AB6BAA869847296B237E013B18BF0123CF
:1028780023764B7833B1D4E92032013342F1000298
:10288800C4E9203270BD002BEED04B78002BEBD082
:10289800AA8E42F40062AA86EA6B002AF2D0FB2BC9
:1028A80008D895F8403063B1AB6B00212020BDE813
:1028B8007040184795F8413043F0100385F84130CF
:1028C80070BD01230370CFE7780A002170B57E4CF4
:1028D800002382B0E56A8DF8053095F8CB2005F124
:1028E800A80694F876300AB10433DBB2FF2B11D175
:1028F80080B995F86F3095F86E108B4202D0FF20A2
:1029080017F076F8B37D032B00F2D980DFE803F0E7
:10291800051F7F6F95F86E10F1E794F877306B48D4
:10292800ADF80630A5F85430FFF74AFE002840F00D
:102938009D800DF105020DF10601E06F1FF019F8F9
:10294800A06720B196F85D30002B00F0A280604BA4
:102958001846A367F37DDB0003F00802037803F051
:10296800F3031343327E920002F00402134303F090
:10297800EF0203F00303032B027002D1C378022B8A
:1029880011D0E06F1FF020F948B9A06F027802F06B
:102998000303032B07D0FFF73BFE002876D1A06F77
:1029A800027842F01002027096F8223013B1437890
:1029B800002B46D117F0B0FA16F03EFE6A6941F6D0
:1029C8004B539A4236D8012195F86F20084617F0E4
:1029D8006BFBA26F01233F491088927884F8B030CE
:1029E800A4F8B40084F8B7308A7002B070BD3748D4
:1029F800FFF7E6FD00285DD0A06FC3781B2BA9D197
:102A0800012105F1100017F025F8A06FA2E7B5F82D
:102A180054300DF105020DF10601E06FADF80630F6
:102A28001EF0A7FFA067002894D140F2E9212720D3
:102A3800FEF74AF895F86F200121002017F034FBC3
:102A4800C7E7D4F8800017F067FA94F82810D4F88C
:102A58008000D6E91E23B1FA81F6A16F7609C4E990
:102A6800262384F8A06016F08DFDA7E7E38E80206A
:102A7800A16F43F08003A26BE38690470121A06F0A
:102A88007174C3781B2B7FF465AFBAE7A06F027827
:102A980089E79DF805302BB1BDF8061003F03AFE22
:102AA800A06F57E7038001218370A06F03F0F8FB44
:102AB800A06FF1E740F2F2212720FEF705F840F277
:102AC800FF212720FEF700F8780A0021F00A0021EC
:102AD800BC0A00212C0B002110B5134C17F0F2F89A
:102AE80016F0AAFD0021A36BA08E9847237F53B947
:102AF800D4F8BC3094F8411094F8B80098470023F3
:102B080084F8B73010BD234607CB1B88C4F80E00E5
:102B180004F11D00C4F81210C4F816202422034939
:102B2800638304F099F9E3E7780A0021112800018A
:102B3800034B93F8B73003B97047FFF7CDBF00BF19
:102B4800780A0021174A92F828307BB180B992F8A8
:102B5800B410C9060ED503B30021D38E9B0714D534
:102B6800936FDB78981E18BF012070470128EED0BC
:102B780000207047D2F8C010D06B0978C1F300115B
:102B8800C1F1010120B1002BE7D131B1012070471B
:102B9800B2F8C4000028F9D1F5E7D08E003818BF84
:102BA80001207047780A002108B5094B93F8B7202F
:102BB800022A07D11A7B42F001021A73BDE80840C5
:102BC800FFF78ABF40F24D212720FDF77DFF00BFA8
:102BD800780A0021F8B52C4C0646E56AD4F8C030CE
:102BE80095F8CB2005F1A80794F8760023630AB17D
:102BF800031DD8B2FF2895F86F1004D11EB995F8B7
:102C08006E30994203D016F0F3FE97F823205AB39A
:102C1800D4F8800017F080F994F82830D4F88010A0
:102C2800003B206B18BF012384F8A030D7E920238C
:102C3800C4E9262316F0A6FC3EB995F86F0010F0FB
:102C48000C0018BF282017F0C7F96A6941F64B53E2
:102C58009A420FD895F86E200021012017F024FA27
:102C6800022384F8B730F8BD206B17F055F916F039
:102C7800E3FCE1E7002195F86E20084617F014FA06
:102C8800022384F8B730F8BD780A00212DE9F04115
:102C9800444C82B006460F4694F8B720E56A012AEC
:102CA8005FFA82F805F1A80577D12B7C6BB1E38E2A
:102CB8000021042043F004032974E386A36B98479A
:102CC80094F828300BB185F81280A16F0A7802F0C9
:102CD8000302032A44D04B78EBB10223AB7595F875
:102CE800233023B3E36A93F86F1094F8283001393E
:102CF800003B18BF012384F8A030D5E92023C4E99C
:102D0800262394F87620072942D8DFE801F03E0907
:102D180041074141413B0123AB75E0E74FF0030810
:102D280000214346012000911F4916F0CDFB012FD9
:102D380011D186B9D4F8C8303046984758B194F8BC
:102D4800413043B93046FFF7FDFE20B902B0BDE877
:102D5800F041FFF73FBF02B0BDE8F041FFF7BCBE4E
:102D6800AB7D63B9E38E022043F00203E386A36BD5
:102D78009847A16F0B7803F00303032BABD1032310
:102D8800AB75ACE74FF00208CAE74FF00008C7E799
:102D980040F222410620FDF797FE40F275412720B8
:102DA800FDF792FE780A0021000B002170B50B4C4C
:102DB80094F8B73073B906460D4603F0FF020121B7
:102DC80004F14400227703F06BFAC4F8C060C4F839
:102DD800805070BDD0212720FDF776FE780A0021AB
:102DE800044A92F8B73003F0FF000BB91077704728
:102DF8000C207047780A0021024B012283F84020FA
:102E0800704700BF780A00212DE9F04385B0BD4C1A
:102E180002AD85E8030094F8B7100C98002940F03B
:102E2800EC81002B18BF002A00F0E781002800F091
:102E3800E48101F0FF06C4F8C830C4F8BC0004F10E
:102E48002803A26384F8406084F8416084F8CC6069
:102E580084F8B86084F8B060E686A68695E8030032
:102E680083E80300E56A16F049FE16F0E5FB95F9DC
:102E7800720005F1A80716F001FF286A17F030F86C
:102E8800A86916F007FF97F8330016F00DFF94F8BD
:102E98002830002B00F0AD8004201CF04FFA6A693E
:102EA80041F64B539A4200F2C180012017F0F6F820
:102EB8004D2016F057FD95F86F10012017F03AFED7
:102EC800002800F0AC80904817F010F82888FEF72A
:102ED8004FFFE0672888FEF719FF95F87B30C4F8A4
:102EE800D0001BB9696F002940F0CF80D7F8943023
:102EF800DFF818C2D7F88800D7F88C10D7F89020D8
:102F0800ACE80F00D7F89830C4F8A130D7F89C3057
:102F1800CCF80D3094F82830002B40F08B80E36A11
:102F280093F8C520263A012A40F2D68093F8C620A5
:102F3800262A00F0D18093F86E10042900F014813D
:102F480011F00C0FA88F18BF4FF4296002F004F895
:102F58002B8F95F86F10834297F82390B5F840802F
:102F680028BF03460829B5F8420008BF042184F8A1
:102F7800773001F0F1FFB9F1000F01D1043080B2D0
:102F8800404528BF40465FFA80F884F8D48004F0B2
:102F98004BFA20B1B8F12B0F38BF4FF02B0894F83B
:102FA800281084F87680002940F0D38097F82230E2
:102FB800002B00F0B580012395F86E6084F8A030EE
:102FC800013E6869D7E91E23C4E9262341F64B531D
:102FD800984294BF04200020072E00F2E580DFE825
:102FE80016F09800FA00E3009700E300E300E3001E
:102FF800FC0003201CF0A2F96A6941F64B539A427F
:1030080010D8012017F04AF84D2016F0ABFC95F8BF
:103018006E10002017F08EFD00287FF454AF05B025
:10302800BDE8F083962016F09DFCF0E7962016F098
:1030380099FC40E7E26A92F8C530A3F1260101291C
:1030480034D992F8C600262830D0A3F121011346BE
:10305800012900F2C880242840F0AB8092F867105C
:1030680092F866310B4092F86E105A077CD413F030
:10307800010275D19B077FF563AF042974D0082935
:1030880072D0012918BF022124E0B7F84A20BB8A70
:1030980093427FF42BAFB5F8782013440122A7F8A8
:1030A8004A3095F87A0018F0E5FE1FE792F8D63313
:1030B80092F86E10002B3FF443AF082954D004292E
:1030C80052D0082B50D0042B4ED0012901D0012B0F
:1030D80015D10121A88F39E793F8322393F86E10A0
:1030E800002A3FF42DAF08293ED004293CD0082AF5
:1030F8003AD0042A38D00129EBD0012AE9D002219C
:10310800E8E700BF780A002160DD0201000B00211A
:10311800032100220B463E490092FB2216F0D4F907
:103128000120FFF7D3FB3B4BD3F8503523F00803BE
:10313800032B67D0002397F83320C4E90033A3603A
:10314800A3812988BB8A21802271638005B0BDE8EC
:10315800F08397F823305BB90120FFF73BFDE2E7E6
:10316800042901D0082946D108214FF42960EDE649
:1031780095F86F300122D7E92001013B84F8A0209F
:10318800C4E92601072B0FD8DFE803F005290E0450
:103198000E0E0E2B032600213346424601200091D5
:1031A8001B4916F091F9D7E740F222410620FDF7B6
:1031B8008BFC92F8663192F86E105A07D4D413F04B
:1031C800010214D198077FF5BBAE0829CCD0042999
:1031D8007FF457AFC8E701219BE7022199E7012651
:1031E800D9E70226D7E724287FF4A5AE36E70829D1
:1031F800BAD00429B8D011466CE740F2451127200F
:10320800FDF762FC40F202212720FDF75DFC00BFBC
:10321800000B00210080004110B5174C94F8B7301E
:10322800DBB194F828307BB194F8B730022B1ED16B
:10323800E36AD3F8100316F0A5FEE36A93F87B203F
:103248000AB9596F61B910BD94F8B730012BF4D0A1
:1032580040F21A212720FDF737FCFFF73DFCECE789
:10326800114693F87A00BDE8104018F003BE40F20A
:103278001E212720FDF728FC780A0021FFF72CBC27
:10328800014B1877704700BF780A0021014B93F86B
:10329800B0007047780A0021024B988EC0F3802056
:1032A800704700BF780A0021014B93F8CC007047A3
:1032B800780A00212DE9F0411E4F820782B00546A9
:1032C800FC6A0E4604F1A80411D4EB070CD5217E44
:1032D800D4E92032013342F100020129C4E9203245
:1032E8000CBF00230123237602B0BDE8F081FB6BFD
:1032F800DBB1B7F8C4201846396B033291F8018066
:103308001BF0D2FE0DF1020201A93863D7F8D000F4
:103318001EF028FE01981EF0E9FD012230604146AA
:10332800D7F8D0001EF012FDCFE740F26641272003
:10333800FDF7CAFB780A00212DE9F047002386B083
:10334800A54C06468DF80F300F46E56ACDE90433E3
:1033580094F8B730A835022B5FFA83F840F08981DA
:10336800A38E13F0400106D1A36B40209847A38E8B
:1033780043F04003A386002E61D095F82330002B3C
:1033880040F00A81236B597889B2A4F8C410002947
:1033980040F016810022E2631A78E87DA38EC2F31A
:1033A800800143F480738842A38600F0DF80E16ADD
:1033B80094F8280001F1A80999F81610D9B1022942
:1033C80000F03E81002189F8161020B199F81230DA
:1033D800002B40F02B8199F81130002B40F002812E
:1033E80099F81730012B0CBF0023012389F81730F7
:1033F800236B1A78A38E43F480634FF00009A386E9
:10340800C2F3C0022B7E934228D104F00DF80028A5
:1034180000F0BD80226B137803F00303013B012BFE
:1034280000F2B580527894F8D4309A4240F2AF80D6
:1034380094F8413043F0100384F841300EE095F8D9
:103448002320002A40F0C38043F400734FF00009A2
:10345800A38694F8CC30013384F8CC3095F8223028
:103468003BB394F8283041F64B52B3FA83F35B0927
:1034780084F8A030E36A586993F86E10904294BFBC
:10348800042000200139D5E91E23C4E92623072991
:1034980000F2C480DFE801F07804C275C2C2C20637
:1034A8004FF00108002243464C490092FB2216F0D7
:1034B8000BF8002F45D194F8CC30012B41D8D4F823
:1034C800C8300120984700283BD094F84130002BA1
:1034D80037D10120FFF736FB0746002831D1FFF727
:1034E800F5F99DF80F30002B32D1B9F1000F06D055
:1034F80094F82830002B3BD163890133638166B38C
:10350800E38800223648013384F8CC20E38004F0B5
:103518002BFC049840B11EF0E9FCE16A00230E225E
:103528000130037203F076FC059B33B1E16A002099
:103538002A221872059803F06DFC97B906B0BDE809
:10354800F08716F015FE9DF80F300127002BCCD020
:1035580005A90220FFF7AEFEC7E7238901332381BF
:10356800D7E7FFF7B9FA06B0BDE8F087B14647E7F5
:10357800E3882189AA8A0B4313439BB2002BBED050
:10358800BAE74FF003088DE74FF000088AE70DF11E
:103598000F00FFF753F961E716F092F816F074F888
:1035A800236B597800287FF4EFAE00293BD01B78B5
:1035B8002A7EC3F3C0039A4255D089B2A4F8C41036
:1035C800D4F8D0001EF04DFB236BE063E4E616F060
:1035D800B1F8A38E38E700BF780A0021000B00215C
:1035E800A00A00214FF0000A89F811A0FEF7FAFF9F
:1035F800002848D0E38E5146082043F00803E386AC
:10360800A36B9847D9F878300133C9F87830D9F8DE
:103618007C3043F10003C9F87C30E1E640F22241F6
:103628000620FDF751FAA4F8C410B3E6E38E102083
:1036380089F8121043F01003E386A36B9847CAE693
:1036480004A9E06F1EF0E8F9C0B1D9F8783094F811
:1036580028000133C9F87830D9F87C3043F10003E9
:10366800C9F87C30AEE6012384F8B830FFF734FAA5
:1036780064E740F2EA412720FDF726FA40F2E331F9
:103688002720FDF721FA40F2FA312720FDF71CFA2E
:10369800464B9A786AB393F8031181422FD0012AD6
:1036A80027D093F80411814229D0022A21D093F817
:1036B8000511814223D0032A1BD093F806118142B9
:1036C8001DD0042A15D093F80711814217D0052A76
:1036D8000FD093F80811814211D0062A09D093F827
:1036E800091181420BD0072A03D093F80A2182429C
:1036F80005D01A78013AD2B290421A7000D17047B8
:10370800D200C10002F2531201F2531110B59C58B5
:103718001A4403EB010CD2F804E05C509A7819784B
:10372800CCF804E06AB393F803418C422FD0012A05
:1037380027D093F804418C422BD0022A21D093F849
:1037480005418C4229D0032A1BD093F806418C42AC
:1037580021D0042A15D093F807418C421FD0052A9E
:103768000FD093F808418C421DD0062A09D093F84F
:1037780009418C4215D0072A03D093F80A218A42BE
:1037880000D010BD0722134483F8030110BD0022A6
:10379800F9E70122F7E70322F5E70222F3E704221B
:1037A800F1E70622EFE70522EDE700BF500B002105
:1037B800044B9A78824203D9184490F84301704721
:1037C80000207047500B002108B50B4B40F2D31274
:1037D800002118461BF0DEFC002203464FF0FF31A3
:1037E8004FF4617083F8DC2183F8DD21A3F8DE0152
:1037F800C3E9751108BD00BF500B00212DE9F84F32
:10380800DFF804A105469AF80040002C6BD091F827
:1038180000B0534691F801904FF0000E91F80280E5
:10382800CF780E79487906E00EF1010E08335FFA79
:103838008EF2944237D993F8532193F854C16A40D1
:103848008BEA0C0C624493F855C189EA0C0C62446B
:1038580093F856C188EA0C0C944493F857217A409F
:10386800944493F858217240624493F859C180EA0D
:103878000C0C1CEB020FD7D10EF12A0E0AEBCE0E60
:103888009EF80A3013F001000BD19AF80120072A9C
:1038980007D843F001038EF80A30013201208AF874
:1038A8000120BDE8F88F9AF80130072B02D90020D3
:1038B800BDE8F88F631C0F2C8AF8003020D82A3412
:1038C800E3B2DB00043308680AEBC4044AF80300D7
:1038D80053448A889A80A37A9AF8012043F0010316
:1038E800E570A372D9E79AF80130072B01D9204671
:1038F800D7E701224FF4AA732A248AF80020E2E7C6
:1039080046212820FDF7E0F8500B00212B4B2DE92C
:10391800F04F1E7885B0002E4ED00B790025074653
:1039280091F800B0019328464B7991F801A00293D1
:1039380091F8029091F80380204B039604E001353A
:10394800039AE8B2824233D993F85311083393F8B3
:103958004C4193F84D2179408BEA040493F84EE1E9
:103968008AEA0202019E214489EA0E0E93F84FC1A9
:103978000A4493F8501188EA0C0C93F851417244A8
:103988007140029E6244744011446118D7D10B4AB9
:103998002A35537802EBC505013B5370AB7A61F3C6
:1039A8000003AB72FFF774FE012005B0BDE8F08F8D
:1039B800002005B0BDE8F08F3046F6E7500B002137
:1039C800014B83F8DD017047500B0021014B93F840
:1039D800DD017047500B00215E4A1378013B5BB252
:1039E800002BC0F2A48010B505E0DBB2013B5BB24E
:1039F800591C00F0988003F12A0002EBC0018C7A70
:103A0800E407F2D592F801C0DBB291F80AE00CF1B4
:103A1800FF3C94786FF3000E82F801C081F80AE049
:103A28006CB392F803119942E0D0012C27D092F898
:103A380004119942DAD0022C21D092F8051199424A
:103A4800D4D0032C1BD092F806119942CED0042C66
:103A580015D092F807119942C8D0052C0FD092F8CA
:103A680008119942C2D0062C09D092F8091199423E
:103A7800BCD0072C03D092F80A119942B6D011781D
:103A88000139C9B28B421170B0D0C900C00001F22F
:103A98005311033052F801E011441418D1F804C04E
:103AA80042F800E091781078C4F804C000299DD04D
:103AB80092F8034184423ED0012997D092F80441FC
:103AC80084423AD0022991D092F80541844238D0F4
:103AD80003298BD092F80641844230D0042985D03E
:103AE80092F8074184422ED005293FF47FAF92F81F
:103AF8000841844229D006293FF478AF92F8094159
:103B0800844224D007293FF471AF92F80A11814208
:103B18007FF46CAF0721114481F80331013B5BB29C
:103B2800591C7FF468AF002382F8DD3110BD0023F3
:103B380082F8DD3170470021EDE70121EBE7032131
:103B4800E9E70221E7E70421E5E70521E3E70621A4
:103B5800E1E700BF500B00212DE9F04F85B00025AB
:103B68000393514B15701F780292002F70D00B7978
:103B78002E4691F800B000934B7991F801A001937B
:103B880091F8029091F80380474B03E00135EEB2BB
:103B9800BE425DD293F85311083393F84C4193F821
:103BA8004D2141408BEA040493F84EE18AEA02026F
:103BB800214489EA0E0E93F84FC10A4493F8501134
:103BC80088EA0C0C93F851419644009AE644514017
:103BD800019A714454406118D8D10A463249029872
:103BE80001EBC50595F85A31C3F3000303708B78D0
:103BF80073B32D4890F80311B1422ED0012B27D072
:103C080090F80421B2423DD0022B21D090F8052132
:103C1800B2423AD0032B1BD090F80621B24237D0DB
:103C2800042B15D090F80721B24234D0052B0FD0C1
:103C380090F80821B24231D0062B09D090F809211A
:103C4800B2422ED0072B03D090F80A31B34203D0EA
:103C5800012005B0BDE8F08F07221346039921B172
:103C68000A70114989789142F2D90F4A134493F89E
:103C78003B2193F84B01012A08BF40F0010005B031
:103C8800BDE8F08F01221346E8E702221346E5E774
:103C980003221346E2E704221346DFE70522134610
:103CA800DCE706221346D9E7500B00212DE9F04F37
:103CB8006A4D85B0044628780391CDE90123002890
:103CC80000F0BE804B794FF0000E91F800B00093E1
:103CD800F44691F801A02B4691F8029091F80380E0
:103CE8000F7907E00EF1010E08335FFA8EFC60458C
:103CF80040F29B8093F8541193F853218BEA010604
:103D08006240911993F855618AEA0606721893F889
:103D1800561189EA01018E1893F8572188EA0202A0
:103D2800911993F85821009E7A400A4493F8591142
:103D380071406646D142D5D1AC78002C4AD095F86E
:103D48000321624578D0012C44D095F804216245BE
:103D580072D0022C3ED095F8052162456CD0032C18
:103D680038D095F80621624566D0042C32D095F8F3
:103D78000721624560D0052C2CD095F808216245B2
:103D88005AD0062C26D095F80921624554D0072C24
:103D980020D095F80A0160450CBF1220072005B015
:103DA800BDE8F08F431C0F282B7052D800F12A026F
:103DB800D3B2DB0004330399064605EBC202086858
:103DC800E8502B4489889980937AD4706FF3000364
:103DD800AC7893722701DDF80480621C2C44F81C2F
:103DE8004146AA701022284400F022FF07F1830000
:103DF80010222844029D294600F01AFF1021284667
:103E080000F0AAFE03461021404684F8433100F032
:103E1800A3FE0023024684F80361184684F83B3168
:103E280084F84B2105B0BDE8F08FAB78072BB9D9E2
:103E3800072005B0BDE8F08F122005B0BDE8F08F6F
:103E4800AB78072BF4D801232A222B704FF4AA73DE
:103E5800B1E746212820FCF737FE00BF500B0021B0
:103E6800774B1A78002A75D02DE9F04F85B00B7979
:103E7800002691F800B001934B79374691F801A0DC
:103E880091F8029091F8038002936D49039204E03F
:103E98000136039BF7B2BB4258D991F85341083118
:103EA80091F84C5191F84D3144408BEA050591F851
:103EB8004EE18AEA0303019A2C4489EA0E0E91F82E
:103EC8004FC1234491F8504188EA0C0C91F85151A4
:103ED80073445440029A634455401C442D19D7D169
:103EE800574A907898B392F80331BB4235D00128ED
:103EF8002CD092F80431BB4200F09280022825D0E1
:103F080092F80531BB4200F08E8003281ED092F84B
:103F18000631BB4200F08A80042817D092F8073196
:103F2800BB4200F08680052810D092F80831BB42C9
:103F380000F08280062809D092F80931BB420BD0E4
:103F4800072803D092F80A31BB4266D0002005B09A
:103F5800BDE8F08F1046704706252B46421EDFF855
:103F6800E0C0D2B29A428CF8022049D01001E34650
:103F78002B01C41C02EB420103F1030E6244A4446A
:103F88005BF804A00BEB0E048330DCF80880833365
:103F9800DCF804904900DCF80CC04BF80EA001F2E4
:103FA8000B11C4F80CC0C4F80490C4F808805C462F
:103FB8005BF8008004445846D4F804E01844D4F868
:103FC80008C0E4684BF8038005EB4503C0F804E03B
:103FD8005D44C4605B00C0F808C05C4692F8030109
:103FE80003F20B1385F8030160185BF801104BF816
:103FF80003105B448188998092F83B3185F83B3106
:104008000F4B03EBC60696F85A5115F001009ED1E6
:104018003846FFF73DFB012099E707252B469DE72A
:1040280001252B469AE702252B4697E703252B46C1
:1040380094E704252B4691E705252B468EE700BF1C
:10404800500B00217D4A9378013B59B20029C0F2F8
:10405800E58002EB01102DE9F04F01EB410E01F56F
:104068008275033002EB4E0E15440EF20B1E09E06A
:1040780001391038AEF1060E49B24B1C00F0CC8065
:104088009378013BDBB2C9B293708B4215F801CD2E
:1040980038D01E01F41C833602EB040852F8049051
:1040A800971903EB4304D8F808A01344D8F804B0D0
:1040B8006400D8F80C80C0F8009004F20B14C0F823
:1040C80004B0C0F808A0C0F80C8052F806A0D7F8D1
:1040D8000490FE68D7F80880C0F88C601619C0F8FC
:1040E80080A0C0F88490C0F8888093F803712F707E
:1040F8001459CEF80040B488AEF8044093F83B3128
:1041080085F838300CF12A0302EBC304A47AE407DB
:10411800AED4947874B392F803616645A8D0012CA4
:1041280028D092F804616645A2D0022C22D092F8D9
:10413800056166459CD0032C1CD092F80661664543
:1041480096D0042C16D092F80761664590D0052CBD
:1041580010D092F8086166458AD0062C0AD092F8E9
:104168000961664584D0072C04D092F80A41644559
:104178003FF47EAF1478013CE4B2A44514703FF4D8
:1041880077AFE400DB0004F25314033316591444E8
:104198006468D65013445C6093781478002B3FF41D
:1041A80067AF92F80361A64239D0012B3FF460AFA4
:1041B80092F80461A64234D0022B3FF459AF92F82A
:1041C8000561A64231D0032B3FF452AF92F8066145
:1041D800A64228D0042B3FF44BAF92F80761A642C1
:1041E80025D0052B3FF444AF92F80861A64220D0B1
:1041F800062B3FF43DAF92F80961A6421BD0072B6E
:104208003FF436AF92F80A31A3427FF431AF072367
:10421800134483F803C12BE7BDE8F08F70470023F0
:10422800F6E70123F4E70323F2E70223F0E7042388
:10423800EEE70523ECE70623EAE700BF500B002171
:10424800014B83F8DC017047500B0021014B93F8B8
:10425800DC017047500B0021421E4AF2B711034699
:1042680092B28A4204D8034A0120A2F8DE3170478C
:1042780000207047500B0021014BB3F8DE01704756
:10428800500B0021444B2DE9F04F1F7885B0002FCB
:104298006FD00B79002591F800B001932E464B7929
:1042A80091F801A0029391F8029091F803803A4B9B
:1042B800039703E0EEB2039AB2425AD993F8531126
:1042C800083393F84C41013593F84D2141408BEA6E
:1042D800040493F84EE18AEA0202019F214489EA24
:1042E8000E0E93F84FC10A4493F8501188EA0C0C4B
:1042F80093F8514172447940029F62447C401144D2
:104308006118D7D1244B9B789BB3234890F803219D
:10431800B24234D0012B2CD090F80421B24230D0D4
:10432800022B26D090F80521B2422CD0032B20D0A6
:1043380090F80621B24220D0042B1AD090F8072119
:10434800B24222D0052B14D090F80821B2421ED0D8
:10435800062B0ED090F80921B2421AD0072B08D0AC
:1043680090F80A11B1420CBF0720082005B0BDE83B
:10437800F08F082005B0BDE8F08F0320FAE7084663
:10438800F8E70120F6E70220F4E70420F2E7052029
:10439800F0E70620EEE700BF500B0021044B9A78A7
:1043A800824203D903EB0010833070470020704726
:1043B800500B0021044B9A78824203D903EB00107A
:1043C8000330704700207047500B002110B40D4C8B
:1043D800A378834203D8002310BC184670472044B2
:1043E80090F803312A33D80004EBC3030430DB7898
:1043F8000B7021182058012310BC106018468988BA
:1044080091807047500B002170B506460D4615F097
:104418002BFE14F0C5FF0A4B93F8DC4114B19978D0
:1044280011B90C46204670BDD81C83333246002D86
:1044380008BF184614F080FF14F0D8FF204670BD5E
:10444800500B002108B514F0E7FF08B9FF2008BD9C
:10445800BDE8084015F016B814F0DEBF074B9A788F
:10446800824209D9184490F8032103EBC20393F858
:104478005A0100F00100704700207047500B0021DE
:10448800F8B5414C2678002E54D0002528462B46F6
:1044980003E00135EBB2B3424CD203F12A0104EB3D
:1044A800C102927AD207F4D5A2787AB394F803C1FC
:1044B8009C4540D0012A29D094F804C19C4547D096
:1044C800022A23D094F805C19C4545D0032A1DD063
:1044D80094F806C19C4543D0042A17D094F8077174
:1044E8009F4241D0052A11D094F808719F423FD0CD
:1044F800062A0BD094F809719F423DD0072A05D0AF
:1045080094F80A719F423BD0102AC2D84FF0100C81
:1045180004EBC10322180135471C194682F8D4C19F
:10452800DA78FFB2043115F06DFB2678EBB2384625
:10453800B342B2D3F8BD4FF0000C6346234493F85E
:104548003B21012AE4D093F84B31002BA1D0DFE7BF
:104558004FF0010C6346F1E74FF0020C6346EDE7BC
:104568004FF0030C6346E9E74FF0040C6346E5E7B8
:104578004FF0050C6346E1E74FF0060C6346DDE7B4
:104588004FF0070C6346D9E7500B00212DE9F8439B
:10459800144DAF781FB300263146334605EB0309A7
:1045A8004A1C013605EB010899F83BE1D4B20846EC
:1045B800BEF1010F02D099F84B216AB199F80311A5
:1045C80088F8D4312A3105EBC1031946DA78043169
:1045D80015F018FBAF782146F3B2BB42DED3BDE835
:1045E800F88300BF500B00218C460246012108B514
:1045F800054B03EB0C1303F1830014F09DFEBDE89B
:10460800084014F0F3BE00BF500B0021074B10B553
:1046180093F8DC4114B1997811B90C46204610BDC5
:104628000246D81C14F088FE204610BD500B00210D
:10463800F8B5114DAE7856B1002407462346E9185F
:1046480091F8431121B10134E3B2B342F7D3F8BD75
:1046580003EB4301013405EB03133A4605EB410133
:1046680003F1830001F20B11FEF784F8AE78E3B290
:10467800B342E4D3F8BD00BF500B00210048704797
:10468800300D0021084B9A7882420AD91A1892F8FC
:10469800432132B900EB400003EB400000F20B105D
:1046A80070470020704700BF500B002101EB41010B
:1046B800044B0268490001F20B115A5019448388CF
:1046C8008B807047500B0021064B9A78824206D99E
:1046D800184490F83B01B0FA80F040097047002078
:1046E800704700BF500B00212DE9F04F0C4683B0F6
:1046F800062105462046009200F02EFA064658B1DB
:104708004B48827822B1009900F23B101AF042FD22
:10471800304603B0BDE8F08F454B18780028F7D035
:1047280094F800B0B64694F801A094F8029094F872
:104738000380277994F805C034463D4B019603E081
:104748005FFA8EF4A04262D993F85321083393F8A4
:104758004C610EF1010E93F84D116A408BEA060682
:104768008AEA0101164493F84E21314489EA02028B
:1047780093F84F610A4493F8501188EA0606794085
:10478800164493F8512131448CEA02025118D7D1CA
:1047980027480A46019E8378002BB9D090F8031168
:1047A800A1422AD0012BB3D090F80421A24235D0DF
:1047B800022BADD090F80521A24231D0032BA7D00F
:1047C80090F80621A2422DD0042BA1D090F8072101
:1047D800A24229D0052B9BD090F80821A2421BD0D9
:1047E800062B95D090F80921A2421FD0072B8FD015
:1047F80090F80A31A3428BD107220D4B01261A44A7
:104808003046009B82F83B3103B0BDE8F08F019E33
:10481800304603B0BDE8F08F0522EEE70122ECE751
:104828000222EAE70322E8E70422E6E70622E4E7B1
:10483800500B0021002342F2107CA0F848200364AA
:104848004B1E0CFB0232B2FBF1F14164704700BF12
:1048580070B50D46002106461DF0B8FD686018B118
:10486800002318462B7070BD0446012130461DF008
:10487800ADFD686018B1012320462B7070BD022081
:1048880070BD00BF38B504460D4631B1012965D069
:1048980002292CD003295AD038BD4FF481621AF06E
:1048A80079FC49230122042184F81731342384F840
:1048B800CD20072284F81931FE232B2084F8181103
:1048C80084F81A217F21424A84F84E314FF6FF734B
:1048D80084F81B5184F81C5184F81D5184F8160182
:1048E80084F8C110C4F8B020A4F8563138BD0023AC
:1048F800D0F8DC23416942F21075B0F8E203A4F85D
:10490800F630B4F8FA3001FB03F3B3FBF2F3A4F882
:10491800FA30531E05FB0030B0FBF2F0A4F8F800A3
:10492800D4F8E80000FB01F1B1FBF2F1C4F8E8109B
:104938002849B1FBF2F10131A4F8FE10B4F8F010E7
:1049480005FB0133B3FBF2F3C4F8EC3038BD00F1DA
:10495800CE01CD30BDE8384000F0B8BD4369002530
:104968001D49B0F8FA00D4F8E820194403FB00F018
:1049780003FB02F2A4F8165384F80B53A4F8F6507C
:10498800B1FBF3F1B0FBF3F0B2FBF3F2C4F8EC10B7
:1049980040F6B831A4F8FA00581EC4F8E820A4F884
:1049A800F01042F21071E28B01FB0200094A04F197
:1049B800CE01B2FBF3F2B0FBF3F3013204F1CD0008
:1049C800A4F8F830A4F8FE20BDE8384000F07EBD19
:1049D80000E0FCFF005A62027FC3C90138B50446F3
:1049E8000D4631B1012964D002292BD0032959D0B1
:1049F80038BD4FF45E721AF0CDFB49230122042121
:104A080084F81731342384F8CD20072284F819312B
:104A1800FE232B2084F8181184F81A217F21404A9C
:104A280084F84E31202384F81B5184F81C5184F8F3
:104A38001D5184F8160184F8C110C4F8B02084F818
:104A4800193338BD0023D0F84023416942F210756C
:104A5800B0F84603A4F8F630B4F8FA3001FB03F3D3
:104A6800B3FBF2F3A4F8FA30531E05FB0030B0FB99
:104A7800F2F0A4F8F800D4F8E80000FB01F1B1FB6B
:104A8800F2F1C4F8E8102749B1FBF2F10131A4F8BA
:104A9800FE10B4F8F01005FB0133B3FBF2F3C4F8D1
:104AA800EC3038BD00F1CE01CD30BDE8384000F023
:104AB8000DBD436942F210751B4AB0F8FA001A445A
:104AC800D4F8E81003FB00F003FB01F1B2FBF3F2AA
:104AD800B0FBF3F0C4F8EC2040F6B832A4F8FA00C2
:104AE800581EA4F8F020E28B05FB02000D4AB1FB2A
:104AF800F3F1B2FBF3F2B0FBF3F30132A4F8F830B0
:104B08000023C4F8E81004F1CD0004F1CE01A4F8A4
:104B1800FE20A4F8F630BDE8384000F0D7BC00BF4E
:104B280000E0FCFF005A62027FC3C90170B5047936
:104B380034F01F040ED1451E061D15F8010F02F0B2
:104B4800ABFD0444B542E4B2F7D1012C94BF002078
:104B5800012070BD002070BD002964D04B1E062BBB
:104B680000B562D98B0800F1040E02464FF0000C24
:104B7800013BDBB20EEB830E52F8043B724543EA6D
:104B88000C0CF9D1CCF30723CCF307424CEA03030E
:104B9800134301F0FC0243EA1C6331F0FC0CDBB266
:104BA8003CD010F802C043EA0C0302F1010C5FFA92
:104BB8008CFC614532D910F80CC043EA0C0302F1B1
:104BC800020C5FFA8CFCDBB2614527D910F80CC0E7
:104BD80043EA0C0302F1030C5FFA8CFC61451DD912
:104BE80010F80CC043EA0C0302F1040C5FFA8CFCC9
:104BF800614513D910F80CC043EA0C0302F1050C07
:104C08005FFA8CFC614509D9063210F80CC0D2B2A3
:104C180043EA0C03914201D9825C1343B3FA83F04F
:104C280040095DF804FB0120704700221346B8E7ED
:104C380062B102F1FF3C0A44431E5FFA8CF108445A
:104C480012F8011D03F8011F9842F9D1704700BFFF
:104C580030B51C468DB0C37B154642788DF80030C0
:104C6800837B8DF80E208DF80130437B8DF8023060
:104C7800037B8DF80330C37A8DF80430837A8DF87E
:104C88000530437A8DF80630037A8DF80730C379FA
:104C98008DF8083083798DF8093043798DF80A301A
:104CA80003798DF80B30C3788DF80C3083788DF844
:104CB8000D30037868468DF80F30CB7B4A788DF835
:104CC80010308B7B8DF81E208DF811304B7B8DF8C2
:104CD80012300B7B8DF81330CB7A8DF814308B7A29
:104CE8008DF815304B7A8DF816300B7A8DF8173011
:104CF800CB798DF818308B798DF819304B798DF880
:104D08001A300B798DF81B30CB788DF81C308B78E6
:104D18008DF81D300B788DF81F301EF08DF88DB38F
:104D28009DF82F009DF82E109DF82D209DF82C3011
:104D3800207061709DF82B009DF82A10A270E37016
:104D48009DF829209DF82830207161719DF8270071
:104D58009DF82610A271E3719DF825209DF8243056
:104D6800207261729DF823009DF82210A272E372EE
:104D78009DF821209DF8203020736173A273E3739E
:104D88000DB030BD08AD0FCD20606160A260E3605A
:104D98000DB030BDA0F10B03042B08D9A0F12103FD
:104DA8002F2818BF062B94BF012000207047012030
:104DB800704700BF0D2900F28380DFE801F00D1174
:104DC800171D232939454B51585E67072A3A042A8B
:104DD8008CBF002001207047B2FA82F0400970476A
:104DE800073A012A8CBF0020012070470B3A022A9B
:104DF8008CBF0020012070470E3A012A8CBF00208A
:104E080001207047113A0C2A8CBF002001207047FE
:104E1800002B41D1A2F11303012B49D990F85E3040
:104E2800002B47D0143A082A8CBF00200120704775
:104E3800A2F11103032B3BD990F85E001D2A8CBF09
:104E4800002000F001007047A2F10400B0FA80F0E1
:104E580040097047A2F10100B0FA80F0400970479C
:104E680003BBA2F10500B0FA80F0400970471E3A72
:104E7800022A8CBF002001207047A2F121002F2AAE
:104E880018BF062894BF012000207047A2F129000E
:104E9800B0FA80F040097047123A0B2A8CBF002004
:104EA80001207047A2F11000B0FA80F04009704765
:104EB80001207047183A042A8CBF0020012070474F
:104EC80000207047F8B504460D46D0E9046717F08E
:104ED80053FA08B3DDB1236962699B1B62EB0702D1
:104EE800012B72F1000114DB6FF0010000219842E0
:104EF80071EB020215DB6A1E1344B3FBF5F303FBE7
:104F080005F5AE191D4647F10007C4E904672846B0
:104F1800F8BD00252846F8BD40F211212920FBF7ED
:104F2800D3FD40F21B212920FBF7CEFD904238B576
:104F3800044606D2121A742A38BF742215188D42F4
:104F480002D92546284638BD0321104618F088FAAC
:104F58000028F6D1F6E700BF11F00C030CD04B0780
:104F680012D44FF4747340229842194612D9401A49
:104F780090FBF2F080B2704702290DD0702809D951
:104F88007038C0F3CF00704740F20E2310229842C9
:104F98001946ECD8002070473C28FBD93C38C0F3B0
:104FA8008F0070470B68C0F86A307047034610F0EE
:104FB800010007D19A0704D413F0040018BF082091
:104FC80070470220704700BF2DE9F84F8946074611
:104FD8000846924601F0CEFA0546484601F0CEFA58
:104FE80010F00104064659D1820700F1928010F0B2
:104FF800040474D1A34615F001084CD1AB0700F1A5
:10500800838015F0040803D04FF0010B4FF0080817
:1050180014F040F90640F6B2002E08BF002414F040
:1050280039F9054097F86E30EDB2002D08BF4FF002
:105038000008A34226D08AF8004097F86F3043450D
:105048002FD044EA0803DBB28AF80180002B4CD049
:10505800D4B3082C06D05846BDE8F88F042B01D0ED
:10506800082B37D197F86431012BF4D1B7F86831A0
:10507800012B97F86E3050D0082BECD008238AF813
:105088000030E8E700238AF8003097F86F2042459F
:1050980029D04346D8E74FF0010BB9E74FF0010B91
:1050A800A9E700238AF80130002CD2D1484601F044
:1050B8006BFAB7F8BC3047F6FD72DB4303449BB28A
:1050C800934288BF4FF0000B97F86E30022BC5D87B
:1050D800002BC0D14FF436710620FBF7F5FC4FF0DA
:1050E800010B082487E78AF80130484601F04CFA9A
:1050F800B7F8BC30DB43184447F6FD7380B29842DA
:1051080088BF4FF0000BA3E74FF0010B4FF00208E8
:105118007EE74FF0010B02246DE7042BAED0042389
:105128008AF8003097E700BF012805D0022803D08D
:1051380010F00C0018BF0420704700BFC1F307230C
:1051480084B05FFA80FC012B0190C9B2C0F307203C
:105158001ED101291CD10CEA000001400B401A465F
:10516800990731D413F0010102D113F0040131D1B0
:1051780090072DD412F0010303D112F0040318BFD5
:105188000823002061F3070063F30F2004B0704781
:10519800022901D1022BDED0042901D1042BDAD057
:1051A800BCF1010F01D10128D5D0BCF1020F01D10A
:1051B8000228D0D0BCF1040F01D10428CBD00CEACE
:1051C800030300EA0102CBE790074FF00201D1D5B3
:1051D8000223D6E793070DD412F0010303D112F08E
:1051E800040318BF0823BDF80620012A14BF0821AC
:1051F8000421C6E70223F6E7082908BF01288446E8
:105208000CBF012000200FD0A1F10400BCF1010F58
:10521800B0FA80F04FEA501008BF002000B970477C
:1052280008211380518070470421138051807047F2
:10523800162A01D000207047A0F10C02032A0CD9CD
:10524800212806D00029F5D00A78012A05D9162A7E
:10525800F0D1232201201A7070472A2201201A70E7
:10526800704700BF013908B5072914D8DFE801F0F5
:10527800071013041313130440F6A66008BD034671
:1052880040F2E24240F6C410002B08BF104608BDA9
:1052980040F6C41008BD40F2A1312920FBF714FCE8
:1052A80041F27073A0F57A729A4205D9064BA3FBB6
:1052B8000030C0F38F207047044BA3FB00308009F7
:1052C80000F5506080B270475917B7D1D34D6210BE
:1052D8006FF45063C318062B04D940F2E24303FB72
:1052E80000F070474FF47A73A0F5506003FB00F0AC
:1052F800704700BF41F64B53994208D9C0EB4013A1
:1053080000EB830000EB8000400080B2704700EBA8
:10531800800000EB80008000704700BF41F64B53CF
:10532800994205D9054BA3FB0030C0F3872070478D
:10533800034BA3FB0030C0F3471070475917B7D190
:105348001F85EB5141F64B53994294BF642340F2B9
:10535800E24303FB00F0704741F64B53994205D9ED
:10536800054BA3FB0030C0F38F207047034BA3FB12
:105378000030C0F34F1070475917B7D11F85EB5154
:1053880041F64B53994209D9094B40F2E242A3FB3B
:1053980000139B0A02FB1303C01A7047054B6422D3
:1053A800A3FB00135B0902FB1303C01A704700BF7D
:1053B8005917B7D11F85EB51A0F5E370884294BF08
:1053C800091A491A1868012910B400EB510494BF4E
:1053D800002001201C60136810BCA3EB5101116070
:1053E800704700BF074B93F900301844142804DCB9
:1053F80010F17F0F03DB40B27047142070476FF045
:105408007E007047400D002108B514F053FC084B8E
:1054180093F900301844142804DC10F17F0F03DBE3
:1054280040B208BD142008BD6FF07E0008BD00BF63
:10543800400D002100B583B07F230DF107008DF8E2
:10544800073014F01FFE20B99DF9070003B05DF87E
:1054580004FB0A4A9DF907305078404240B218448C
:10546800142806DC10F17F0F05DB40B203B05DF8AD
:1054780004FB1420EAE76FF07E00E7E7400D002107
:10548800074B1A7803463AB9064901220868097990
:10549800186010461971704700221046704700BF07
:1054A800440D00211C000021034606494FF0FF0C63
:1054B800054A00681B7982F800C008600B71002358
:1054C800137070471C000021440D002170B5441C66
:1054D80005468C4204D00B68C0F801300B79237163
:1054E8006B790022AE1D03F01F03EA726B7114F88A
:1054F800010B02F0D1F82071B442EB7A1844E8723B
:10550800F5D170BD81EA1141844689B24A4008B597
:10551800D3B293FAA3F3120A92FAA2F2120E1B0E56
:1055280043EA022303EB03130B449AB2DBB293FA68
:10553800A3F3120A92FAA2F2120E1B0E43EA0223F6
:1055480003EB03130B449AB2DBB293FAA3F3120AE8
:1055580092FAA2F2120EA0481B0E43EA022303EBB2
:1055680003130B444B409BB2A0FB03201A1A00EB19
:105578005200400900EBC00200EB82000122181A19
:10558800C0F3C40100F0070E614402FA0EF2497834
:10559800114201D0C0B208BD9CF80B1001FB03F307
:1055A8009CF806104FEA134E1B140EF10100C2B20C
:1055B8008A425BD9501AC2B29CF80730934280F0F5
:1055C8009A80D01AC2B29CF808309A4240F2D98028
:1055D800D01AC2B29CF809309A420AD9D01AC2B27B
:1055E8009CF80A30934280F013819D214620FBF7F6
:1055F8006BFA9CF80430D90705D5501E10F0FF024D
:1056080001D1032281E0980705D5501E10F0FF0252
:1056180001D1032238E0590705D5501E10F0FF02CA
:1056280001D103223BE0180705D5501E10F0FF02F8
:1056380001D103223BE0D90605D5501E10F0FF0228
:1056480001D103223BE0980605D5501E10F0FF0259
:1056580001D103223BE0590600F118811806BFD595
:10566800501E10F0FF02BBD1032242E09CF801104B
:10567800C80703D5002B00F0108172468B0708D5A8
:10568800501E10F0FF0204D1012000EBC200C0B28E
:1056980008BD480705D5501E10F0FF0201D10220B1
:1056A800F3E70B0705D5501E10F0FF0201D10320C8
:1056B800EBE7C80605D5501E10F0FF0201D1042003
:1056C800E3E78B0605D5501E10F0FF0201D1052037
:1056D800DBE7480605D5501E10F0FF0201D1062071
:1056E800D3E70B067FF568AF501E10F0FF027FF47A
:1056F80063AF0720C9E79CF8023013F0010106D018
:10570800501E10F0FF0202D10A460020BDE798079C
:1057180005D5501E10F0FF0201D10122B4E7590748
:1057280005D5501E10F0FF0201D10122B7E7180776
:1057380005D5501E10F0FF0201D10122B7E7D906A6
:1057480005D5501E10F0FF0201D10122B7E79806D7
:1057580005D5501E10F0FF0201D10122B7E7590606
:1057680005D5501E10F0FF0201D10122B7E7180637
:105778007FF529AF501E10F0FF027FF424AF0122FD
:10578800B7E79CF80330D90705D5501E10F0FF0283
:1057980001D10222B9E7980705D5501E10F0FF0283
:1057A80001D1022270E7590705D5501E10F0FF02FB
:1057B80001D1022273E7180705D5501E10F0FF0229
:1057C80001D1022273E7D90608D5501E10F0FF0256
:1057D80004D1022273E700BF4D91CFBA980605D5D0
:1057E800501E10F0FF0201D1022270E7590605D5BC
:1057F800501E10F0FF0201D1022270E718067FF553
:10580800E9AE501E10F0FF027FF4E4AE022270E70A
:105818009CF80530D90705D5501E10F0FF0201D1BC
:10582800042272E7980705D5501E10F0FF0201D137
:10583800042229E7590705D5501E10F0FF0201D1AF
:1058480004222CE7180705D5501E10F0FF0201D1DD
:1058580004222CE7D90613D4980603D5501E10F05D
:10586800FF021CD0590603D5501E10F0FF0218D0B5
:105878001B067FF5BAAE012A7FF4B7AE042238E7DB
:10588800501E10F0FF02E7D1042218E7501E10F056
:10589800FF027FF4E3AE032221E71A4635E704222C
:1058A80015E704221BE700BF90F830C00CF1FF3366
:1058B800242B14D88AB110B5044690F8250080B17D
:1058C800012853D1A28A04F125008969FFF71AFE3D
:1058D8000346002084F8333010BD1046704712206C
:1058E800704794F8311094F8323002FB0132994B2A
:1058F80083FB0213012113445B1103EBC30E03EB7B
:105908008E03D21AD2B204EBD20384F8322093F871
:1059180026E002F0070301FA03F31EEA030F65D13C
:1059280094F82B10B2FBFCF30CFB1322D2B2531CDD
:10593800DBB28B425DD95B1ADBB294F82C209A4219
:1059480080F093809B1ADBB294F82D20934240F2AA
:10595800CA809B1ADBB294F82E20934240F2FC8056
:105968009B1ADBB294F82F209A4201D21F2010BD57
:1059780094F82A20D10704D5013B13F0FF0300F067
:105988004C81910704D5013B13F0FF0300F04781D8
:10599800510704D5013B13F0FF0300F042811107C2
:1059A80004D5013B13F0FF0300F04581D10604D56F
:1059B800013B13F0FF0300F04081910604D5013B41
:1059C80013F0FF0300F03B81510604D5013B13F0AF
:1059D800FF0300F036811206C8D5012BC6D1042377
:1059E800072202EBC30384F8333010BD84F8332058
:1059F80010BD94F8261011F0010F03D0002A00F012
:105A0800F38013468A0704D5013B13F0FF0300F027
:105A1800DA804A0704D5013B13F0FF0300F0D68073
:105A28000A0704D5013B13F0FF0300F0D280CA0631
:105A380004D5013B13F0FF0300F0CE808A0604D59D
:105A4800013B13F0FF0300F0CA804A0604D5013B6E
:105A580013F0FF0300F0C6800A067FF56EAF013B26
:105A680013F0FF037FF469AFBAE794F8272012F028
:105A7800010104D0013B13F0FF0300F0B880910747
:105A880004D5013B13F0FF0300F09C80510704D5B7
:105A9800013B13F0FF0300F09880110704D5013B88
:105AA80013F0FF0300F09480D10604D5013B13F0F6
:105AB800FF0300F09080910604D5013B13F0FF032B
:105AC80000F08C80510604D5013B13F0FF0300F071
